:020000040800F2
:10000000680D0020F101000851500008C9410008A6
:100010004D500008F9080008BD6600080000000007
:1000200000000000000000000000000089550008EA
:10003000F509000800000000555000088B55000825
:100040000B0200080B0200080B0200080B0200085C
:100050000B0200080B0200080B0200080B0200084C
:100060000B0200080B0200080B020008FD08000844
:100070000D0900081D0900082D0900083D090008A8
:100080000B020008000000000B0200080B02000831
:100090000B0200080B0200080B0200080B0200080C
:1000A0000B0200080B0200080B0200080B020008FC
:1000B0000B0200080B0200080B0200080B020008EC
:1000C0000B0200080B0200080B0200080B020008DC
:1000D0000B0200088D6600080B0200080B020008E6
:1000E0000B0200080B0200080B0200080B020008BC
:1000F0000B0200080B0200080B02000800000000C1
:10010000000000000B020008000000000B020008C5
:100110000B020008000000000B0200080B020008A0
:100120000B0200080B0200080B0200080B0200087B
:100130000B02000800000000000000000B02000895
:100140000B0200080B020008000000000000000085
:10015000000000000000000000000000000000009F
:100160000000000000000000000000000B0200087A
:100170000B0200080000000000000000000000006A
:10018000000000000B02000800000000000000005A
:10019000000000000000000000000000000000005F
:1001A00000000000000000000B0200080B02000825
:1001B0000B0200080B0200080B0200080000000000
:1001C000000000000B02000800000000000000001A
:1001D0000B0200080B020008DFF810D000F06AFAEA
:1001E00000480047E9760008AFF30080680D002062
:1001F0000648804706480047FEE7FEE7FEE7FEE7C1
:10020000FEE7FEE7FEE7FEE7FEE7FEE7FD55000836
:10021000D90100082DE9F05F0546002092469B4673
:1002200088460646814640241BE02846414647460C
:10023000224600F077F853465A46C01A914110D32F
:1002400011461846224600F05EF82D1A67EB0108A9
:100250004F4622460120002100F055F817EB000917
:100260004E41201EA4F10104DFDC484631462A46F7
:100270004346BDE8F09FD2B201E000F8012B491ED1
:10028000FBD270470022F6E710B513460A46044633
:100290001946FFF7F0FF204610BD30B50446002098
:1002A000034600E05B1C934203D2E05CCD5C401B44
:1002B000F8D030BD00F0004230F000400AD0C10D4F
:1002C00001F56071C0F3160042EA0151C20840070F
:1002D0001143704700200146704730B50B46014678
:1002E00000202022012409E021FA02F59D4205D3D5
:1002F00003FA02F5491B04FA02F52844151EA2F17F
:100300000102F1DC30BD202A04DB203A00FA02F1C0
:10031000002070479140C2F1200320FA03F31943F3
:1003200090407047202A04DB203A21FA02F0002195
:10033000704721FA02F3D040C2F1200291400843F5
:10034000194670472DE9FE4F804681EA0300C00F31
:100350000C46009021F0004123F00045B8EB02006C
:10036000A94105D24046214690461C460B4602460E
:1003700023F00040104347D0270DC7F30A00C3F312
:100380000A510290401A019040286BDAC3F313001F
:1003900040F4801B0098924620B10023D2EB030A60
:1003A00063EB0B0B01985946C0F140025046FFF732
:1003B000AAFF06460D4650465946019A00F08CF9B0
:1003C00010EB08006141002487EA115284EAE773C8
:1003D0001A4340D0009A62B3019A012A4FEA0752A9
:1003E00015DC001B61EB02014FF0004202EA0752EC
:1003F000CDE90042001C41F5801132462B4600F049
:100400008CF903B0BDE8F08F40462146F9E7001BA8
:1004100061EB0201001C41F5801300185B412018BC
:10042000A2F5001747EB030140EAD570B6196D41FC
:1004300011E06D084FEA360645EAC0754FEA0752EB
:10044000001B61EB0201001C41F5801149084FEAD5
:1004500030000019514132462B4603B0BDE8F04F41
:1004600000F04CB90098012240000023D0EB0202BA
:1004700063EBE073009821464FEAE074B8EB0000AC
:1004800061EB0401E9E783F000435BE781F00041A1
:1004900058E72DE9FE4F81EA030404F0004421F0FF
:1004A000004100944FF0000B23F0004350EA010498
:1004B0005ED052EA03045BD0C3F30A54C1F30A5579
:1004C0002C44A4F2F3340194A0FB0254C1F31301B1
:1004D00041F48011C3F3130343F4801301FB02447E
:1004E00000FB034E840A970A44EA815447EA835783
:1004F000A4FB076802958D0A05FB07854FEA932C3C
:1005000004FB0C542705029D4FEA065847EA1637AC
:10051000B5EB08056EEB070C870E920E47EA8117C4
:1005200042EA8312A7FB0201B6EB0B0164EB000465
:100530002B0D43EA0C335E1844EB1C50DA4651464F
:10054000E7FB0201C5F313044FEA0B3343EA1453EC
:100550004FEA0432019C43EA0603A4F10C0402941E
:10056000009CCDE900B400F0D8F803B0BDE8F08FEE
:1005700000200146F9E72DE9F04D81EA030404F07B
:10058000004B21F0004514464FF0000A23F00041D3
:1005900050EA050220D054EA01021DD0C5F30A57E3
:1005A0000246C5F31303C1F31300C1F30A5640F426
:1005B000801543F48013A7EB0608101BD64608F2FB
:1005C000FD3873EB050002D308F1010801E0921831
:1005D0005B41B8F1000F03DA00200146BDE8F08D61
:1005E00000204FF48011064684460EE0171B73EB83
:1005F000050705D3121B63EB050306434CEA010C08
:1006000049084FEA300092185B4150EA0107EDD1EA
:1006100052EA030012D082EA040083EA050108438B
:1006200005D0101BAB4106D20122002306E00022B8
:100630004FF0004302E06FF0010253101AEB060086
:100640004CEB085110EB0A0041EB0B01BDE8F04DFB
:1006500000F054B8C1F30A52C1F3130140F2FF3362
:1006600041F480119A4202DA00200146704740F2BC
:1006700033439A42A2F2334202DC5242FFF752BEA7
:10068000FFF741BE30B5041E71F1000404DB4FF0EA
:100690000044404264EB0101141E73F1000405DBC9
:1006A0001C464FF00043524263EB0403994208BFDB
:1006B000904230BD064C074D06E0E06840F0010373
:1006C00094E8070098471034AC42F6D3FFF788FD52
:1006D000DC8B0008FC8B0008202A06DBCB17203AB5
:1006E00041FA02F043EAE07306E041FA02F3D04037
:1006F000C2F12002914008431946704710B5141EFC
:1007000073F1000408DA401C41F1000192185B41CA
:100710001A4301D120F0010010BD2DE9F04D9246A1
:100720009B4611B1B1FA81F202E0B0FA80F22032B8
:100730009046FFF7E8FD04460F4640EA0A0041EA0A
:100740000B0153465A46084313D0114653EA0100A1
:1007500019D0C8F140025046FFF7E4FD05460E46A9
:10076000504659464246FFF7CEFD084305D00120CA
:1007700004E020463946BDE8F08D0020054346EAF6
:10078000E0762C4337430A986305E40AA0EB08009F
:100790000022FD0A44EA47540A3002D500200146EF
:1007A000E9E7010510196941DDE9084500196941CA
:1007B000BDE8F04DA2E770B50546AC6AE06D00F00B
:1007C000500098BBE06D40F40070E0652068006860
:1007D00000F00800A8B1206804F058F810B32068B1
:1007E000C06800F40050E8B9E06D20F48070E06566
:1007F000E06D00F48050A8B9E06D40F00100E065C4
:1008000010E02068C06800F0020058B9E06D20F4E4
:100810008070E065E06D00F4805018B9E06D40F044
:100820000100E065204600F003FC0CE0FFE7E06D0E
:1008300000F0100018B1204600F0FCFB03E0606DF2
:10084000416B2846884770BD70B50546AC6AE06DBF
:1008500040F04000E065206E40F004002066204635
:1008600000F0E8FB70BD70B50446A56A284600F0AC
:10087000E0FB70BD70B50446206803F0EEFF002871
:1008800036D1206880681B49084048B1E06D40F0CF
:100890001000E065206E40F001002066012070BD70
:1008A000206803F0BFFF01F033F905461AE0206825
:1008B00003F0D3FF10B9206803F0B4FF01F028F96A
:1008C000401B02280ED92068006800F0010048B9DA
:1008D000E06D40F01000E065206E40F00100206601
:1008E0000120DCE72068006800F001000028DED06D
:1008F0000020D4E73F00008000BFFEE710B50248AB
:1009000000F0AFFE10BD0000F405002010B5024855
:1009100000F0A7FE10BD00008C01002010B50248B9
:1009200000F09FFE10BD0000EC01002010B5024851
:1009300000F097FE10BD00000404002010B502482E
:1009400000F08FFE10BD0000A403002030B50E4D56
:100950000468AC4201D20D4901E00C4920310B463C
:100960000478083C1425B4FBF5F2446CA40803EBAE
:1009700084048464054C8034C46402F01F0501249F
:10098000AC40046530BD000008040240000802408D
:1009900001794A1E064B03EB82024265044A40324B
:1009A00082654A1E02F01F0301229A40C265704709
:1009B0000009024030B5D0E913546C60446D14B1A5
:1009C000D0E916546C6090F8444004F01F050124EF
:1009D000AC40056C6C60046863608468102C04D1C2
:1009E0000468A2600468E16003E00468A160046830
:1009F000E26030BD7047002109E0002201E0531C95
:100A00009AB240F6B8339A42F9DB4B1C99B2814254
:100A1000F3DB704772B600BFFEE700002DE9F0433C
:100A20009BB004460E464FF00008306800B100BF8E
:100A300000BF94F85800012803D102201BB0BDE884
:100A4000F083012084F8580000BF00201790189010
:100A50002068B0F1A04F02D13148009001E00020A1
:100A60000090009850B9E06D40F02000E06500BFB4
:100A7000002084F8580000BF0120DFE7009803F051
:100A800000FF0746206803F0FCFED8BBD7BB254D0E
:100A9000306800B394F83800716841EA4030A968C2
:100AA00021F460410843A8604FF0A04003F0DAFE53
:100AB00081461B4803F0D6FE49EA0009B9F1000F50
:100AC00027D1B16830680843A96840F61F72914386
:100AD0000843A8601DE0A86820F46040A8604FF0BB
:100AE000A04003F0BFFE81460D4803F0BBFE49EA7B
:100AF0000009B9F1000F0CD1A86840F61F718843B6
:100B0000A86006E0FFE7E06D40F02000E0654FF0F0
:100B1000010800BF002084F8580000BF40468DE760
:100B200000010050000300502DE9F84F05460C4627
:100B30004FF0000A00200090FE49E068884200D093
:100B400000E000BF00BF95F85800012802D1022044
:100B5000BDE8F88F012085F8580000BF286803F031
:100B60008BFE00287DD12968D4E9002001F1300CEA
:100B7000C0F3012B0CEB8B03D3F800C000F01F0E69
:100B80004FF01F0B0BFA0EFB2CEA0B0C00F01F0BA7
:100B9000C2F3846E0EFA0BFE4CEA0E0CC3F800C0D2
:100BA00000BF286803F068FE8146286803F050FE05
:100BB0008046B9F1000F64D1B8F1000FFBD1A068F5
:100BC000B0F1004F0AD121680022286803F070FEBE
:100BD0004FF00041286803F090FE08E0A268216809
:100BE000286803F065FE0021286803F086FE60692E
:100BF0002968C968C1F3C101490000FA01F72069F9
:100C000004283FD028682268216900F1600C0CEBB1
:100C10008103D3F800C0DFF820B30CEA0B0C02F01C
:100C2000F84B4BF0004B4BEA070B4CEA0B0CC3F8AC
:100C300000C000BF2868A269216900F1600C0CEBBC
:100C40008103D3F800C02CF0807C4CEA020CC3F87E
:100C500000C000BF2868227F2169012A02D1520604
:100C600001E0C6E10022134600F1600C0CEB8102AA
:100C7000D2F800C02CF0007C4CEA030CC2F800C093
:100C800000BFA7E00021286803F0D9FDC0F31200DF
:100C900030B90021286803F0D2FDC0F3846007E07A
:100CA0000021286803F0CBFD90FAA0F0B0FA80F0A4
:100CB0002168C1F3120119B92168C1F3846104E00C
:100CC000216891FAA1F1B1FA81F1884204D10022A0
:100CD0001146286803F006FE0121286803F0AFFDE5
:100CE000C0F3120030B90121286803F0A8FDC0F359
:100CF000846007E00121286803F0A1FD90FAA0F0CC
:100D0000B0FA80F02168C1F3120119B92168C1F36A
:100D1000846104E0216891FAA1F1B1FA81F188427D
:100D200004D100220121286803F0DCFD022128689B
:100D300003F085FDC0F3120030B90221286803F0EA
:100D40007EFDC0F3846007E00221286803F077FD90
:100D500090FAA0F0B0FA80F02168C1F3120119B93D
:100D60002168C1F3846104E0216891FAA1F1B1FA2C
:100D700081F1884204D100220221286803F0B2FDEB
:100D80000321286803F05BFDC0F3120030B9032192
:100D9000286803F054FDC0F3846007E0032128684D
:100DA00003F04DFD90FAA0F0B0FA80F02168C1F395
:100DB000120119B92168C1F3846104E0216891FA34
:100DC000A1F1B1FA81F1884204D1002203212868FF
:100DD00003F088FD286803F040FD002872D12868E0
:100DE000E2682168D0F8B030C1F3120C23EA0C039A
:100DF00002F0180BDFF844C12CFA0BFC0CEA010CD2
:100E000043EA0C03C0F8B03000BF4A49E0688842AA
:100E100058D12368C3F312031BB92368C3F3846357
:100E200004E0236893FAA3F3B3FA83F35B1C03F0A3
:100E30001F03092B3ED82368C3F312031BB9236891
:100E4000C3F3846304E0236893FAA3F3B3FA83F350
:100E50005B1C03F01F034FF0010C0CFA03FC23682A
:100E6000C3F312031BB92368C3F3846304E023684C
:100E700093FAA3F3B3FA83F35B1C03F01F034CEA6A
:100E8000836C2368C3F312031BB92368C3F3846321
:100E900004E0236893FAA3F3B3FA83F35B1C03F033
:100EA0001F0303EB43034FF0000B4BEA03534CEAE1
:100EB000030347E02368C3F3120323B92368C3F392
:100EC000846305E043E0236893FAA3F3B3FA83F362
:100ED0005B1C03F01F034FF0010C0CFA03FC2368AA
:100EE000C3F312031BB92368C3F3846304E02368CC
:100EF00093FAA3F3B3FA83F35B1C03F01F034CEAEA
:100F0000836C2368C3F312031BB92368C3F38463A0
:100F100004E0236893FAA3F3B3FA83F35B1C03F0B2
:100F20001F030A3B03EB43034FF0007B4BEA0353E1
:100F300006E0000000007F4000F0FF03FFFF070015
:100F40004CEA03031946A268286803F0B1FC2F4954
:100F50002068084050B300BF2D48806800F0E0765C
:100F600000BF2C492068884203D02B492068884262
:100F70001DD106F40000D0B92868B0F1A04F3ED1D1
:100F800046F40001224803F0A7FC244800682449E5
:100F9000B0FBF1F0401C00EB40008000009002E04C
:100FA0000098401E009000980028F9D127E01D49C4
:100FB000206888420CD106F0807048B91A49286828
:100FC00088421CD046F08071114803F085FC16E081
:100FD00016492068884212D106F4800078B9124977
:100FE000286888420BD046F48001094803F074FC5D
:100FF00005E0E86D40F02000E8654FF0010A00BF11
:10100000002085F8580000BF5046A1E50000088088
:1010100000030050000021C31000C0901000002009
:10102000400D0300000052C700010050000084CBB7
:1010300070477047704700002DE9F84F04464FF0A5
:1010400000090020009014B90120BDE8F88F606904
:1010500020B194F82400012800D100BFE06D30B920
:10106000204600F01DF90020206684F85800206812
:101070008168C1F3407131B120688168814A1140B3
:10108000816000BF00BF206803F0F1FBB0B92068A9
:1010900081687D4A114041F08051816000BF7B48EA
:1010A00000687B49B0FBF1F0401C4000009002E07A
:1010B0000098401E009000980028F9D1206803F0A5
:1010C000D6FB48B9E06D40F01000E065206E40F0BE
:1010D000010020664FF00109206803F0CDFB0646B1
:1010E000E06D00F0100000287CD1002EFCD1E06DF6
:1010F00020F4807040F00200E065206803F0ADFB52
:10110000B0B94FF0A04003F0A8FB8246614803F05D
:10111000A4FB4AEA000ABAF1000F09D160685E49EF
:10112000896821F47C1101435B4A916000BF00BFD4
:10113000607FE16B41EA4030E1680843A168084301
:1011400094F8241040EA014594F82400012803D1C2
:10115000208D401E45EA4045E06A28B1A08D00F48C
:101160007870216B084305432068C0684B490840EC
:1011700028432168C8602068006920F04060616BE6
:10118000084321680861206803F076FB80462068E8
:1011900003F05EFB0746B8F1000F50D1F7BB207F8C
:1011A000002141EA803194F8380041EA4005206886
:1011B000C06844F20201884328432168C86020695E
:1011C00088B12068006940F4803021680861206897
:1011D000D0F8C0006FF30D00216908432168C1F801
:1011E000C0000EE045E02068006920F480302168EE
:1011F00008612068D0F8C0006FF30D002168C1F8C5
:10120000C00094F84000012813D1606C40F0010147
:10121000A06C0843E16C0843216D00E00FE0084337
:101220002168096940F2FC72914308432168086112
:1012300005E02068006920F001002168086160690C
:10124000012809D12068006B20F00F00216A491E97
:1012500008432168086305E02068006B20F00F0058
:1012600021680863E06D20F0020040F00100E065B5
:1012700005E0E06D40F01000E0654FF001094846E0
:10128000E3E60000C0FFFF5FC0FFFF7F100000200B
:10129000400D030000010050000300500740F0FF24
:1012A00010B598B00446142113A8FEF7EBFF4421B3
:1012B00002A8FEF7E7FF2068B0F1A04F56D14FF427
:1012C000004002908003119002A800F08DFD08B14B
:1012D000FFF7A0FB54480068401C534908600846CB
:1012E000006801280DD100BF5048C06C40F4005088
:1012F0004E49C8640846C06C00F40050019000BF1D
:1013000000BF00BF4948C06C40F002004749C864B4
:101310000846C06C00F00200019000BF00BF8814B6
:101320001390032014900020159013A9404800F05A
:10133000F5FA4048404908600520486000213E48D1
:101340008160C16080210161890041618900816102
:101350002021C161C901016200F002FA08B1FFF762
:1013600059FB00BF3448606584625BE03349206804
:10137000884257D1C00102908003119002A800F06A
:1013800033FD08B1FFF746FB27480068401C26499B
:1013900008600846006801280DD100BF2348C06CD2
:1013A00040F400502149C8640846C06C00F4005065
:1013B000019000BF00BF00BF1C48C06C40F002009D
:1013C0001A49C8640846C06C00F00200019000BFD2
:1013D00000BF4FF40040139003201490002015909C
:1013E00013A9134800F09AFA1248143014490860FF
:1013F00024204860002112488160C1608021016181
:1014000089004161890081612021C161C9010162B6
:1014100000F0A6F908B1FFF7FDFA00BF08486065C3
:10142000846200BF18B010BD000000200010024010
:10143000000400481C0002408C0100200001005004
:10144000EC0100202DE9F04104460F4690463D484E
:1014500003F0F0F90646206803F00EFA00286DD17B
:1014600000BF94F85800012802D10220BDE8F081A5
:10147000012084F8580000BF1EB1052E01D0092EAE
:1014800056D12046FFF7F6F90546002D4BD1E06D09
:1014900040F60161884340F48070E0652A49206885
:1014A000884202D14FF0A04000E0206821688842C5
:1014B00000D01EB9E06D20F48010E065E06D00F40E
:1014C000805020B1206E20F00600206601E0002050
:1014D00020661E48616DC8621D48616D08631D4825
:1014E000616D48631C202168086000BF002084F8FB
:1014F000580000BF2068406840F010002168486034
:101500002068C06840F001002168C860226802F1CC
:10151000400143463A46606D00F08AF9054620686E
:1015200003F0BEF90BE000BF002084F8580006E08D
:10153000012500BF002084F8580000E0022528465D
:1015400094E700000003005000010050B7070008B6
:1015500067080008490800080146002091F8252086
:10156000022A03D00422CA63012027E00A68126815
:1015700022F00E020B681A608A6C126822F48072E4
:101580008B6C1A600A68126822F001020B681A60FC
:1015900091F8442002F01F0301229A400B6C5A601C
:1015A000D1E913325A604A6D42B14A6D126822F491
:1015B00080724B6D1A60D1E916325A60012281F8AF
:1015C000252000BF002281F8242000BF704770B59D
:1015D0000446002594F8250002280BD00420E0637F
:1015E000012084F8250000BF002084F8240000BFFB
:1015F000012534E02068006820F00E0021680860B2
:101600002068006820F0010021680860A06C006874
:1016100020F48070A16C086094F8440000F01F0171
:1016200001208840216C4860D4E913104860606D47
:1016300040B1606D006820F48070616D0860D4E98D
:1016400016104860012084F8250000BF002084F8AF
:10165000240000BFA06B10B12046A16B884728462C
:1016600070BD70B50446206C05682068066894F863
:10167000440000F01F01042088402840E0B106F03B
:101680000400C8B12068006800F0200028B9206874
:10169000006820F004002168086094F8440000F01D
:1016A0001F0104208840216C4860206B002856D020
:1016B0002046216B884752E094F8440000F01F0157
:1016C00002208840284018B306F0020000B32068CA
:1016D000006800F0200040B92068006820F00A008F
:1016E00021680860012084F8250094F8440000F087
:1016F0001F0102208840216C486000BF002084F850
:10170000240000BFE06A50B32046E16A884726E023
:1017100094F8440000F01F01082088402840F0B1F0
:1017200006F00800D8B12068006820F00E0021689B
:10173000086094F8440000F01F0101208840216CEB
:1017400048600120E06384F8250000BF002084F891
:10175000240000BF606B10B12046616B884770BDEC
:1017600070B504460CB9012070BD2F49206888422D
:101770000BD22E492068401A1421B0FBF1F08000F2
:1017800060642A48083820640AE027492068401A23
:101790001421B0FBF1F08000606423480838206415
:1017A000022084F825002068056847F6F07085431C
:1017B000D4E9020108432169084361690843A1692A
:1017C0000843E1690843216A08430543206805602E
:1017D0002046FFF7BBF8A068B0F5804F01D100208C
:1017E00060602079A16C0860D4E9131048606068DB
:1017F00060B16068042809D82046FFF7C9F80020C6
:10180000616D0860D4E91610486003E0002060654F
:10181000A065E0650020E063012084F82500002039
:1018200084F8240000BF9FE708040240080002403B
:101830002DE9F04104460D4616461F464FF00008BC
:1018400000BF94F82400012802D10220BDE8F081F5
:10185000012084F8240000BF94F8250001283FD11E
:10186000022084F825000020E0632068006820F052
:101870000100216808603B46324629462046FFF7B2
:1018800099F8206B30B12068006840F00E002168A4
:1018900008600BE02068006820F004002168086000
:1018A0002068006840F00A0021680860A06C0068A9
:1018B00000F4803028B1A06C006840F48070A16C06
:1018C0000860606D28B1606D006840F48070616DE3
:1018D00008602068006840F001002168086006E0A8
:1018E00000BF002084F8240000BF4FF002084046EB
:1018F000ACE7000070B5044600F00AF9064625463C
:10190000681C10B104480068054400BF00F000F9ED
:10191000801BA842FAD370BD0C00002078B50346A6
:101920000022D0E0012696400D6805EA0604002C4E
:1019300072D04D68012D08D04D68022D05D04D683C
:10194000112D02D04D68122D13D198685600032531
:10195000B540A8435600CD68B54028439860586804
:1019600001259540A8430D79C5F3001595402843FE
:101970005860D86856000325B540A84356008D68C6
:10198000B5402843D8604D68022D02D04D68122D15
:1019900013D1D60803F1200555F826005507EE0EA1
:1019A0000F25B540A8435607F60E0D69B5402843EC
:1019B000D60803F1200545F82600186856000325CF
:1019C000B540A8430D7905F003055600B5402843FE
:1019D00018604D6805F08055B5F1805F72D100BF89
:1019E0003C4D2D6E45F001053A4E356635462D6E5F
:1019F00005F00105009500BF00BF4FEAB635960817
:101A000055F8260095072E0F0F25B540A843B3F1D2
:101A1000904F02D100251AE054E02F4DAB4201D186
:101A2000012514E02D4DAB4201D102250FE02C4DD4
:101A3000AB4201D103250AE02A4DAB4201D1042576
:101A400005E0294DAB4201D1052500E006259607AA
:101A5000360FB5402843254D960845F82600244DFD
:101A60002868A0434D6805F48035B5F5803F00D166
:101A700020431F4D28602D1D2868A0434D6805F4A4
:101A80000035B5F5003F00D12043194D2D1D2860CC
:101A90002D1D2868A0434D6805F48015B5F5801FFD
:101AA00000D12043124D083528602D1D2868A04321
:101AB0004D6805F40015B5F5001F00D120430C4D0D
:101AC0000C352860521C0D68D540002D7FF42AAFDC
:101AD00078BD0000001002400004004800080048E3
:101AE000000C0048001000480014004808000140A5
:101AF00000040140024613690B400BB1012000E0D5
:101B0000002070470AB1816100E0816270470000E7
:101B10000148006870470000040000200348006886
:101B2000034909680844014908607047040000201F
:101B30000C00002010B50024032000F0ABF80020BA
:101B400000F008F808B1012401E000F02FF8204669
:101B500010BD000070B50446002511480068D8B1DA
:101B60000F4800684FF47A71B1FBF0F00D49096835
:101B7000B1FBF0F6304601F01BF958B9102C07D232
:101B800000222146501E00F047F80748046004E098
:101B9000012502E0012500E00125284670BD000076
:101BA0000C000020100000200800002008B500BF35
:101BB0000E48006E40F001000C4908660846006EB1
:101BC00000F00100009000BF00BF00BF0846806D1C
:101BD00040F0805088650846806D00F0805000908D
:101BE00000BF00BF00F0F6F808BD00000010024082
:101BF0000146084600280DDB00BF00BF00F01F03B0
:101C000001229A4043099B0003F1E023C3F800211D
:101C100000BF00BF00BF70472DE9F05F80460D4652
:101C2000164604F06FFD074639462A46334601F052
:101C30000700C0F1070ABAF1040F02D94FF0040AF5
:101C400001E0C0F1070AD14600F1040ABAF1070F1A
:101C500002D24FF0000A01E0A0F1030AD4464FF08F
:101C6000010A0AFA09FAAAF1010A0AEA020A0AFAB8
:101C70000CFA4FF0010B0BFA0CFBABF1010B0BEA6A
:101C8000030B4AEA0B042146404604F043FDBDE83D
:101C9000F09F000000BF00F00702064B19684FF6E6
:101CA000FF031940044B0B4343EA0221014B196027
:101CB00000BF70470CED00E00000FA0502468ABB49
:101CC0004148006800F4C060B0F5806F2BD13E48F9
:101CD0008030006820F480703B4BC3F880001846C9
:101CE000006820F4C06040F4007018603748006855
:101CF00032235843364BB0FBF3F0411C00E0491E41
:101D00003148406900F48060B0F5806F01D100294E
:101D1000F5D12D48406900F48060B0F5806F51D155
:101D20000320704708E028488030006820F4807065
:101D3000254BC3F8800045E0B2F5007F3AD1224838
:101D4000006800F4C060B0F5806F2AD11E48803072
:101D5000006840F480701C4BC3F88000184600688F
:101D600020F4C06040F40070186018480068322306
:101D70005843174BB0FBF3F0411C00E0491E1248DA
:101D8000406900F48060B0F5806F01D10029F5D181
:101D90000D48406900F48060B0F5806F12D10320D7
:101DA000BFE709488030006840F48070064BC3F8F4
:101DB000800007E00448006820F4C06040F48060C0
:101DC000014B18600020ACE70070004010000020BC
:101DD00040420F000348806840F480400149886019
:101DE00070470000007000402DE9F84304460027CA
:101DF000B846206800F40020B0F5002F73D1B94632
:101E0000D348806D00F0805078B900BFD048806D15
:101E100040F08050CE4988650846806D00F08050C3
:101E2000009000BF00BF4FF00109CA48006840F4AD
:101E30008070C8490860FFF76BFE064606E0FFF7B2
:101E400067FE801B022801D9032705E0C14800680E
:101E500000F480700028F2D000BF002F46D1BC48AB
:101E60009030006800F44075CDB1206CA84216D0C7
:101E7000B7489030006820F44075B548D0F890001D
:101E800040F48030B249C1F890000846D0F8900084
:101E900020F48030C1F890000846C0F8905005F05A
:101EA0000100A0B1FFF734FE064608E0FFF730FE60
:101EB000801B41F28831884201D9032706E0A448FB
:101EC0009030006800F002000028EFD000BF5FB93A
:101ED0009F489030006820F44070216C08439C4972
:101EE000C1F8900003E00CE0B84600E0B846B9F154
:101EF000010F05D19648806D20F080509449886587
:101F000000BF207800F0010048B191488830006897
:101F100020F00300616808438D49C1F888002078EB
:101F200000F00200022809D189488830006820F0BA
:101F30000C00A16808438649C1F88800207800F0A9
:101F40000400042809D182488830006820F030005D
:101F5000E16808437E49C1F88800207800F0080055
:101F6000082809D17A488830006820F0C00021692B
:101F700008437749C1F88800207800F02000202825
:101F800009D173488830006820F4406061690843D3
:101F90006F49C1F88800207800F04000402809D13E
:101FA0006B488830006820F44050A16908436849B4
:101FB000C1F88800207800F08000802809D16448AA
:101FC0008830006820F44040E16908436049C1F866
:101FD0008800208800F48070B0F5807F09D15C48CB
:101FE0008830006820F44030216A08435849C1F81D
:101FF0008800208800F40070B0F5007F09D15448B3
:102000008830006820F44020616A08435049C1F8D4
:102010008800208800F48060B0F5806F13D14C48B0
:102020008830006820F44010A16A0843484988318C
:102030000860A06AB0F5801F05D14548C06840F42B
:1020400080104349C860208800F40060B0F5006F3C
:1020500013D13F488830006820F44000E16A08430B
:102060003B4988310860E06AB0F5800F05D13848F7
:10207000C06840F480103649C860208800F4805061
:10208000B0F5805F13D132488830006820F040708E
:10209000216B08432E4988310860206BB0F1807FA6
:1020A00005D12B48C06840F480102949C8602088B9
:1020B00000F40050B0F5005F13D125488830006867
:1020C00020F04060616B0843214988310860606BF3
:1020D000B0F1006F05D11E48C06840F480101C4963
:1020E000C860208800F48040B0F5804F13D11848B4
:1020F0008830006820F04060A16B084314498831A3
:102100000860A06BB0F1006F05D11148C06840F4C1
:1021100080100F49C860208800F40040B0F5004FDF
:1021200013D10B488830006820F04050E16B084321
:10213000074988310860E06BB0F1805F05D1044841
:10214000C06840F480300249C8604046BDE8F8836A
:1021500000100240007000402DE9F04104460D4699
:102160004FF0000814B90120BDE8F0817D480068F7
:1021700000F00F00A8420ED27A48006820F00F004D
:102180002843784908600846006800F00F00A8421C
:1021900001D00120E8E7207800F00100002864D099
:1021A0006068032823D17048006800F0007008B907
:1021B0000120D9E702F050FF06466C48864237D925
:1021C0006948806800F0F00030B1207800F002002B
:1021D00002282DD1A06858BB6348806820F0F00029
:1021E00040F08000604988604FF0800820E060681F
:1021F000022806D15C48006800F4003040B9012094
:10220000B2E75948006800F4806008B90120ABE7E4
:1022100000F0DEF806465548864209D952488068E3
:1022200020F0F00040F080004F4988604FF08008B7
:102230004D48806820F00300616808434A4988607F
:10224000FFF766FC074608E0FFF762FCC01B41F29F
:102250008831884201D9032086E74348806800F02E
:102260000C006168B0EB810FEED1207800F0020025
:10227000022820D1207800F00400042805D13A4833
:10228000806840F4E06038498860207800F00800F9
:10229000082807D13448806820F4605040F4E0609A
:1022A000314988603048806820F0F000A168084318
:1022B0002D49886008E0B8F1800F05D12A48806870
:1022C00020F0F000284988602648006800F00F00E0
:1022D000A84219D92348006820F00F00284321495B
:1022E0000860FFF715FC074608E0FFF711FCC01B6C
:1022F00041F28831884201D9032035E71948006846
:1023000000F00F00A842F0D1207800F0040004286B
:1023100007D11548806820F4E060E168084312495D
:102320008860207800F00800082808D10E488068EE
:1023300020F46050216940EAC1000B49886000F038
:1023400047F809498968C1F30311094A515C01F052
:102350001F01C8400749086007480068FFF7FAFBFB
:1023600002E70000002002400010024000B4C40454
:10237000F4790008100000200800002001480068DF
:10238000704700001000002000B5FFF7F7FF054977
:102390008968C1F30221044A515C01F01F01C84061
:1023A00000BD000000100240047A000800B5FFF7ED
:1023B000E5FF05498968C1F3C221044A515C01F077
:1023C0001F01C84000BD000000100240047A000850
:1023D00070B5224DAD6805F00C05042D01D12048E3
:1023E0003AE01E4DAD6805F00C05082D01D11D48E1
:1023F00032E01A4DAD6805F00C050C2D2BD1174DB0
:10240000ED6805F00304154DED68C5F303156A1C6E
:10241000022C0CD0032C09D1124DB5FBF2F50F4E56
:10242000F668C6F3062605FB06F10AE000BF0C4D70
:10243000B5FBF2F5094EF668C6F3062605FB06F174
:1024400000BF00BF054DED68C5F341656D1C6B0015
:10245000B1FBF3F000E0002070BD0000001002406E
:102460000024F40000366E012DE9F843044614B947
:102470000120BDE8F883207800F00100002865D035
:10248000FC48806800F00C07FA48C06800F00306BA
:102490000C2F01D1032E01D0082F0AD1F548006876
:1024A00000F40030002851D0606800284ED101208F
:1024B000DFE700BF6068B0F5803F06D1ED480068F7
:1024C00040F48030EB4908601AE06068B0F5A02F56
:1024D0000BD1E848006840F48020E64908600846CF
:1024E000006840F4803008600AE0E248006820F4A8
:1024F0008030E04908600846006820F480200860C9
:1025000000BF606888B1FFF703FB054606E0FFF7F0
:10251000FFFA401B642801D90320AAE7D5480068C8
:1025200000F400300028F2D010E0FFF7F1FA054681
:1025300006E0FFF7EDFA401B642801D9032098E775
:10254000CC48006800F400300028F2D1207800F078
:102550000200022860D1C748806800F00C07C54817
:10256000C06800F003060C2F01D1022E01D0042F09
:1025700018D1C048006800F4806018B1E06808B95C
:10258000012076E7BB48406820F0FE40217C40EA0D
:102590000160B8494860B8480068FFF7DBFA18B333
:1025A000012066E7E06800B3B248006840F480703C
:1025B000B0490860FFF7ACFA054606E0FFF7A8FA55
:1025C000401B022801D9032053E7AA48006800F401
:1025D00080600028F2D0A748406820F0FE40217CAF
:1025E00040EA0160A349486016E0A248006820F470
:1025F0008070A0490860FFF78BFA054606E0FFF7F8
:1026000087FA401B022801D9032032E79948006865
:1026100000F480600028F2D1207800F0080008283B
:1026200036D16069D0B193489430006840F0010021
:102630009049C1F89400FFF76BFA054606E0FFF7F2
:1026400067FA401B022801D9032012E78948943019
:10265000006800F002000028F1D019E085489430AD
:10266000006820F001008349C1F89400FFF750FA98
:10267000054606E0FFF74CFA401B022801D903206B
:10268000F7E67C489430006800F002000028F1D1A1
:10269000207800F00400042872D14FF0000875483B
:1026A000806D012121EA107078B100BF7148806D02
:1026B00040F080506F4988650846806D00F080507A
:1026C000009000BF00BF4FF001086C48006800F4A4
:1026D0008070B0B96948006840F48070674908604C
:1026E000FFF716FA054606E0FFF712FA401B02282C
:1026F00001D90320BDE66148006800F4807000281D
:10270000F2D000BFA068012808D15A489030006874
:1027100040F001005749C1F8900021E0A068052869
:102720000FD154489030006840F004005149C1F87E
:1027300090000846D0F8900040F00100C1F89000E9
:102740000EE04C489030006820F001004949C1F883
:1027500090000846D0F8900020F00400C1F89000E6
:1027600000BFA068A8B1FFF7D3F9054609E0FFF75D
:10277000CFF9401B41F28831884202D9032078E624
:1027800025E03C489030006800F002000028EED0C0
:1027900013E0FFF7BDF9054608E0FFF7B9F9401B64
:1027A00041F28831884201D9032062E631489030F5
:1027B000006800F002000028EFD1B8F1010F05D148
:1027C0002C48806D20F080502A49886500BF207811
:1027D00000F02000202836D1A069D0B125489830DB
:1027E000006840F001002349C1F89800FFF790F914
:1027F000054606E0FFF78CF9401B022801D90320AB
:1028000037E61C489830006800F002000028F1D03C
:1028100019E018489830006820F001001549C1F807
:102820009800FFF775F9054606E0FFF771F9401BC0
:10283000022801D903201CE60E489830006800F0F9
:1028400002000028F1D1E069002860D009488068C2
:1028500000F00C000C287FD0E069022858D1054810
:10286000006820F0807003490860FFF751F90546C1
:102870000DE0000000100240080000200070004041
:10288000FFF746F9401B022801D90320F1E54D4826
:10289000006800F000700028F2D1D4E90810401E52
:1028A00041EA0011A06A41EA0021208E0122C2EB18
:1028B000500041EA40513420005DC2EB500041EA33
:1028C00040612C20005D41EAC0603E49C9683E4A33
:1028D000114008433B49C8600846006840F08070DA
:1028E00008600846C06840F08070C860FFF710F9C3
:1028F000054606E0FFF70CF9401B022801D903202A
:10290000B7E53048006800F000700028F2D056E0CB
:102910002C48006820F080702A4908600846C0688A
:1029200020F00300C8600846C068284908402549CF
:10293000C860FFF7EDF8054607E00DE0FFF7E8F89F
:10294000401B022801D9032093E51E48006800F0CF
:1029500000700028F2D132E0E069012800D188E55A
:102960001848C66806F00301206A814225D106F0A6
:10297000F001606A401EB1EB001F1ED106F4FE415B
:10298000A06AB1EB002F18D106F078412C20005D31
:10299000B1EBC06F11D106F4C001208E0122C2EB51
:1029A0005000B1EB405F08D106F0C0613420005DFB
:1029B000C2EB5000B1EB406F01D0012059E500207F
:1029C00057E50000001002400C809F01FFFFEEFE63
:1029D00070B506460B4615460F4800680F4900EAD9
:1029E0000104200CD870C4F30420587004F03F0098
:1029F0009870C4F3423018705DB9D87802F0F0FCDA
:102A0000D870587802F0ECFC5870987802F0E8FC26
:102A10009870002070BD0000042800403FFFFF00B8
:102A200070B506460B4615461448006858601348B2
:102A300008300068C0F30E0098601048083800683D
:102A40000F4900EA0104C4F305401870C4F30620DE
:102A5000587004F07F009870A00DD8705DB9187898
:102A600002F0BEFC1870587802F0BAFC58709878E2
:102A700002F0B6FC9870002070BD000008280040ED
:102A80007F7F7F0070B504460125002C4ED094F85E
:102A9000250028B9002084F82400204600F04CF8D6
:102AA000022084F8250000BFCA2021490860532075
:102AB000086000BF204602F0ABFC05466DBB1C4819
:102AC0000C3800681B49084019490C390860216915
:102AD00060680843A169084315490C39096808432F
:102AE00013490C3908602089E16841EA0040104927
:102AF00014390860204602F0B3FC05466DB9D4E9EC
:102B0000071008436169084309490C39096821F035
:102B10006041084306490C39086000BFFF200449A2
:102B2000086000BF15B9012084F82500284670BD53
:102B300024280040BFFF8FFB10B592B0044644210B
:102B400001A8FDF79FFB13492068884220D14FF46C
:102B5000002001904FF44070119001A8FFF744F954
:102B600008B1FDF757FF0C48006840F400400A49DF
:102B70009039C1F8900000BF0846806D40F4806035
:102B800088650846806D00F48060009000BF00BF3B
:102B900012B010BD00280040901002402DE9F0470F
:102BA00005460C46174600BF95F82400012802D1BF
:102BB0000220BDE8F087012085F8240000BF022034
:102BC00085F825004FB9607800F01000102804D176
:102BD000607800F0EF000A30607097B9E07802F09A
:102BE00009FC4FEA0049607802F004FC49EA002938
:102BF000A07802F0FFFB49EA0009207849EA403852
:102C000009E0E0780004617840EA0120A1780843F7
:102C1000217840EA413800BFCA2012490860532099
:102C2000086000BF284602F0F3FB06464EB90E4886
:102C300008EA00000B4920390860284602F010FC21
:102C4000064600BFFF200749086000BF16B90120F3
:102C500085F8250000BF002085F8240000BF30461D
:102C6000A7E70000242800403FFFFF002DE9F047C0
:102C700005460C46904600BF95F82400012802D175
:102C80000220BDE8F087012085F8240000BF022063
:102C900085F8250000BFCA20344908605320086029
:102CA00000BF284602F0B4FB0646002E4ED1B8F114
:102CB000000F1CD12D480C38006800F0400000B116
:102CC00002E00020E07000BF207802F093FB4FEAA2
:102CD0000049607802F08EFB49EA0029A07802F0F2
:102CE00089FB49EA0009E07849EA805713E01F4868
:102CF0000C38006800F0400000B102E00020E070F5
:102D000000BF20780004617840EA0120A1780843E0
:102D1000E17840EA81571648384014492439086060
:102D200012480C38006820F4802010490C390860E3
:102D3000D4E9030108430D490C39096808430B49DC
:102D40000C390860284602F08BFB064600BFFF20C6
:102D50000649086000BF16B9012085F8250000BFAC
:102D6000002085F8240000BF30468AE72428004070
:102D70007F7F7F0070B505460C48006820F020007A
:102D80000A490860FEF7C4FE044607E0FEF7C0FEED
:102D9000001BB0F57A7F01D9032070BD034800689D
:102DA00000F020000028F1D00020F6E70C280040B9
:102DB00070B504462546681EB0F1807F01D301201E
:102DC0000FE0681E4FF0E02148610F214FF0FF3007
:102DD00003F0A0FC00204FF0E0218861072008618B
:102DE000002070BD10B50346002200BF93F83C00E0
:102DF000012801D1022010BD012083F83C0000BF52
:102E000022F0FF00CC6840EA040222F440708C6893
:102E100040EA040222F480604C6840EA040222F492
:102E200000600C6840EA040222F480500C6940EA19
:102E3000040222F400504C6940EA040222F480406B
:102E40000C6B40EA040222F470200C8B40EA04422E
:102E50001C4C1868A04203D01B4C1868A04204D137
:102E600022F08050CC6940EA0402164C1868A04257
:102E700003D0154C1868A0421BD122F470000C8DB1
:102E800040EA045222F080700C6A40EA040222F008
:102E900000704C6A40EA04020A4C1868A04203D051
:102EA000094C1868A04204D122F00050CC6A40EAD4
:102EB00004021868426400BF002083F83C0000BF91
:102EC00000BF98E7002C01400034014030B50246B5
:102ED0000B4600BF92F83C00012801D1022030BD12
:102EE000012082F83C0000BF022082F83D001068FB
:102EF0004168106884681D4D1068A84203D01C4DBD
:102F00001068A84203D121F47001586801431948A0
:102F100001401868014310684160144D1068A842D0
:102F200013D01068B0F1804F0FD0134D1068A84235
:102F30000BD0124D1068A84207D00D4D1068A84262
:102F400003D00F4D1068A84205D124F08004986882
:102F5000044310688460012082F83D0000BF002017
:102F600082F83C0000BF00BFB9E70000002C014020
:102F7000003401408FFFFFFD0004004000080040C6
:102F80000040014010B504460CB9012010BD94F872
:102F90003D0028B9002084F83C00204600F02AF8C3
:102FA000022084F83D00211D206802F031FB012041
:102FB00084F8480000BF84F83E0001213F200155FD
:102FC0004020015541200155422001554320015523
:102FD00000BF00BF012084F8440045200155462071
:102FE00001554720015500BF012084F83D00002015
:102FF000CCE7000010B586B00446142101A8FDF707
:1030000041F92068B0F1804F47D100BF5B48806D27
:1030100040F00100594988650846806D00F00100C4
:10302000009000BF00BF00BF0846C06C40F0010028
:10303000C8640846C06C00F00100009000BF00BFEB
:103040004FF4004001900220029000200390049071
:103050000120059001A94FF09040FEF75FFC484821
:103060004849086038204860002146488160C160B6
:103070008021016189004161890081612021C16154
:1030800000210162FEF76CFB08B1FDF7C3FC00BF35
:103090003C496162084684626EE03B492068884290
:1030A00046D100BF3548806D40F002003349886545
:1030B0000846806D00F00200009000BF00BF00BF16
:1030C0000846C06C40F00200C8640846C06C00F0BE
:1030D0000200009000BF00BF10200190022002906B
:1030E0000020039004900220059001A92748FEF7D4
:1030F00015FC23481438264908603D20486000210B
:1031000023488160C160802101618900416189009B
:1031100081612021C16100210162FEF721FB08B11C
:10312000FDF778FC00BF1A4961620846846223E01B
:103130001849206888420DD100BF1048006E40F445
:1031400000300E4908660846006E00F4003000901A
:1031500000BF11E01049206888420DD100BF074828
:10316000006E40F48020054908660846006E00F4B1
:103170008020009000BF00BF06B010BD00100240CC
:1031800058000240A403002000040040000400484E
:103190000404002000440140004801402DE9F041B2
:1031A00004460D4600BF94F83C00012802D10220DD
:1031B000BDE8F081012084F83C0000BF022084F8C3
:1031C0003D00206886683F48064026F47F46206818
:1031D00086602868702824D00CDC00F00F010029DC
:1031E00064D10011072861D2DFE800F0535455562E
:1031F00049353F00344A811A90424FD009DCB0F57E
:10320000805F0DD0B0F5005F18D0B0F1101F4DD128
:1032100043E0102943D0202942D0502946D140E034
:1032200045E0D5E902136A68206802F0ECFA2068EC
:10323000866846F077062068866038E0D5E9021394
:103240006A68206802F0DFFA2068806840F48040F5
:10325000216888602BE0EA686968206802F03CFD1C
:103260005021206802F0DAFA21E0EA6869682068F3
:1032700002F084FD6021206802F0D0FA17E0EA68CD
:103280006968206802F028FD4021206802F0C6FA33
:103290000DE000BF00BF00BF00BF00BF00BF00BF08
:1032A00000BF2968206802F0B9FA00E000BF00BF43
:1032B000012084F83D0000BF002084F83C0000BFDE
:1032C00000BF75E788FFCEFF2000100070477047F1
:1032D00070472DE9F04104460D46164600BF94F8AC
:1032E0003C00012802D10220BDE8F081012084F8D1
:1032F0003C0000BF96B9EB68D5E90012206802F0E7
:10330000FFFC2068806920F00C002168886120683B
:103310008069A9680843216888613DE0042E13D1C3
:10332000EB68D5E90012206802F03CFD2068806956
:1033300020F440602168886120688069A96840EABB
:1033400001202168886127E0082E12D1EB68D5E9B9
:103350000012206802F043FD2068C06920F00C00D4
:103360002168C8612068C069A96808432168C861EC
:1033700012E0EB68D5E90012206802F04CFD2068ED
:10338000C06920F440602168C8612068C069A968EC
:1033900040EA01202168C86100BF002084F83C0099
:1033A00000BF00BFA0E710B504460CB9012010BD56
:1033B00094F83D0028B9002084F83C00204600F035
:1033C00029F8022084F83D00211D206802F020F930
:1033D000012084F8480000BF84F83E0001213F200E
:1033E00001554020015541200155422001554320FF
:1033F000015500BF00BF012084F84400452001555D
:10340000462001554720015500BF012084F83D00AA
:103410000020CCE7704700002DE9F04704460D4638
:103420001746984615B994F83E0015E0042D02D1D0
:103430003F20005D10E0082D02D14020005D0BE030
:103440000C2D02D14120005D06E0102D02D142205A
:10345000005D01E04320005D814615B994F8440009
:103460000BE0042D02D14520005D06E0082D02D1BD
:103470004620005D01E04720005D8246B9F1020F61
:1034800002D0BAF1020F02D10220BDE8F087B9F1F3
:10349000010F3DD1BAF1010F3AD127B9B8F1000FB0
:1034A00001D00120F1E71DB9022084F83E001AE0A6
:1034B000042D03D102213F20015514E0082D03D132
:1034C0000221402001550EE00C2D03D102214120A4
:1034D000015508E0102D03D102214220015502E0E0
:1034E0000221432001551DB9022084F8440011E057
:1034F000042D03D10221452001550BE0082D03D1F5
:1035000002214620015505E002214720015501E036
:103510000120BAE735B1042D1FD0082D38D00C2D6D
:103520006CD150E05149606AC1625149606A0163DF
:103530005049606A4163226802F1340143463A46C9
:10354000606AFEF775F908B101209EE72068C0683F
:1035500040F400702168C86051E04449A06AC1622B
:103560004349A06A01634349A06A4163226802F1AA
:10357000380143463A46A06AFEF75AF908B10120DD
:1035800083E72068C06840F480602168C86036E046
:103590003649E06AC1623649E06A01633549E06A4A
:1035A0004163226802F13C0143463A46E06AFEF775
:1035B0003FF908B1012068E72068C06840F4006066
:1035C0002168C8601BE02949206BC1622849206B33
:1035D00001632849206B4163226802F140014346A0
:1035E0003A46206BFEF724F908B101204DE7206828
:1035F000C06840F480502168C86000E000BF00BF90
:1036000001222946206802F061F81B49206888429F
:1036100013D02068B0F1804F0FD01849206888423D
:103620000BD017492068884207D016492068884285
:1036300003D015492068884210D12068806813495A
:1036400000EA0106062E0FD0B6F5803F0CD02068A8
:10365000006840F001002168086005E0206800680B
:1036600040F001002168086000200EE7EF560008D6
:1036700069570008A9570008002C014000040040C9
:1036800000080040003401400040014007000100F4
:1036900010B586B00446142101A8FCF7F3FD2149BA
:1036A000206888421CD100BF1F48C06C40F0010058
:1036B0001D49C8640846C06C00F00100009000BFBE
:1036C00000BF40200190022002900020039004904F
:1036D0000120059001A94FF09040FEF71FF91FE06F
:1036E0001249206888421BD100BF0F48C06C40F0CF
:1036F00001000D49C8640846C06C00F0010000904C
:1037000000BF00BF802001900220029000200390A3
:1037100004900120059001A94FF09040FEF7FEF8BB
:1037200006B010BD004401400010024000480140B6
:1037300070B504460D46164600BF94F83C000128BB
:1037400001D1022070BD012084F83C0000BF0C2E86
:1037500051D005DC4EB1042E1ED0082E7AD133E0B4
:10376000102E60D0142EF9D175E02946206802F0A1
:1037700061F82068806940F008002168886120684D
:10378000806920F0040021688861206880692969C7
:1037900008432168886177E02946206802F0A0F894
:1037A0002068806940F40060216888612068806931
:1037B00020F480602168886120688069296940EA76
:1037C0000120216888615FE02946206802F0E2F864
:1037D0002068C06940F008002168C8612068C0699D
:1037E00020F004002168C8612068C0692969084385
:1037F0002168C86148E02946206802F025F9206860
:10380000C06940F400602168C8612068C06920F484
:1038100080602168C8612068C069296940EA012088
:103820002168C86130E02946206802F067F9206805
:10383000006D40F00800216808652068006D20F0E8
:103840000400216808652068006D29690843216823
:10385000086519E017E02946206802F087F920681A
:10386000006D40F40060216808652068006D20F458
:103870008060216808652068006D296940EA0120A0
:103880002168086500E000BF00BF00BF002084F889
:103890003C0000BF00BF55E710B504460CB901203D
:1038A00010BD94F83D0028B9002084F83C00204663
:1038B00000F029F8022084F83D00211D206801F065
:1038C000A7FE012084F8480000BF84F83E000121D3
:1038D0003F2001554020015541200155422001550E
:1038E0004320015500BF00BF012084F8440045205B
:1038F0000155462001554720015500BF012084F89D
:103900003D000020CCE7704770B504460D4615B960
:1039100094F83E0015E0042D02D13F20005D10E038
:10392000082D02D14020005D0BE00C2D02D141207A
:10393000005D06E0102D02D14220005D01E0432031
:10394000005D012801D0012070BD1DB9022084F85E
:103950003E001AE0042D03D102213F20015514E05E
:10396000082D03D10221402001550EE00C2D03D17A
:1039700002214120015508E0102D03D102214220EF
:10398000015502E002214320015501222946206809
:1039900001F09CFE2749206888420FD02649206804
:1039A00088420BD025492068884207D024492068E6
:1039B000884203D023492068884201D1012000E0D9
:1039C000002028B12068406C40F400402168486421
:1039D00018492068884213D02068B0F1804F0FD07A
:1039E0001949206888420BD018492068884207D0BE
:1039F00011492068884203D010492068884210D1BC
:103A000020688068124900EA0106062E0FD0B6F53C
:103A1000803F0CD02068006840F0010021680860F9
:103A200005E02068006840F001002168086000207F
:103A30008AE70000002C01400034014000400140B2
:103A400000440140004801400004004000080040DC
:103A50000700010070B504460D4600BF94F83C0015
:103A6000012801D1022070BD012084F83C0000BF74
:103A7000022084F83D002946204602F0AFF848B104
:103A8000012084F83D0000BF002084F83C0000BF06
:103A90000120E8E72068C06820F040002168C86085
:103AA0002068C06820F480402168C860012084F844
:103AB0003D0000BF002084F83C0000BF00BFD2E7FB
:103AC000014600BF91F88000012801D10220704713
:103AD000012081F8800000BF2420C1F8840008681C
:103AE00002680868006820F001000B68186022F086
:103AF000005200204866086802602020C1F8840057
:103B000000BF002081F8800000BF00BFDFE72DE983
:103B1000F04104460E461746D4F88800202827D1E5
:103B200006B117B90120BDE8F08100BF94F880000C
:103B3000012801D10220F6E7012084F8800000BFAF
:103B4000E0663A463146204602F0F0FC05466DB983
:103B5000E06E012809D11020216808622068006801
:103B600040F010002168086000E001252846DAE7EF
:103B70000220D8E770B504460D4605A002F0A0FD6E
:103B800009490AA002F09CFD01200D49087070BD92
:103B9000556172742043616C6C6261636B20537574
:103BA00063636573730A0000E404002043616C6C76
:103BB0006261636B20446174613A25730A0A0000F4
:103BC00095000020704770B504460D4600BF94F87C
:103BD0008000012801D1022070BD012084F88000FE
:103BE00000BF2420C4F884002068066820680068AC
:103BF00020F00100216808602068806820F0606083
:103C0000284321688860204602F024F92068066075
:103C10002020C4F8840000BF002084F8800000BF8A
:103C200000BFD9E770B504460D4600BF94F8800088
:103C3000012801D1022070BD012084F8800000BF5E
:103C40002420C4F88400206806682068006820F0FA
:103C50000100216808602068806820F060402843E7
:103C600021688860204602F0F5F820680660202070
:103C7000C4F8840000BF002084F8800000BF00BFAB
:103C8000D9E77047704770472DE9F0470446206830
:103C9000C569206806682068876840F60F0005EA55
:103CA0000009B9F1000F0FD105F0200060B106F056
:103CB000200010B907F0805030B1206F10B12046BD
:103CC000216F8847BDE8F087B9F1000F7ED0AD487D
:103CD000384018B9AC4830400028F7D005F0010052
:103CE00058B106F4807040B1012021680862D4F810
:103CF0008C0040F00100C4F88C0005F0020058B1BF
:103D000007F0010040B1022021680862D4F88C005D
:103D100040F00400C4F88C0005F0040058B107F02E
:103D2000010040B1042021680862D4F88C0040F002
:103D30000200C4F88C0005F0080070B106F0200005
:103D400010B99048384040B1082021680862D4F882
:103D50008C0040F00800C4F88C0005F4006060B1ED
:103D600006F0806048B14FF4006021680862D4F822
:103D70008C0040F02000C4F88C00D4F88C0000289F
:103D800044D005F0200050B106F0200010B907F033
:103D9000805020B1206F10B12046216F8847D4F8A1
:103DA0008CA02068806800F04000402802D00AF013
:103DB000280028B3204602F0B3F92068806800F09C
:103DC0004000402818D12068806800E01FE020F003
:103DD000400021688860E06F50B16C48E16F8863F3
:103DE000E06FFDF7F4FB88B1E06F816B88470DE071
:103DF0002046FFF748FF09E02046FFF744FF05E0B3
:103E00002046FFF740FF0020C4F88C005AE7E06E20
:103E1000012879D105F01000002875D006F01000B7
:103E2000002871D01020216808622068806800F0A6
:103E3000400040283DD1E06F006840681FFA80F8DC
:103E4000B8F1000F34D0B4F85C00404530DDA4F880
:103E50005E80E06F0068006800F02000F8B920681C
:103E6000006820F48070216808602068806820F075
:103E70000100216888602068806820F04000216887
:103E800088602020C4F888000020E0662068006870
:103E900020F0100021680860E06FFDF75DFBB4F8CA
:103EA0005C00B4F85E20801A81B22046FFF762FE03
:103EB00008E734F85C0F6188401A1FFA80F86088C0
:103EC0005C3CF8B1B8F1000F1CD02068006820F409
:103ED000907021680860206880682A49C9430840BA
:103EE000216888602020C4F888000020E0662067F0
:103EF0002068006820F010002168086041462046D4
:103F0000FFF738FEDEE6FFE705F4801050B107F456
:103F1000800038B14FF48010216808622046FFF716
:103F2000B1FECFE605F0800058B106F0800010B970
:103F300007F4000028B1606F10B12046616F884718
:103F4000C0E605F0400030B106F0400018B1204650
:103F500002F004F9B6E605F4000030B106F0804046
:103F600018B12046FFF78DFEACE605F0807030B149
:103F700006F0004018B12046FFF724FEA2E600BF7D
:103F8000A0E6000001000010200100041B600008F2
:103F900010B504460CB9012010BDA06900B100E0C5
:103FA00000BFD4F8840028B9002084F8800020469F
:103FB00000F02AF82420C4F884002068006820F06B
:103FC000010021680860204602F0EAF8012800D1CB
:103FD000E2E7A06A10B1204601F068FF206840685F
:103FE00020F49040216848602068806820F02A0012
:103FF000216888602068006840F00100216808603E
:10400000204601F0CFFFC7E710B598B00446142151
:1040100013A8FCF737F9442102A8FCF733F92F491C
:104020002068884257D1012002900020039002A806
:10403000FDF7DAFE08B1FCF7EDFC00BF2848006E82
:1040400040F48040264908660846006E00F480402F
:10405000019000BF00BF00BF0846C06C40F00100E7
:10406000C8640846C06C00F00100019000BF00BFAA
:104070004FF4C06013900220149000201590169009
:104080000720179013A94FF09040FDF747FC154803
:104090001549086018204860002113488160C160FC
:1040A00080210161002141618161C1614FF40051B2
:1040B0000162FDF755FB08B1FCF7ACFC00BF0A48F4
:1040C000E067846200BF002211462520FDF7A4FDB1
:1040D0002520FDF78DFD18B010BD0000003801400F
:1040E0000010024008000240F405002070477047AD
:1040F0002DE9F84F04460E4617469946D4F8840039
:1041000020285ED106B117B90120BDE8F88F00BFA5
:1041100094F88000012801D10220F6E7012084F8FC
:10412000800000BF00205434A06321202063FDF7ED
:10413000EFFC824627806780543CA068B0F5805F22
:1041400004D1206910B90025B04602E035464FF091
:10415000000800BF002084F8800000BF1DE0534627
:10416000002280212046CDF8009002F02FFA08B1FD
:104170000320CAE745B9B8F80000C0F30800216879
:10418000886208F1020803E02878216888626D1CC3
:10419000B4F85600401EA4F85600B4F856000028A3
:1041A000DDD15346002240212046CDF8009002F098
:1041B0000DFA08B10320A8E72020C4F884000020ED
:1041C000A3E70220A1E7704700BFFEE770B508250E
:1041D000002401F099F913E06006040E002001F0BC
:1041E00073F9142002F0A1FF142002F09EFF0120B9
:1041F00001F06AF9142002F098FF01F079F9044304
:10420000281EA5F10101CDB2E6D101F05DF914201F
:1042100002F08BFF01F0A2F9204670BD10B500201E
:1042200001F088F9142002F080FF142002F07DFFD5
:10423000012001F049F9142002F077FF002001F07D
:1042400043F9142002F071FF10BD70B50446082533
:1042500017E0002001F038F9142002F066FF04F0A6
:10426000800001F067F9142002F05FFF6006040E81
:10427000142002F05AFF012001F026F9142002F068
:1042800054FF281EA5F10101CDB2E2D101F01CF9C5
:10429000142002F04AFF70BD10B5012001F04AF968
:1042A000142002F042FF142002F03FFF012001F031
:1042B0000BF9142002F039FF002001F005F9142059
:1042C00002F033FF10BD10B5012001F033F91420C6
:1042D00002F02BFF012001F0F7F8142002F025FF77
:1042E000002001F027F9142002F01FFF002001F048
:1042F000EBF8142002F019FF10BD10B5002001F0FA
:10430000E3F8142002F011FF002001F013F914204B
:1043100002F00BFF012001F0D7F8142002F005FF96
:10432000012001F007F9142002F0FFFE10BD10B5C6
:10433000052401F0E9F8142002F0F7FE012001F055
:10434000C3F8142002F0F1FE0BE0601E84B21420CA
:1043500002F0EBFE2CB901F001F9FFF7CEFF0120CE
:1043600010BD01F0C5F80028EFD101F0ADF801F063
:10437000F5F8142002F0D9FE0020F1E700B585B071
:1043800014216846FBF77EFF4FF6FF700090002077
:104390000190032003900020029069460248FDF737
:1043A000BDFA05B000BD00000008004800B585B0AA
:1043B00014216846FBF766FF4FF6FF70009001205E
:1043C0000190032003900020029069460248FDF707
:1043D000A5FA05B000BD00000008004830B505464C
:1043E00000240021084600F049F900F097F900BFC9
:1043F00003E0284600F056F9641CB4F5963FF8D364
:1044000030BD000000B587B0142102A8FBF73AFFC9
:1044100000BF2B48C06C40F004002949C86408461E
:10442000C06C00F00400019000BF00BF00BF084650
:10443000C06C40F00100C8640846C06C00F0010088
:10444000019000BF00BF00BF0846C06C40F00200F2
:10445000C8640846C06C00F00200019000BF00BFB5
:104460004FF4487002900120039003200590002033
:10447000049002A91348FDF751FA4FF4807002909E
:1044800001200390032005900020049002A94FF022
:104490009040FDF743FAFFF789FF4FF090408069A5
:1044A00040F480704FF090418861064818300068F1
:1044B00040F4087003491831086007B000BD0000DF
:1044C000001002400004004870B505460E46144630
:1044D000A4F12000C4B204EB4400044901EB001233
:1044E0003146284600F01AF870BD00000C7A00082A
:1044F000F0B507460C46002540F23F1609E0227849
:1045000031463846FFF7E0FFA6F1100086B2641C82
:104510006D1C207808B1142DF1D3F0BD2DE9F043C6
:1045200006468946174600240025A046B04649465F
:10453000404600F0A3F800BF1EE000F0EFF80025B1
:104540000FE037F814000121A940084020B90C48B9
:10455000008800F0A7F803E00A48008800F0A2F8FD
:104560006D1C102DEDD308F1010000F0FF08494645
:10457000404600F083F8641C182CDED3BDE8F083BD
:10458000220000202000002010B5FFF73BFF002094
:1045900000F016F8094908800846008848F23021E2
:1045A000884202D100F08CFD01E000F019FE0020ED
:1045B00000F006F80149088010BD0000240000202A
:1045C00070B504462748006840F40070254908602B
:1045D0000846006840F4807008602248103800687F
:1045E00040F020001F49103908601F4804601D4832
:1045F000006840F020001B49086000BF00BF00BFFA
:1046000018481038006840F020001649103908603A
:104610000846006840F480700860FFF7AFFE4FF076
:104620009040806A40F480704FF09041886200BFF3
:1046300000BF00BF0C48001F006885B24FF09040DB
:10464000806940F480704FF090418861FFF7AEFEC2
:1046500004481038006840F40070024910390860BE
:10466000284670BD280400481408004801B5BDF86C
:1046700000000149088008BD2200002030B5044632
:104680000D462146202000F085F82946212000F023
:1046900081F830BD01B5BDF800000149088008BDB2
:1046A000200000201B49096841F40071194A11607B
:1046B00018491039096841F48071164A103A11609E
:1046C0001146096841F02001116013490860114941
:1046D000096841F020010F4A116000BF00BF00BF10
:1046E0000C491039096841F020010A4A103A11605A
:1046F0001146096841F48071116000BF00BF00BF1E
:1047000004491039096841F40071024A103A1160F5
:104710007047000028040048140800481B4800683F
:1047200040F40070194908600846006840F4807041
:10473000086016481038006840F02000134910390E
:1047400008602220124908601048006840F02000EC
:104750000E49086000BF00BF00BF0C481038006859
:1047600040F020000949103908600846006840F40C
:104770008070086000BF00BF00BF044810380068A8
:1047800040F400700149103908607047280400485F
:1047900014080048214A126842F400721F4B1A6044
:1047A0001A46126842F480721A601C4A103A126863
:1047B00042F02002194B103B1A60194A1060174A48
:1047C000126842F02002154B1A6000BF00BF00BF04
:1047D000124A103A126842F02002104B103B1A6045
:1047E0001A46126842F480721A600D4A11600B4A30
:1047F000126842F02002094B1A6000BF00BF00BFE0
:10480000064A103A126842F02002044B103B1A602C
:104810001A46126842F480721A60704728040048F1
:10482000140800488168024A1140491C81607047A1
:10483000C0FFFF7F0146886800F01F0070470246F6
:1048400002F1600000EB8103186800F0F840704747
:1048500001468868C0F3C00070470146886800F0D0
:10486000010070470146886800F00100704701466A
:104870008868C0F30070704701468868C0F3800004
:10488000704701468868C0F3800070470146C868D9
:1048900000F4406008B9012070470020FCE70000E8
:1048A0008168024A1140091D81607047C0FFFF7F87
:1048B00070B500F11404C1F3406504EB85031C6876
:1048C000C1F304560725B540AC43C1F3045502FAC1
:1048D00005F52C431C6070BD826822F0E0720A432B
:1048E0008260704710B500F1600404EB81031C681E
:1048F00024F0004414431C6010BD426922F00042C1
:104900000A4342617047000000B58BB00020089058
:1049100009900A9020216846FBF7B4FC4FF0A040B4
:10492000204908604FF44030486000211D488160F4
:10493000C160016141610421816100210177012190
:1049400041770162002180F82410C16201630121D6
:1049500080F838100021C16380F84010FCF76CFB30
:1049600008B1FCF757F80020089008A90D48FCF79B
:1049700055F808B1FCF74EF80B480090062001905E
:10498000002002907F2003900420049000200590D6
:1049900069460448FCF7C8F808B1FCF73BF80BB0CF
:1049A00000BD0000B40000200008302E00B589B022
:1049B000202101A8FBF766FC1C481D4908604FF444
:1049C0004030486000211A488160C1600161416146
:1049D00004218161002101770121417701620021D9
:1049E00080F82410C1620163012180F83810002191
:1049F000C16380F84010FCF71FFB08B1FCF70AF810
:104A00000C48019006200290002003907F20049023
:104A1000042005900020069001A90548FCF784F8C1
:104A200008B1FBF7F7FF09B000BD0000000100501E
:104A3000200100200080F03E08B500BF2148806CB6
:104A400040F004001F4988640846806C00F00400B0
:104A5000009000BF00BF00BF0846806C40F001001E
:104A600088640846806C00F00100009000BF00BF21
:104A7000002211460B20FDF7CFF80B20FDF7B8F808
:104A8000002211460C20FDF7C7F80C20FDF7B0F806
:104A9000002211460D20FDF7BFF80D20FDF7A8F804
:104AA000002211460E20FDF7B7F80E20FDF7A0F802
:104AB000002211460F20FDF7AFF80F20FDF798F800
:104AC00008BD00000010024000B587B0142102A804
:104AD000FBF7D8FB00BF5848C06C40F004005649B3
:104AE000C8640846C06C00F00400019000BF00BF1D
:104AF00000BF0846C06C40F02000C8640846C06C87
:104B000000F02000019000BF00BF00BF0846C06C4D
:104B100040F00100C8640846C06C00F0010001903C
:104B200000BF00BF00BF0846C06C40F00200C86470
:104B30000846C06C00F00200019000BF00BF00BF3B
:104B40000846C06C40F00800C8640846C06C00F01D
:104B50000800019000BF00BF01224FF47F41374899
:104B6000FCF7D0FF0022FF213448FCF7CBFF0022E6
:104B70004FF480714FF09040FCF7C4FF00220421F5
:104B80002F48FCF7BFFF00224FF478712D48FCF747
:104B9000B9FF4FF6FF7002900120039000200490AF
:104BA000059002A92548FCF7B9FE012002900020DB
:104BB00003900120049002A94FF09040FCF7AEFE54
:104BC00007200290002003900120049002A91D48B4
:104BD000FCF7A4FE4FF480700290012003900020A7
:104BE0000490059002A94FF09040FCF797FE042036
:104BF00002900120039000200490059002A9104823
:104C0000FCF78CFE4FF448700290012003900020C6
:104C10000490059002A90B48FCF780FEC02002908A
:104C20000120039004900320059002A90548FCF799
:104C300075FE07B000BD00000010024000080048EB
:104C4000000C00480004004800B587B0142102A8F9
:104C5000FBF718FB00200190204821490860002044
:104C600048607D211E488160FF21C16000210161F3
:104C7000416181614FF08041C16100210162FDF716
:104C800001FF08B1FBF7C6FE23208DF8080059206C
:104C90008DF8090055208DF80A000020039005903A
:104CA0000690012202A90E48FDF7E0FF08B1FBF7CC
:104CB000B1FE01208DF804008DF805008DF8060086
:104CC00000208DF80700012201A90548FDF766FFC5
:104CD00008B1FBF79FFE07B000BD000000280040B0
:104CE0004C02002000B595B01C210EA8FBF7CAFAB3
:104CF000342101A8FBF7C6FA2248234908604F2057
:104D0000486000212048816040F2E731C160002105
:104D1000016141618161FEF735F908B1FBF77AFE67
:104D20001948FEF7B9FD08B1FBF774FE60200E903C
:104D30004FF4FA700F900020109011901290139081
:104D4000149000220EA91048FEF7F2FC08B1FBF700
:104D500061FE0020019002900390049005904FF4B2
:104D600000500690002007900D9001A90648FEF71C
:104D700039F808B1FBF74EFE0348FEF789FC15B081
:104D800000BD0000004401400C03002000B595B0B8
:104D90001C210EA8FBF776FA342101A8FBF772FA62
:104DA0002248234908604F20486000212048816044
:104DB00040F2E731C1600021016141618161FEF78C
:104DC000E1F808B1FBF726FE1948FEF765FD08B1CA
:104DD000FBF720FE60200E904FF4FA700F90002039
:104DE0001090119012901390149000220EA9104868
:104DF000FEF79EFC08B1FBF70DFE0020019002902B
:104E00000390049005904FF4005006900020079006
:104E10000D9001A90648FDF7E5FF08B1FBF7FAFD83
:104E20000348FEF735FC15B000BD00000048014006
:104E30005803002000B591B000200D900E900F9007
:104E40001090142108A8FBF71DFA00200590069089
:104E5000079001900290039004904FF08040254904
:104E600008604F2048600021224881604FF6FF71A2
:104E7000C160002101618161FEF784F808B1FBF790
:104E8000C9FD4FF480500D900DA91A48FEF786F920
:104E900008B1FBF7BFFD1748FEF785FA08B1FBF72D
:104EA000B9FD042008905020099000200A900C9031
:104EB00008A91048FEF7CEFD08B1FBF7ABFD0020B6
:104EC0000590079005A90B48FEF700F808B1FBF71D
:104ED000A1FD002001900120029000200390049089
:104EE000002201A90348FEF7F4F908B1FBF792FD8F
:104EF00011B000BD7402002000B591B000200D90EB
:104F00000E900F901090142108A8FBF7BBF9002019
:104F10000590069007900190029003900490264817
:104F2000264908604F2048600021244881604FF6E0
:104F3000FF71C160002101618161FEF723F808B1B2
:104F4000FBF768FD4FF480500D900DA91B48FEF74C
:104F500025F908B1FBF75EFD1848FEF724FA08B101
:104F6000FBF758FD042008905020099000200A907B
:104F70000C9008A91148FEF76DFD08B1FBF74AFD3A
:104F800000200590079005A90C48FDF79FFF08B188
:104F9000FBF740FD002001900120029000200390CB
:104FA0000490002201A90548FEF793F908B1FBF728
:104FB00031FD11B000BD000000040040C00200201F
:104FC00010B51E481E4908604FF416504860002175
:104FD0001B488160C16001610C2141610021816138
:104FE000C161016241620020154988620846FEF7EE
:104FF000CFFF08B1FBF70EFD00211148FEF712FEAE
:1050000008B1FBF707FD00210D48FEF7DCFD08B1F4
:10501000FBF700FD0A48FEF753FD08B1FBF7FAFC69
:10502000802208490648FEF772FD074800680068BC
:1050300020F0040004490968086010BD00380140F0
:1050400064050020E4040020F405002000BFFEE712
:1050500000BFFEE77047000070B5164DED6805F023
:105060000304144DED68C5F303156B1C022C0CD022
:10507000032C09D1104DB5FBF3F50E4EF668C6F3BF
:10508000062605FB06F10AE000BF0C4DB5FBF3F563
:10509000084EF668C6F3062605FB06F100BF00BF02
:1050A000044DED68C5F341656D1C6A00B1FBF2F07B
:1050B00070BD00000010024000366E010024F400B4
:1050C00000B501210020FFF765FB4FF47A70FBF774
:1050D00092FC00210120FFF75DFB41F2907110204E
:1050E000FFF758FB4FF41C516020FFF753FB0121E1
:1050F0006120FFF74FFB02214620FFF74BFB48F2F0
:1051000010011320FFF746FB48F2FE011220FFF7C3
:1051100041FB4FF4A0610220FFF73CFB41F230015C
:105120000320FFF737FB40F203313020FFF732FB5B
:1051300040F203313120FFF72DFB40F203313220E2
:10514000FFF728FB4FF440713320FFF723FB0321C7
:105150003420FFF71FFB40F203313520FFF71AFB25
:1051600014213620FFF716FB40F203313720FFF7FA
:1051700011FB40F203313820FFF70CFB40F2033102
:105180003920FFF707FB4FF440713A20FFF702FB8D
:1051900003213B20FFF7FEFA40F203313C20FFF7EA
:1051A000F9FA4FF4A0513D20FFF7F4FA4FF40071E3
:1051B0009220FFF7EFFA40F203319320FFF7EAFA6B
:1051C00040F60D019020FFF7E5FA41F218010320A7
:1051D000FFF7E0FA40F273110720FFF7DBFA00BD9A
:1051E00010B543F20801E320FFF7D4FA1221E720BB
:1051F000FFF7D0FA41F23121EF20FFF7CBFA00217F
:105200000120FFF7C7FA4FF4E0610220FFF7C2FA6E
:1052100041F230010320FFF7BDFA00210420FFF71F
:10522000B9FA40F207210820FFF7B4FA002109205B
:10523000FFF7B0FA00210A20FFF7ACFA00210C209A
:10524000FFF7A8FA00210D20FFF7A4FA00210F2094
:10525000FFF7A0FA00211020FFF79CFA0721112088
:10526000FFF798FA00211220FFF794FA002113208B
:10527000FFF790FAC820FCF73DFB41F29061102047
:10528000FFF788FA40F227211120FFF783FA322036
:10529000FCF730FB1D211220FFF77CFA3220FCF7CF
:1052A00029FB4FF400611320FFF774FA1421292021
:1052B000FFF770FA0B212B20FFF76CFA3220FCF776
:1052C00019FB00212020FFF765FA00212120FFF7BC
:1052D00061FA07213020FFF75DFA40F207713120B3
:1052E000FFF758FA06213220FFF754FA40F2047112
:1052F0003520FFF74FFA41F604713620FFF74AFADE
:1053000004213720FFF746FA00213820FFF742FA40
:1053100040F206713920FFF73DFA40F201713C205E
:10532000FFF738FA0F213D20FFF734FA0021502013
:10533000FFF730FAEF215120FFF72CFA002152201D
:10534000FFF728FA40F23F115320FFF723FA4FF4FA
:105350001C516020FFF71EFA01216120FFF71AFAA5
:1053600000216A20FFF716FA00218020FFF712FAC9
:1053700000218120FFF70EFA00218220FFF70AFAB0
:1053800000218320FFF706FA00218420FFF702FAAC
:1053900000218520FFF7FEF910219020FFF7FAF990
:1053A00000219220FFF7F6F903219320FFF7F2F98D
:1053B0004FF488719520FFF7EDF900219720FFF752
:1053C000E9F900219820FFF7E5F941F218010320DF
:1053D000FFF7E0F940F273110720FFF7DBF910BD8A
:1053E0000146080900EB8000420001F00F00104464
:1053F000C0B2704702460023114603E05B1CA1F1D6
:105400000A00C1B20A29F9D2180741EA10607047B0
:1054100070B5054600261148006800F04000D0B97C
:105420000E48006840F080000C490860FCF770FBF3
:10543000044609E0FCF76CFB001BB0F57A7F03D94A
:105440000326032085F825000448006800F040008A
:1054500008B9032EEED1304670BD00000C28004084
:1054600070B5044600251748006820F080001549F3
:10547000086014480C30006800F0200040B9204655
:10548000FDF778FCE0B1032084F82500032517E040
:105490000C480C30006820F020000A490C310860EC
:1054A0002046FDF767FC18B1032084F8250003258A
:1054B00004480C30006840F0200002490C310860BC
:1054C000284670BD0C28004030B10849096841F0F9
:1054D0004001064A116007E004491031096841F0B3
:1054E0004001024A10321160704700001804004861
:1054F00010B580210348FCF7FDFA012800D110BD4A
:105500000020FCE70004004800B585B0142168467F
:10551000FAF7B8FE80200090002001900120029050
:105520000220039069460248FCF7F8F905B000BD77
:105530000004004830B10849096841F08001064A7A
:10554000116007E004491031096841F08001024A06
:1055500010321160704700001804004800B585B093
:1055600014216846FAF78EFE8020009011200190E9
:10557000002002900220039069460248FCF7CEF911
:1055800005B000BD00040048704710B5FCF7C6FA2E
:1055900010BD00B593B0382105A8FAF773FE1421A9
:1055A0006846FAF76FFE4FF40070FCF787FB0120A6
:1055B00005900004069002200C9003210D910E919D
:1055C00014210F91022110911191129105A8FCF75D
:1055D0004BFF08B1FBF71EFA0F200090032001904B
:1055E000002002900390049002216846FCF7B4FD6D
:1055F00008B1FBF70FFA13B000BD000003480068C4
:1056000040F47000014908607047000088ED00E038
:1056100010B50268264B98420BD0B0F1804F08D0ED
:10562000244B984205D0244B984202D0234B9842F9
:1056300003D122F070024B681A431D4B984214D0DC
:10564000B0F1804F11D01B4B98420ED01A4B9842AC
:105650000BD01A4B984208D0194B984205D0194BE1
:10566000984202D0184B984203D122F44072CB6882
:105670001A4322F080034C6943EA040202608B68FB
:10568000C3620B6883620A4B98420BD00B4B984263
:1056900008D00B4B984205D00A4B984202D00A4BD7
:1056A000984201D10B6903630123436110BD0000DF
:1056B000002C01400004004000080040003401407C
:1056C00000400140004401400048014030B501F075
:1056D0001F05012404FA05F3046A9C430462046A6A
:1056E00001F01F0502FA05F52C43046230BD70B5C8
:1056F0000546AC6A606AA8420AD101202077E869B1
:1057000000282BD1012084F83E0084F8440025E0D5
:10571000A06AA84209D102202077E869F0B90121E6
:105720003F2001554520015518E0E06AA84209D103
:1057300004202077E86988B90121402001554620DE
:1057400001550BE0206BA84208D108202077E869BA
:1057500020B9012141200155472001552046FDF780
:10576000B6FD0020207770BD70B50546AC6A606A52
:10577000A84202D10120207710E0A06AA84202D1FD
:10578000022020770AE0E06AA84202D104202077B4
:1057900004E0206BA84201D1082020772046FDF7C5
:1057A00097FD0020207770BD70B50546AC6A606A31
:1057B000A84204D10120207784F83E001DE0A06AB1
:1057C000A84205D10220207701213F20015514E095
:1057D000E06AA84205D1042020770121402001552C
:1057E0000BE0206BA84205D1082020770121412041
:1057F000015502E0012084F83D002046FDF766FDDA
:105800000020207770BD30B50C46816821F47F41BF
:1058100042EA032525432943816030BD0A46816859
:10582000034B194042F007031943816070470000A1
:105830008FFFCFFF30B5056A25F001050562026ACA
:1058400043688469204D2C4024F003040D682C43E8
:1058500022F002028D682A431C4DA84200D10FE0BD
:105860001B4DA84200D10BE01A4DA84200D107E021
:10587000194DA84200D103E0184DA84206D100BF3F
:1058800022F00802CD682A4322F004020F4DA842FC
:105890000BD00F4DA84208D00E4DA84205D00E4D9A
:1058A000A84202D00D4DA84207D123F4807323F4FF
:1058B00000734D692B438D692B43436084614D68B0
:1058C0004563026230BD00008FFFFEFF002C0140E7
:1058D00000340140004001400044014000480140C4
:1058E00030B5056A25F010050562026A43688469CF
:1058F000224D2C4024F440740D6844EA052422F023
:1059000020028D6842EA05121D4DA84200D10FE029
:105910001C4DA84200D10BE01B4DA84200D100BF96
:105920001A4DA84200D100BF194DA84207D106E088
:1059300022F08002CD6842EA051222F04002104DAA
:10594000A8420BD00F4DA84208D00F4DA84205D059
:105950000E4DA84202D00E4DA84209D123F4806317
:1059600023F400634D6943EA85038D6943EA8503A7
:10597000436084614D688563026230BDFF8FFFFE26
:10598000002C01400034014000400140004401402F
:105990000048014030B5056A25F480750562026A49
:1059A0004368C469224D2C4024F003040D682C4345
:1059B00022F400728D6842EA05221E4DA84200D1F1
:1059C0000FE01D4DA84200D10BE01C4DA84200D1B4
:1059D00000BF1B4DA84200D100BF1A4DA84207D1FD
:1059E00006E022F40062CD6842EA052222F48062D9
:1059F000104DA8420BD0104DA84208D00F4DA84220
:105A000005D00F4DA84202D00E4DA84209D123F473
:105A1000805323F400534D6943EA05138D6943EA2B
:105A200005134360C4614D68C563026230BD000068
:105A30008FFFFEFF002C0140003401400040014078
:105A4000004401400048014030B5056A25F4805506
:105A50000562026A4368C469224D2C4024F44074F4
:105A60000D6844EA052422F400528D6842EA0532AA
:105A70001D4DA84200D10FE01C4DA84200D10BE003
:105A80001B4DA84200D100BF1A4DA84200D100BF53
:105A9000194DA84207D106E022F40042CD6842EA3F
:105AA000053222F48042104DA8420BD00F4DA8427F
:105AB00008D00F4DA84205D00E4DA84202D00E4D81
:105AC000A84209D123F4804323F400434D6943EAFB
:105AD00085138D6943EA85134360C4614D6805648D
