:020000040800F2
:1000000050040020F1010008C91A0008B1140008CA
:10001000C51A000879070008E11E0008000000006A
:10002000000000000000000000000000591E000851
:100030007D07000800000000CD1A00085B1E0008C4
:100040000B0200080B0200080B0200080B0200085C
:100050000B0200080B0200080B0200080B0200084C
:100060000B0200080B0200080B0200080B0200083C
:100070000B0200080B0200080B0200080B0200082C
:100080000B020008000000000B0200080B02000831
:100090000B0200080B0200080B0200080B0200080C
:1000A0000B0200080B0200080B0200080B020008FC
:1000B0000B0200080B0200080B0200080B020008EC
:1000C0000B0200080B0200080B0200080B020008DC
:1000D0000B0200080B0200080B0200080B020008CC
:1000E0000B0200080B0200080B0200080B020008BC
:1000F0000B0200080B0200080B02000800000000C1
:10010000000000000B020008000000000B020008C5
:100110000B020008000000000B0200080B020008A0
:100120000B0200080B0200080B0200080B0200087B
:100130000B02000800000000000000000B02000895
:100140000B0200080B020008000000000000000085
:10015000000000000000000000000000000000009F
:100160000000000000000000000000000B0200087A
:100170000B0200080000000000000000000000006A
:10018000000000000B02000800000000000000005A
:10019000000000000000000000000000000000005F
:1001A00000000000000000000B0200080B02000825
:1001B0000B0200080B0200080B0200080000000000
:1001C000000000000B02000800000000000000001A
:1001D0000B0200080B020008DFF810D000F02CFA28
:1001E00000480047F9290008AFF3008050040020C0
:1001F0000648804706480047FEE7FEE7FEE7FEE7C1
:10020000FEE7FEE7FEE7FEE7FEE7FEE7CD1E00089D
:10021000D9010008D2B201E000F8012B491EFBD23F
:1002200070470022F6E710B513460A460446194601
:10023000FFF7F0FF204610BD30B50B460146002009
:100240002022012409E021FA02F59D4205D303FA98
:1002500002F5491B04FA02F52844151EA2F1010219
:10026000F1DC30BD2DE9F05F0546002092469B464B
:1002700088460646814640241BE0284641464746BC
:10028000224600F0FAF953465A46C01A914110D35B
:1002900011461846224600F0E1F92D1A67EB0108D5
:1002A0004F4622460120002100F0D8F917EB000943
:1002B0004E41201EA4F10104DFDC484631462A46A7
:1002C0004346BDE8F09F2DE9FE4F804681EA0300DA
:1002D000C00F0C46009021F0004123F00045B8EB20
:1002E0000200A94105D24046214690461C460B46D5
:1002F000024623F00040104347D0270DC7F30A0001
:10030000C3F30A510290401A019040286BDAC3F3FC
:10031000130040F4801B0098924620B10023D2EBDA
:10032000030A63EB0B0B01985946C0F1400250469B
:1003300000F094F906460D4650465946019A00F0E1
:10034000ACF910EB08006141002487EA115284EAFD
:10035000E7731A4340D0009A62B3019A012A4FEA28
:10036000075215DC001B61EB02014FF0004202EA6C
:100370000752CDE90042001C41F5801132462B4660
:1003800000F0ACF903B0BDE8F08F40462146F9E734
:10039000001B61EB0201001C41F5801300185B415A
:1003A0002018A2F5001747EB030140EAD570B619F3
:1003B0006D4111E06D084FEA360645EAC0754FEA17
:1003C0000752001B61EB0201001C41F58011490836
:1003D0004FEA30000019514132462B4603B0BDE8C8
:1003E000F04F00F06CB90098012240000023D0EBE0
:1003F000020263EBE073009821464FEAE074B8EB29
:10040000000061EB0401E9E783F000435BE781F062
:10041000004158E72DE9FE4F81EA030404F000444F
:1004200021F0004100944FF0000B23F0004350EA0C
:1004300001045ED052EA03045BD0C3F30A54C1F353
:100440000A552C44A4F2F3340194A0FB0254C1F3E6
:10045000130141F48011C3F3130343F4801301FB30
:10046000024400FB034E840A970A44EA815447EA97
:100470008357A4FB076802958D0A05FB07854FEAA1
:10048000932C04FB0C542705029D4FEA065847EABB
:100490001637B5EB08056EEB070C870E920E47EA90
:1004A000811742EA8312A7FB0201B6EB0B0164EB52
:1004B00000042B0D43EA0C335E1844EB1C50DA4663
:1004C0005146E7FB0201C5F313044FEA0B3343EA3D
:1004D00014534FEA0432019C43EA0603A4F10C04CE
:1004E0000294009CCDE900B400F0F8F803B0BDE838
:1004F000F08F00200146F9E72DE9F04D81EA030471
:1005000004F0004B21F0004514464FF0000A23F0A0
:10051000004150EA050220D054EA01021DD0C5F383
:100520000A570246C5F31303C1F31300C1F30A5679
:1005300040F4801543F48013A7EB0608101BD64641
:1005400008F2FD3873EB050002D308F1010801E061
:1005500092185B41B8F1000F03DA00200146BDE8B4
:10056000F08D00204FF48011064684460EE0171BE4
:1005700073EB050705D3121B63EB050306434CEA37
:10058000010C49084FEA300092185B4150EA01071C
:10059000EDD152EA030012D082EA040083EA050199
:1005A000084305D0101BAB4106D20122002306E010
:1005B00000224FF0004302E06FF0010253101AEBEB
:1005C00006004CEB085110EB0A0041EB0B01BDE8B3
:1005D000F04D00F074B8C1F30A52C1F3130140F2B8
:1005E000FF3341F480119A4202DA0020014670473D
:1005F00040F233439A42A2F2334202DC524200F00C
:100600003CB800F02BB8000030B5041E71F10004B6
:1006100004DB4FF00044404264EB0101141E73F10F
:10062000000405DB1C464FF00043524263EB040319
:10063000994208BF904230BD064C074D06E0E06885
:1006400040F0010394E8070098471034AC42F6D319
:10065000FFF7C6FD783C0008983C0008202A04DB20
:10066000203A00FA02F1002070479140C2F12003C5
:1006700020FA03F3194390407047202A04DB203A04
:1006800021FA02F00021704721FA02F3D040C2F1B2
:1006900020029140084319467047202A06DBCB17F9
:1006A000203A41FA02F043EAE07306E041FA02F32D
:1006B000D040C2F12002914008431946704710B55E
:1006C000141E73F1000408DA401C41F10001921875
:1006D0005B411A4301D120F0010010BD2DE9F04D1E
:1006E00092469B4611B1B1FA81F202E0B0FA80F273
:1006F00020329046FFF7B2FF04460F4640EA0A0058
:1007000041EA0B0153465A46084313D0114653EAB7
:10071000010019D0C8F140025046FFF7AEFF054670
:100720000E46504659464246FFF798FF084305D00B
:10073000012004E020463946BDE8F08D0020054345
:1007400046EAE0762C4337430A986305E40AA0EBB7
:1007500008000022FD0A44EA47540A3002D500206E
:100760000146E9E7010510196941DDE9084500196D
:100770006941BDE8F04DA2E700BFFEE770470021E8
:1007800009E0002201E0531C9AB240F6B8339A42C5
:10079000F9DB4B1C99B28142F3DB704772B600BFA4
:1007A000FEE7000070B5044600F004F90646254651
:1007B000681C10B104480068054400BF00F0FAF856
:1007C000801BA842FAD370BD0800002078B502460D
:1007D0000B460021CAE001268E401D6805EA06048A
:1007E000002C73D01D7905F00305012D04D01D796F
:1007F00005F00305022D13D190684E000325B54086
:10080000A8434E00DD68B54028439060506801253C
:100810008D40A8431D79C5F300158D4028435060D5
:100820001D7905F00305032D09D0D0684E0003257E
:10083000B540A8434E009D68B5402843D0601D795F
:1008400005F00305022D13D1CE0802F1200555F85D
:1008500026004D07EE0E0F25B540A8434E07F60EB5
:100860001D69B5402843CE0802F1200545F8260051
:1008700010684E000325B540A8431D7905F0030517
:100880004E00B540284310605D6805F44035002DEA
:100890006BD000BF384D2D6E45F00105364E3566E4
:1008A00035462D6E05F00105009500BF00BF4FEAEB
:1008B000B6358E0855F826008D072E0F0F25B5404A
:1008C000A843B2F1904F02D100251AE04DE02B4D24
:1008D000AA4201D1012514E0294DAA4201D10225E5
:1008E0000FE0284DAA4201D103250AE0264DAA4275
:1008F00001D1042505E0254DAA4201D1052500E0DE
:1009000006258E07360FB5402843214D8E0845F841
:100910002600204D2868A0435D6805F4801505B1C8
:1009200020431C4D28602D1D2868A0435D6805F4F8
:10093000001505B12043174D2D1D2860154D2D1FA5
:100940002868A0435D6805F4003505B12043114DCA
:100950002D1F28602D1F2868A0435D6805F4803591
:1009600005B120430B4D083D2860491C1D68CD4052
:10097000002D7FF430AF78BD001002400004004825
:1009800000080048000C004800100048001400480F
:100990000800014008040140024613690B400BB1F6
:1009A000012000E0002070470AB1816100E081620F
:1009B00070470000014800687047000000000020F8
:1009C0000348006803490968084401490860704702
:1009D000000000200800002010B50024032000F0D3
:1009E00097F8002000F008F808B1012401E000F0B9
:1009F0002FF8204610BD000070B5044600251148B0
:100A00000068D8B10F4800684FF47A71B1FBF0F07C
:100A10000D490968B1FBF0F6304600F02FFD58B9DA
:100A2000102C07D200222146501E00F033F8074850
:100A3000046004E0012502E0012500E001252846CC
:100A400070BD0000080000200C0000200400002001
:100A500008B500BF0E48006E40F001000C49086662
:100A60000846006E00F00100009000BF00BF00BF0C
:100A70000846806D40F0805088650846806D00F023
:100A80008050009000BF00BF00F0E2F808BD0000F9
:100A9000001002402DE9F05F80460D46164601F039
:100AA00033FA074639462A46334601F00700C0F1BB
:100AB000070ABAF1040F02D94FF0040A01E0C0F1AD
:100AC000070AD14600F1040ABAF1070F02D24FF02B
:100AD000000A01E0A0F1030AD4464FF0010A0AFA25
:100AE00009FAAAF1010A0AEA020A0AFA0CFA4FF014
:100AF000010B0BFA0CFBABF1010B0BEA030B4AEAFF
:100B00000B042146404601F007FABDE8F09F0000C3
:100B100000BF00F00702064B19684FF6FF031940AB
:100B2000044B0B4343EA0221014B196000BF70479D
:100B30000CED00E00000FA0502468ABB414800685F
:100B400000F4C060B0F5806F2BD13E488030006863
:100B500020F480703B4BC3F880001846006820F4F6
:100B6000C06040F400701860374800683223584372
:100B7000364BB0FBF3F0411C00E0491E31484069A0
:100B800000F48060B0F5806F01D10029F5D12D48C7
:100B9000406900F48060B0F5806F51D10320704748
:100BA00008E028488030006820F48070254BC3F8A6
:100BB000800045E0B2F5007F3AD12248006800F499
:100BC000C060B0F5806F2AD11E488030006840F4C4
:100BD00080701C4BC3F880001846006820F4C06089
:100BE00040F4007018601848006832235843174BCF
:100BF000B0FBF3F0411C00E0491E1248406900F4CC
:100C00008060B0F5806F01D10029F5D10D484069B1
:100C100000F48060B0F5806F12D10320BFE709486F
:100C20008030006840F48070064BC3F8800007E015
:100C30000448006820F4C06040F48060014B1860F4
:100C40000020ACE7007000400C00002040420F0084
:100C50000348806840F48040014988607047000084
:100C6000007000402DE9F04104460D464FF00008A9
:100C700014B90120BDE8F0817D48006800F00F0044
:100C8000A8420ED27A48006820F00F002843784925
:100C900008600846006800F00F00A84201D001205B
:100CA000E8E7207800F00100002864D0606803289D
:100CB00023D17048006800F0007008B90120D9E71E
:100CC00000F006FF06466C48864237D969488068BE
:100CD00000F0F00030B1207800F0020002282DD1A1
:100CE000A06858BB6348806820F0F00040F08000A6
:100CF000604988604FF0800820E06068022806D1D3
:100D00005C48006800F4003040B90120B2E759485F
:100D1000006800F4806008B90120ABE700F0B4F887
:100D200006465548864209D95248806820F0F000AE
:100D300040F080004F4988604FF080084D4880683F
:100D400020F00300616808434A498860FFF732FEDB
:100D5000074608E0FFF72EFEC01B41F288318842AB
:100D600001D9032086E74348806800F00C006168E1
:100D7000B0EB810FEED1207800F00200022820D1E4
:100D8000207800F00400042805D13A48806840F437
:100D9000E06038498860207800F00800082807D112
:100DA0003448806820F4605040F4E0603149886045
:100DB0003048806820F0F000A16808432D49886021
:100DC00008E0B8F1800F05D12A48806820F0F000D3
:100DD000284988602648006800F00F00A84219D909
:100DE0002348006820F00F00284321490860FFF7DE
:100DF000E1FD074608E0FFF7DDFDC01B41F2883149
:100E0000884201D9032035E71948006800F00F0037
:100E1000A842F0D1207800F00400042807D115483A
:100E2000806820F4E060E168084312498860207817
:100E300000F00800082808D10E48806820F46050AF
:100E4000216940EAC1000B49886000F01DF809499A
:100E50008968C1F30311094A515C01F01F01C840C0
:100E60000749086007480068FFF7C6FD02E7000071
:100E7000002002400010024000B4C404902A000880
:100E80000C0000200400002070B5224DAD6805F074
:100E90000C05042D01D120483AE01E4DAD6805F047
:100EA0000C05082D01D11D4832E01A4DAD6805F042
:100EB0000C050C2D2BD1174DED6805F00304154DD5
:100EC000ED68C5F303156A1C022C0CD0032C09D164
:100ED000124DB5FBF2F50F4EF668C6F3062605FB7C
:100EE00006F10AE000BF0C4DB5FBF2F5094EF668BD
:100EF000C6F3062605FB06F100BF00BF054DED68F1
:100F0000C5F341656D1C6B00B1FBF3F000E0002000
:100F100070BD0000001002400024F40000366E0195
:100F20002DE9F843044614B90120BDE8F883207880
:100F300000F00100002865D0FC48806800F00C0734
:100F4000FA48C06800F003060C2F01D1032E01D02F
:100F5000082F0AD1F548006800F40030002851D06D
:100F6000606800284ED10120DFE700BF6068B0F55F
:100F7000803F06D1ED48006840F48030EB490860BE
:100F80001AE06068B0F5A02F0BD1E848006840F483
:100F90008020E64908600846006840F48030086018
:100FA0000AE0E248006820F48030E0490860084622
:100FB000006820F48020086000BF606888B1FFF7F7
:100FC000F9FC054606E0FFF7F5FC401B642801D953
:100FD0000320AAE7D548006800F400300028F2D0CA
:100FE00010E0FFF7E7FC054606E0FFF7E3FC401BD7
:100FF000642801D9032098E7CC48006800F4003049
:101000000028F2D1207800F00200022860D1C74801
:10101000806800F00C07C548C06800F003060C2F7C
:1010200001D1022E01D0042F18D1C048006800F46D
:10103000806018B1E06808B9012076E7BB484068D5
:1010400020F0FE40217C40EA0160B8494860B84881
:101050000068FFF7D1FC18B3012066E7E06800B331
:10106000B248006840F48070B0490860FFF7A2FC05
:10107000054606E0FFF79EFC401B022801D903202D
:1010800053E7AA48006800F480600028F2D0A7481F
:10109000406820F0FE40217C40EA0160A34948609E
:1010A00016E0A248006820F48070A0490860FFF7AD
:1010B00081FC054606E0FFF77DFC401B022801D9B4
:1010C000032032E79948006800F480600028F2D1DC
:1010D000207800F00800082836D16069D0B1934824
:1010E0009430006840F001009049C1F89400FFF787
:1010F00061FC054606E0FFF75DFC401B022801D9B4
:10110000032012E789489430006800F002000028AC
:10111000F1D019E085489430006820F0010083493F
:10112000C1F89400FFF746FC054606E0FFF742FCD5
:10113000401B022801D90320F7E67C489430006860
:1011400000F002000028F1D1207800F0040004280B
:1011500072D14FF000087548806D012121EA1070AE
:1011600078B100BF7148806D40F080506F4988654C
:101170000846806D00F08050009000BF00BF4FF027
:1011800001086C48006800F48070B0B969480068D4
:1011900040F4807067490860FFF70CFC054606E0E4
:1011A000FFF708FC401B022801D90320BDE6614877
:1011B000006800F480700028F2D000BFA068012809
:1011C00008D15A489030006840F001005749C1F8F2
:1011D000900021E0A06805280FD1544890300068A5
:1011E00040F004005149C1F890000846D0F8900042
:1011F00040F00100C1F890000EE04C4890300068CB
:1012000020F001004949C1F890000846D0F890004C
:1012100020F00400C1F8900000BFA068A8B1FFF75B
:10122000C9FB054609E0FFF7C5FB401B41F28831C9
:10123000884202D9032078E625E03C4890300068D7
:1012400000F002000028EED013E0FFF7B3FB0546E4
:1012500008E0FFF7AFFB401B41F28831884201D91B
:10126000032062E631489030006800F00200002858
:10127000EFD1B8F1010F05D12C48806D20F08050DE
:101280002A49886500BF207800F02000202836D148
:10129000A069D0B125489830006840F0010023498A
:1012A000C1F89800FFF786FB054606E0FFF782FBD2
:1012B000401B022801D9032037E61C4898300068FB
:1012C00000F002000028F1D019E0184898300068BA
:1012D00020F001001549C1F89800FFF76BFB0546A7
:1012E00006E0FFF767FB401B022801D903201CE63C
:1012F0000E489830006800F002000028F1D1E06943
:10130000002860D00948806800F00C000C287AD0D2
:10131000E069022858D10548006820F08070034930
:101320000860FFF747FB05460DE000000010024093
:101330000400002000700040FFF73CFB401B022827
:1013400001D90320F1E54A48006800F00070002848
:10135000F2D1D4E90810401E41EA0011A06A41EA26
:101360000021208E0122C2EB500041EA405134207E
:10137000005DC2EB500041EA40612C20005D41EA73
:10138000C0603B49C9683B4A114008433849C860BE
:101390000846006840F0807008600846C06840F069
:1013A0008070C860FFF706FB054606E0FFF702FB0A
:1013B000401B022801D90320B7E52D48006800F042
:1013C00000700028F2D051E02948006820F08070B9
:1013D00027490860FFF7EEFA054606E0FFF7EAFA4C
:1013E000401B022801D903209FE52148006800F036
:1013F00000700028F2D11E48C0681F4908401C49EF
:10140000C86033E0FFE7E069012800D18DE51848A6
:10141000C66806F00301206A814225D106F0F0017A
:10142000606A401EB1EB001F1ED106F4FE41A06AA7
:10143000B1EB002F18D106F078412C20005DB1EB04
:10144000C06F11D106F4C001208E0122C2EB500002
:10145000B1EB405F08D106F0C0613420005DC2EB03
:101460005000B1EB406F01D001205EE500205CE54B
:10147000001002400C809F01FCFFEEFE70B5044698
:101480002546681EB0F1807F01D301200FE0681E61
:101490004FF0E02148610F214FF0FF3000F03CFD9C
:1014A00000204FF0E021886107200861002070BD16
:1014B00000BFFEE700B585B014216846FEF7B1FE17
:1014C0004FF6FF7000900020019003200390002051
:1014D000029069460248FFF779F905B000BD0000A7
:1014E0000008004800B585B014216846FEF799FE53
:1014F0004FF6FF7000900120019003200390002020
:10150000029069460248FFF761F905B000BD00008E
:101510000008004830B5054600240021084600F0C8
:1015200049F900F097F900BF03E0284600F056F9AA
:10153000641CB4F5963FF8D330BD000000B587B009
:10154000142102A8FEF76DFE00BF2B48C06C40F0CE
:1015500004002949C8640846C06C00F004000190EA
:1015600000BF00BF00BF0846C06C40F00100C86467
:101570000846C06C00F00100019000BF00BF00BF32
:101580000846C06C40F00200C8640846C06C00F019
:101590000200019000BF00BF4FF44870029001208C
:1015A0000390032005900020049002A91348FFF740
:1015B0000DF94FF4807002900120039003200590F4
:1015C0000020049002A94FF09040FFF7FFF8FFF7CA
:1015D00089FF4FF09040806940F480704FF0904157
:1015E000886106481830006840F4087003491831D3
:1015F000086007B000BD0000001002400004004871
:1016000070B505460E461446A4F12000C4B204EBA2
:101610004400044901EB00123146284600F01AF854
:1016200070BD0000A82A0008F0B507460C4600254A
:1016300040F23F1609E0227831463846FFF7E0FFD6
:10164000A6F1100086B2641C6D1C207808B1142D20
:10165000F1D3F0BD2DE9F043064689461746002434
:101660000025A046B0464946404600F0A3F800BF1A
:101670001EE000F0EFF800250FE037F8140001211C
:10168000A940084020B90C48008800F0A7F803E002
:101690000A48008800F0A2F86D1C102DEDD308F167
:1016A000010000F0FF084946404600F083F8641C42
:1016B000182CDED3BDE8F083440000204200002057
:1016C00010B5FFF73BFF002000F016F8094908802D
:1016D0000846008848F23021884202D100F02CFAF6
:1016E00001E000F0B9FA002000F006F80149088096
:1016F00010BD00004600002070B504462748006871
:1017000040F40070254908600846006840F4807085
:10171000086022481038006840F020001F49103946
:1017200008601F4804601D48006840F020001B4905
:10173000086000BF00BF00BF18481038006840F0C4
:1017400020001649103908600846006840F480708F
:101750000860FFF7AFFE4FF09040806A40F4807061
:101760004FF09041886200BF00BF00BF0C48001FCF
:10177000006885B24FF09040806940F480704FF06F
:1017800090418861FFF7AEFE04481038006840F4CD
:101790000070024910390860284670BD28040048CE
:1017A0001408004801B5BDF800000149088008BDD3
:1017B0004400002030B504460D462146202000F0AC
:1017C00085F82946212000F081F830BD01B5BDF82B
:1017D00000000149088008BD420000201B4909683B
:1017E00041F40071194A116018491039096841F42F
:1017F0008071164A103A11601146096841F02001C3
:101800001160134908601149096841F020010F4A2D
:10181000116000BF00BF00BF0C491039096841F0DA
:1018200020010A4A103A11601146096841F480719A
:10183000116000BF00BF00BF04491039096841F4BE
:101840000071024A103A11607047000028040048F5
:10185000140800481B48006840F4007019490860EB
:101860000846006840F48070086016481038006828
:1018700040F0200013491039086022201249086006
:101880001048006840F020000E49086000BF00BF0B
:1018900000BF0C481038006840F02000094910399A
:1018A00008600846006840F48070086000BF00BF10
:1018B00000BF04481038006840F400700149103936
:1018C000086070472804004814080048214A12683C
:1018D00042F400721F4B1A601A46126842F480727A
:1018E0001A601C4A103A126842F02002194B103B51
:1018F0001A60194A1060174A126842F02002154B0C
:101900001A6000BF00BF00BF124A103A126842F0CE
:101910002002104B103B1A601A46126842F4807283
:101920001A600D4A11600B4A126842F02002094BFE
:101930001A6000BF00BF00BF064A103A126842F0AA
:101940002002044B103B1A601A46126842F480725F
:101950001A607047280400481408004800B587B092
:10196000142102A8FEF75DFC00BF5248C06C40F095
:1019700004005049C8640846C06C00F0040001909F
:1019800000BF00BF00BF0846C06C40F02000C86424
:101990000846C06C00F02000019000BF00BF00BFEF
:1019A0000846C06C40F00100C8640846C06C00F0F6
:1019B0000100019000BF00BF00BF0846C06C40F0AE
:1019C0000200C8640846C06C00F00200019000BF2D
:1019D00000BF00BF0846C06C40F00800C86408465D
:1019E000C06C00F00800019000BF00BF01224FF45E
:1019F0007F413148FEF7D8FF0022FF212E48FEF735
:101A0000D3FF00224FF480714FF09040FEF7CCFFDF
:101A1000002204212948FEF7C7FF00224FF4487135
:101A20002748FEF7C1FF4FF6FF7002900120039098
:101A300000200490059002A91F48FEF7C7FE012070
:101A40000290002003900120049002A94FF09040E2
:101A5000FEF7BCFE072002900020039001200490B6
:101A600002A91748FEF7B2FE4FF4807002900120E1
:101A7000039000200490059002A94FF09040FEF7DB
:101A8000A5FE042002900120039000200490059000
:101A900002A90A48FEF79AFE4FF44870029001200E
:101AA000039000200490059002A90548FEF78EFEE1
:101AB00007B000BD0010024000080048000C0048BC
:101AC0000004004800BFFEE700BFFEE770470000CB
:101AD00070B5164DED6805F00304144DED68C5F3BF
:101AE00003156B1C022C0CD0032C09D1104DB5FB37
:101AF000F3F50E4EF668C6F3062605FB06F10AE07E
:101B000000BF0C4DB5FBF3F5084EF668C6F306268C
:101B100005FB06F100BF00BF044DED68C5F341654C
:101B20006D1C6A00B1FBF2F070BD000000100240B5
:101B300000366E010024F40000B501210020FFF7FB
:101B4000C5FE4FF47A70FEF71AFE00210120FFF760
:101B5000BDFE41F290711020FFF7B8FE4FF41C510A
:101B60006020FFF7B3FE01216120FFF7AFFE0221E5
:101B70004620FFF7ABFE48F210011320FFF7A6FE48
:101B800048F2FE011220FFF7A1FE4FF4A0610220EF
:101B9000FFF79CFE41F230010320FFF797FE40F271
:101BA00003313020FFF792FE40F203313120FFF77E
:101BB0008DFE40F203313220FFF788FE4FF4407172
:101BC0003320FFF783FE03213420FFF77FFE40F22E
:101BD00003313520FFF77AFE14213620FFF776FE19
:101BE00040F203313720FFF771FE40F20331382015
:101BF000FFF76CFE40F203313920FFF767FE4FF428
:101C000040713A20FFF762FE03213B20FFF75EFEA2
:101C100040F203313C20FFF759FE4FF4A0513D2024
:101C2000FFF754FE4FF400719220FFF74FFE40F291
:101C300003319320FFF74AFE40F60D019020FFF795
:101C400045FE41F218010320FFF740FE40F27311F8
:101C50000720FFF73BFE00BD10B543F20801E3206B
:101C6000FFF734FE1221E720FFF730FE41F2312169
:101C7000EF20FFF72BFE00210120FFF727FE4FF496
:101C8000E0610220FFF722FE41F230010320FFF75E
:101C90001DFE00210420FFF719FE40F20721082055
:101CA000FFF714FE00210920FFF710FE00210A2093
:101CB000FFF70CFE00210C20FFF708FE00210D208D
:101CC000FFF704FE00210F20FFF700FE0021102087
:101CD000FFF7FCFD07211120FFF7F8FD002112207E
:101CE000FFF7F4FD00211320FFF7F0FDC820FEF7F9
:101CF00059FD41F290611020FFF7E8FD40F22721E5
:101D00001120FFF7E3FD3220FEF74CFD1D211220CC
:101D1000FFF7DCFD3220FEF745FD4FF40061132094
:101D2000FFF7D4FD14212920FFF7D0FD0B212B2034
:101D3000FFF7CCFD3220FEF735FD00212020FFF714
:101D4000C5FD00212120FFF7C1FD07213020FFF74D
:101D5000BDFD40F207713120FFF7B8FD06213220AA
:101D6000FFF7B4FD40F204713520FFF7AFFD41F6F7
:101D700004713620FFF7AAFD04213720FFF7A6FDE6
:101D800000213820FFF7A2FD40F206713920FFF74D
:101D90009DFD40F201713C20FFF798FD0F213D2091
:101DA000FFF794FD00215020FFF790FDEF21512017
:101DB000FFF78CFD00215220FFF788FD40F23F1114
:101DC0005320FFF783FD4FF41C516020FFF77EFD89
:101DD00001216120FFF77AFD00216A20FFF776FDDF
:101DE00000218020FFF772FD00218120FFF76EFDAA
:101DF00000218220FFF76AFD00218320FFF766FDA6
:101E000000218420FFF762FD00218520FFF75EFDA1
:101E100010219020FFF75AFD00219220FFF756FD78
:101E200003219320FFF752FD4FF488719520FFF7AF
:101E30004DFD00219720FFF749FD00219820FFF775
:101E400045FD41F218010320FFF740FD40F27311F8
:101E50000720FFF73BFD10BD704710B5FEF7B0FD42
:101E600010BD00B593B0382105A8FEF7DAF91421AA
:101E70006846FEF7D6F94FF40070FEF75DFE0120CC
:101E800005900004069002200C9003210D910E9104
:101E900014210F91022110911191129105A8FFF7C1
:101EA0003FF808B1FEF77AFC0F2000900320019064
:101EB000002002900390049002216846FEF7D2FEB3
:101EC00008B1FEF76BFC13B000BD000003480068CA
:101ED00040F47000014908607047000088ED00E0A0
:101EE00000BFFEE737B514460846064B6A46214652
:101EF00000F0F8F804466946002000F076FC204621
:101F00003EBD0000EB27000802480068C0F3022035
:101F1000704700000CED00E010B5002804DB0A0754
:101F2000130E054A135406E00A07140E034A00F084
:101F30000F031B1FD45410BD00E400E018ED00E0B7
:101F400002E008C8121F08C1002AFAD17047704782
:101F5000002001E001C1121F002AFBD170470000E0
:101F60002DE9FF5F82B00021DDE90430020DDDF8CC
:101F700040B0034318D044F61050A2F2FF3242435F
:101F80001514119801281FD0A5EB0B00401C5FEA27
:101F9000000A4FF000064E4FDFF83891B046504629
:101FA00015D5CAF1000413E0119801244AA30128B1
:101FB00001D16FEA0B010298119AC0E90031C0E922
:101FC000024206B0BDE8F09FCBF10000DFE7044617
:101FD0000021404A491842EB0450CDE9001012E0BC
:101FE000E00707D032463B4640464946FEF712FA24
:101FF0008046894632463B4610461946FEF70AFAA5
:1020000006460F466410002CEAD1DDE90401DDE943
:102010000023BAF1000F06DAFEF7FCF942464B4600
:10202000FEF7F8F905E0FEF767FA42464B46FEF781
:1020300063FA04460E460022284BFEF7E5FA03D861
:102040004FF0FF30014607E00022254B2046314685
:10205000FEF739F9FEF7BFFA102409E0002C0ADB7D
:102060000A220023FEF7FEF8039B30321A55641E45
:1020700050EA0102F2D1641C039AC4F11103144422
:10208000119A012A03D0012208430DD10AE0084326
:1020900004D000204FF0110B119072E7A3EB0B0559
:1020A0006D1E0DE05B4504DD4FF0000205F10105FA
:1020B00004E003DA4FF00002A5F10105002AECD09C
:1020C00002981199C0E90231C0E9004579E70000A2
:1020D000000014400000F03F300000000000F0431A
:1020E0000000E03F2DE9FF4F95B09A46884606462E
:1020F0000025EEE1252877D100242746F94A012161
:10210000039400E0044316F8013F203B01FA03F07A
:102110001042F7D130782A2811D06FF02F03307891
:10212000A0F13002092A16D8039A44F0020402EB07
:10213000820203EB42021044761C0390EFE758F84A
:10214000042B0392002A03DA504244F40054039013
:1021500044F00204761C30782E2816D116F8010FB0
:1021600044F004042A280DD06FF02F023078A0F13B
:102170003003092B09D807EB870302EB4303C71889
:10218000761CF3E758F8047B761C30786C280FD067
:1021900006DC4C2817D068280DD06A2814D104E03A
:1021A000742810D07A280FD10DE044F400140AE00E
:1021B00044F4801401E044F440147278824202D165
:1021C00004F58014761C761C307866280BD013DC5E
:1021D000582877D009DC002875D04528F6D0462845
:1021E000F4D047281AD193E118E0632835D0642849
:1021F00079D0652812D18BE1702873D008DC67286C
:10220000F1D069286FD06E280DD06F2806D1ACE0D0
:1022100073282CD0752874D0782853D0524617993B
:1022200090476D1C54E1C4F30250022809D00328E2
:102230000DD0D8F8001004280DD00D6008F1040866
:1022400046E1D8F80010EA17C1E90052F6E7D8F8DD
:1022500000100D80F2E70D70F0E718F8041B8DF800
:10226000001000208DF80100EB46012003E058F833
:1022700004BB4FF0FF3061074FF0000102D40DE0C6
:1022800009F101018946B9420FDA8145F8DB1BF8F3
:1022900009100029F4D108E009F1010189468142C1
:1022A000FADB1BF809100029F6D103985346A0EB7E
:1022B000090721463846179A00F080FA284400EBB7
:1022C000090507E044E008E10DE01BF8010B524668
:1022D00017999047B9F10109F7D25346214638467C
:1022E000179AF2E039E00A21C4F302524FF0000BD2
:1022F0000091022A06D058F8040BC117032A09D00E
:102300000AE023E008F1070020F00702F2E80201EA
:10231000904605E000B2C117042A01D140B2C117AE
:10232000002906DA0A460021404261EB02012D2213
:1023300002E0220504D52B228DF80420012203E0BF
:10234000E20701D02022F7E7914657E00A2100E09A
:1023500010214FF0000B00910BE010214FF0000B0B
:1023600044F004040827009103E008204FF0000B1C
:102370000090C4F30252022A05D058F8040B002141
:10238000032A08D008E008F1070020F00702F2E86D
:102390000201904603E080B2042A00D1C0B24FF09F
:1023A000000922072AD53278702A07D0DDF800C04C
:1023B0008CF0100C5CEA0B0C05D00EE040228DF87E
:1023C0000420012208E050EA010306D030238DF8F2
:1023D00004308DF8052002229146009B83F008030B
:1023E00053EA0B030AD150EA010201D1620705D575
:1023F00030228DF804204FF001097F1E3278582AD0
:1024000004D039A20C920CAA02920BE03BA2F9E78D
:102410005B46009AFDF726FF0C9B9B5C029A521EBE
:102420000292137050EA0102F2D1029804A9081A2C
:1024300000F1200B600702D524F4803400E001276E
:102440005F4502DDA7EB0B0000E0002000EB0B0175
:10245000009003984944401A0390E00306D4534681
:102460002146179A039800F0A9F90544002706E0D1
:1024700001A85246C05D179990476D1C7F1C4F45BF
:10248000F6DBE0030CD553462146179A039800F07B
:1024900095F9054404E030205246179990476D1C89
:1024A0000099481E00900029F5DC08E00298029986
:1024B00052460078491C0291179990476D1CBBF158
:1024C0000001ABF1010BF1DC5BE100F065F90544C3
:1024D000761C307800287FF40DAE19B02846BDE890
:1024E000F08F00000928010030313233343536379F
:1024F0003839616263646566000000003031323350
:1025000034353637383941424344454600000000EF
:10251000600700D4062708F1070020F00700F0E864
:102520000223804603F0004C5FEA0C0001D097A024
:1025300009E0200501D596A005E0E00701D095A0AF
:1025400001E0AFF24C001390307823F0004365288F
:102550000CD006DC452809D046281DD047287FD15D
:102560003BE0662818D067287AD136E00021112F89
:1025700001DB112000E0781CCDE9000104A90CA8C2
:10258000FFF7EEFCDDE90D010C9A4FF0000B07F1AF
:102590000109109200914EE04FF000400097CDE904
:1025A000011004A90CA8FFF7DBFCDDE90D020C9B70
:1025B0000F994FF0000B91461093009211B9791CBE
:1025C00000EB0109B7EB090003D4C0F1FF3B07F1B1
:1025D0000109A9EB0700019042E0012F00DA012771
:1025E0000021112F01DD112000E03846CDE9000166
:1025F00004A90CA8FFF7B4FCDDE90D010C9A0091C9
:102600004FF0000BB946109221070FD4009A4A45AB
:1026100003DA914601E0A9F10109B9F1010F05DDE5
:10262000109AA9F10101515C3029F4D0B84202DAC4
:1026300010F1040F03DA0121CDE9011010E00028A8
:1026400003DC8344A9EB000102E0411C494500DDA5
:102650008946A0EB0B00401C01904FF00040029017
:10266000200705D40198484502DB4FF0FF30019068
:1026700000208DF84B0002980DF14B07B0F1004F90
:1026800025D002200C902B200D90029800280CDA07
:10269000404202902D200D9007E00A210298FDF79C
:1026A000CBFD3031029007F8011D0C99481E0C90AB
:1026B0000029F2DC02980028EFD1791E0D980870ED
:1026C000307800F0200040F0450007F8020D11A816
:1026D000C01BC01D02901398007800B1012000EBD0
:1026E0000901019801EBE071029801440398401A36
:1026F000401E0390E00306D453462146179A0398E0
:1027000000F05CF805441398007818B15246179908
:1027100090476D1CE00323D553462146179A039832
:1027200000F04CF805441BE0BBF1000F07DB0098FC
:10273000584504DD1098179910F80B0001E017991F
:1027400030205246904701980BF1010B401E05F1D5
:102750000105019004D12E205246179990476D1C17
:10276000B9F10001A9F10109DEDC05E017F8010B60
:102770005246179990476D1C0299481E02900029F5
:10278000F4DC53462146179A03989EE62D0000007C
:102790002B000000200000002DE9F0410446002538
:1027A0001E461746880404D405E039462020B04769
:1027B0006D1C641EF9D52846BDE8F0812DE9F04175
:1027C000044600251E469046C80301D5302700E088
:1027D0002027880404D505E041463846B0476D1CE3
:1027E000641EF9D52846BDE8F0810A68531C0B60C9
:1027F0001070704710B5002401210E48FEF7CCF888
:1028000008B9012414E002210A48FEF7C5F808B906
:1028100002240DE004210748FEF7BEF808B903249E
:1028200006E001214FF09040FEF7B6F800B904240D
:10283000204610BD0004004810B5FFF7DBFF244917
:1028400008702448007809784840214909780840F0
:10285000214908701F4800781D49097848401C49E3
:10286000097888431D49087019480078194908708B
:10287000174800781A49087017480078012806D0D0
:1028800002280ED0032813D004281FD117E01548C2
:10289000007880F001001349087000201249088078
:1028A00014E01048407880F001000E4948700DE0B7
:1028B0000C48807880F001000A49887006E00948D9
:1028C000C07880F001000749C87000BF00BF10BD8C
:1028D0001000002011000020120000201300002032
:1028E0004A00002014000020480000200FB410B55A
:1028F00088B004460CA8019002A8019A0B99FFF732
:10290000F1FA02A92046FEF78FFE08B010BC5DF870
:1029100014FB000010B50BA10020FFF7E7FF0E48E5
:1029200002880EA13020FFF7E1FF0B480088401C11
:10293000094908800D4802780DA16020FFF7D6FFF5
:1029400010BD000054686973206973204C43445FD4
:10295000544553540000000048000020546573742F
:1029600020636F756E743A25640000004A000020F1
:1029700054657374206B65793A25640030B504465C
:102980000020FF22002108E0144B5B5CC1F1070529
:10299000AB400343D8B24B1CD9B20829F4DB9042B8
:1029A0001AD00F490968C9B20D4B19601946096858
:1029B0006FEA002319430A4B19600A49096841F07C
:1029C0000401084B196007491031096841F00401FE
:1029D000044B10331960024630BD00001400002083
:1029E00014080048180C004800B50248FFF7C6FF5D
:1029F00000BD000014000020FDF7EEFFFFF731FAE4
:102A0000FEF7ACFF00F004F801E000F015F8FCE779
:102A100010B5FEF755FE0020FEF77CFD0020FEF706
:102A2000C1FE4FF6FF70FEF7D1FE0320014908708A
:102A300010BD00004000002070B5FDF7BBFF05464B
:102A400000241BE004EB44000F4901EB8000806888
:102A500004EB44010C4A02EB810149680844A84296
:102A60000AD804EB4400114601EB8000856004EBBA
:102A7000440152F821008047601CC4B2034800782A
:102A80008442DFDB70BD00001C00002040000020FD
:102A9000000000000000000001020304060708090E
:102AA000000000000102030400000000000000001C
:102AB0000000000000000000000000000000000016
:102AC0000000000000000000000000000000000006
:102AD0000000000000000000000080018001800173
:102AE00080018001800180018001800180018001DE
:102AF00080018001000000008001800100000000D2
:102B0000000000000000000000000000CC00CC002D
:102B1000CC00CC00CC00CC00000000000000000085
:102B200000000000000000000000000000000000A5
:102B30000000000000000000000000000000000095
:102B400000000000600C600C600C30063006FE1FB8
:102B5000FE1F300638071803FE1FFE1F1803180358
:102B60008C018C018C01000000008000E003F80F54
:102B70009C0E8C1C8C188C009800F801E007800ECD
:102B8000801C8C188C189C18B80CF00FE003800087
:102B900080000000000000000000000000000E188F
:102BA0001B0C110C11061106110311039B018E0160
:102BB000C038C06C60446044304430441844186CE1
:102BC0000C380000000000000000E001F0033807AE
:102BD000180618063003F001F000F8009C310E339F
:102BE000061E061C061C063FFC73F02100000000B8
:102BF0000000000000000000000000000C000C00BD
:102C00000C000C000C000C00000000000000000094
:102C100000000000000000000000000000000000B4
:102C2000000000000000000000000002000380011E
:102C3000C000C00060006000300030003000300094
:102C4000300030003000300060006000C000C00084
:102C50008001000300020000000020006000C000AE
:102C60008001800100030003000600060006000644
:102C70000006000600060006000300038001800134
:102C8000C000600020000000000000000000000004
:102C900000000000C000C000D806F807E0013003C3
:102CA00038070000000000000000000000000000E5
:102CB0000000000000000000000000000000000014
:102CC0000000000080018001800180018001FC3F44
:102CD000FC3F800180018001800180010000000034
:102CE00000000000000000000000000000000000E4
:102CF00000000000000000000000000000000000D4
:102D000000000000000000000000800180010001C0
:102D10000001800000000000000000000000000032
:102D200000000000000000000000000000000000A3
:102D3000E007E007000000000000000000000000C5
:102D40000000000000000000000000000000000083
:102D50000000000000000000000000000000000073
:102D600000000000000000000000C000C0000000E3
:102D700000000000000000000000000C000C000635
:102D800000060006000300030003800380018001A9
:102D90008001C000C000C0006000600000000000B2
:102DA00000000000000000000000E003F007380E03
:102DB000180C0C180C180C180C180C180C180C18F3
:102DC0000C180C18180C380EF007E0030000000077
:102DD0000000000000000000000000018001C001B0
:102DE000F00198018801800180018001800180014B
:102DF00080018001800180018001800100000000CD
:102E000000000000000000000000E003F80F180CB4
:102E10000C180C1800180018000C000600038001A4
:102E2000C000600030001800FC1FFC1F0000000004
:102E300000000000000000000000E001F807180E8C
:102E40000C0C0C0C000C0006C003C007000C001892
:102E500000180C180C18180CF807E003000000000C
:102E600000000000000000000000000C000E000F39
:102E7000000F800DC00C600C600C300C180C0C0C9A
:102E8000FC3FFC3F000C000C000C000C000000009C
:102E900000000000000000000000F80FF80F18000C
:102EA00018000C00EC03FC071C0E001C0018001896
:102EB00000180C181C0C180EF807E00300000000A6
:102EC00000000000000000000000C007F00F381CE8
:102ED000181818000C00CC03EC0F3C0E1C1C0C182E
:102EE0000C180C18181C380EF007E0030000000046
:102EF00000000000000000000000FC1FFC1F000C90
:102F000000060006000380038001C001C000E0004D
:102F100060006000700030003000300000000000F1
:102F200000000000000000000000E003F007380E81
:102F3000180C180C180C3806F007F007180C0C18B1
:102F40000C180C180C18380CF80FE00300000000E7
:102F500000000000000000000000E003F007380E51
:102F60001C0C0C180C180C181C1C381EF81BE01933
:102F70000018000C000C1C0EF807F0010000000007
:102F80000000000000000000000000000000000041
:102F9000000000008001800100000000000000002F
:102FA000000000000000000080018001000000001F
:102FB0000000000000000000000000000000000011
:102FC00000000000800180010000000000000000FF
:102FD00000000000000000008001800100010001ED
:102FE0008000000000000000000000000000000061
:102FF00000000000000000000010001C800FE00333
:10300000F8001800F800E003800F001C001000001A
:1030100000000000000000000000000000000000B0
:103020000000000000000000F81F00000000000089
:10303000F81F000000000000000000000000000079
:103040000000000000000000000000000000000080
:10305000000000000000000008003800F001C00778
:10306000001F0018001FC007F00138000800000012
:1030700000000000000000000000E003F80F180C42
:103080000C180C180018000C000600038001C0008A
:10309000C000C00000000000C000C0000000000030
:1030A000000000000000000000000000E007181809
:1030B0000420C229224A114409440944094409222E
:1030C0001113E20C024004201818E0070000000071
:1030D0000000000000000000000080038003C00624
:1030E000C006C006600C600C301830183018F83F6D
:1030F000F83F1C700C600C6006C006C000000000A9
:1031000000000000000000000000FC03FC0F0C0C9D
:103110000C180C180C180C0CFC07FC0F0C180C30BD
:103120000C300C300C300C18FC1FFC0700000000A9
:1031300000000000000000000000C007F01F383849
:103140001C300C7006600600060006000600060033
:10315000060006600C701C30F01FE0070000000045
:1031600000000000000000000000FE03FE0F060E3D
:1031700006180618063006300630063006300630CF
:10318000063006180618060EFE0FFE0300000000AB
:1031900000000000000000000000FC3FFC3F0C00AD
:1031A0000C000C000C000C00FC1FFC1F0C000C00A1
:1031B0000C000C000C000C00FC3FFC3F0000000069
:1031C00000000000000000000000F83FF83F180079
:1031D0001800180018001800F81FF81F1800180031
:1031E000180018001800180018001800000000004F
:1031F00000000000000000000000E00FF83F3C78F5
:103200000E6006E007C00300030003FE03FE03C0D8
:1032100007C006C00EC03CF0F83FE00F0000000001
:10322000000000000000000000000C300C300C30EA
:103230000C300C300C300C30FC3FFC3F0C300C30B0
:103240000C300C300C300C300C300C300000000016
:1032500000000000000000000000800180018001EB
:103260008001800180018001800180018001800156
:103270008001800180018001800180010000000048
:10328000000000000000000000000006000600062C
:1032900000060006000600060006000600060006FE
:1032A0000006180618063807F003E00100000000C9
:1032B0000000000000000000000006300618060CA8
:1032C000060606038601C60066007600DE008E0153
:1032D00006030606060C061806300660000000000D
:1032E0000000000000000000000018001800180096
:1032F000180018001800180018001800180018000E
:103300001800180018001800F81FF81F000000002F
:10331000000000000000000000000EE01EF01EF0A3
:103320001EF036D836D836D836D866CC66CC66CCC1
:10333000C6C6C6C6C6C6C6C686C386C300000000CB
:10334000000000000000000000000C301C303C3089
:103350003C306C306C30CC30CC308C310C330C3396
:103360000C360C360C3C0C3C0C380C3000000000C9
:1033700000000000000000000000E007F81F1C38FB
:103380000E70066003C003C003C003C003C003C0C7
:1033900003C006600E701C38F81FE0070000000034
:1033A00000000000000000000000FC0FFC1F0C38B3
:1033B0000C300C300C300C300C18FC1FFC070C00CF
:1033C0000C000C000C000C000C000C0000000000B5
:1033D00000000000000000000000E007F81F1C389B
:1033E0000E70066003E003C003C003C003C003C047
:1033F00007E006630E3F1C3CF83FE0F700C000000A
:1034000000000000000000000000FE0FFE1F063854
:103410000630063006300638FE1FFE070603060695
:10342000060C06180618063006300660000000007C
:1034300000000000000000000000E003F80F1C0C7A
:103440000C180C180C001C00F803E00F001E0038CC
:10345000063006300E301C1CF80FE007000000009C
:1034600000000000000000000000FE7FFE7F8001E1
:103470008001800180018001800180018001800144
:103480008001800180018001800180010000000036
:10349000000000000000000000000C300C300C3078
:1034A0000C300C300C300C300C300C300C300C303C
:1034B0000C300C300C301818F81FE007000000002A
:1034C000000000000000000000000360063006302D
:1034D00006300C180C180C18180C180C380E300686
:1034E0003006700760036003C001C00100000000E7
:1034F000000000000000000000000360C361C36121
:10350000C3616633663366336633663366336C1B7A
:103510006C1B6C1B2C1A3C1E380E380E0000000071
:10352000000000000000000000000FE00C701830E8
:103530003018700C600EC00780038003C003E006E3
:10354000700C301C18180C300E6007E000000000F2
:103550000000000000000000000003C006600C3006
:103560001C383818300C6006E007C0038001800169
:103570008001800180018001800180010000000045
:1035800000000000000000000000FC7FFC7F0060E5
:1035900000300018000C000600038001C00060002D
:1035A000300018000C000600FE7FFE7F00000000C7
:1035B00000000000000000000000E003E0036000E5
:1035C00060006000600060006000600060006000FB
:1035D00060006000600060006000600060006000EB
:1035E0006000E003E00300000000300030006000F5
:1035F00060006000C000C000C000C0018001800108
:103600008001000300030003000600060000000024
:1036100000000000000000000000E003E0030003E1
:103620000003000300030003000300030003000382
:103630000003000300030003000300030003000372
:103640000003E003E003000000000000C001C0012F
:1036500060036003600330063006180C180C00008D
:10366000000000000000000000000000000000005A
:10367000000000000000000000000000000000004A
:10368000000000000000000000000000000000003A
:1036900000000000000000000000FFFFFFFF00002E
:1036A000000000000000000000000C000C000C00F6
:1036B0000C000C000C0000000000000000000000E6
:1036C00000000000000000000000000000000000FA
:1036D00000000000000000000000000000000000EA
:1036E00000000000F003F8071C0C0C0C000FF00F9A
:1036F000F80C0C0C0C0C1C0FF80FF018000000005C
:103700000000000000000000000018001800180071
:1037100018001800D803F80F380C181818181818C3
:10372000181818181818380CF80FD80300000000E3
:103730000000000000000000000000000000000089
:1037400000000000C003F007300E180C180018002D
:1037500018001800180C300EF007C003000000001D
:103760000000000000000000000000180018001811
:1037700000180018C01BF01F301C18181818181853
:10378000181818181818301CF01FC01B0000000073
:103790000000000000000000000000000000000029
:1037A00000000000C003F00F300C1818F81FF81FBD
:1037B000180018003818301CF00FC0070000000077
:1037C00000000000000000000000800FC00FC000DB
:1037D000C000C000F007F007C000C000C000C0007B
:1037E000C000C000C000C000C000C0000000000059
:1037F00000000000000000000000000000000000C9
:1038000000000000E00DF80F180E0C0C0C0C0C0C56
:103810000C0C0C0C0C0C180EF80FE00D000C0C0C22
:103820001C06F807F001000000001800180018003E
:1038300018001800D807F80F381C1818181818188E
:103840001818181818181818181818180000000058
:1038500000000000000000000000C000C0000000E8
:1038600000000000C000C000C000C000C000C000D8
:10387000C000C000C000C000C000C00000000000C8
:1038800000000000000000000000C000C0000000B8
:1038900000000000C000C000C000C000C000C000A8
:1038A000C000C000C000C000C000C000C000C00018
:1038B000C000F8007800000000000C000C000C00B4
:1038C0000C000C000C0C0C060C038C01CC006C00E2
:1038D000FC009C018C030C030C060C0C0000000087
:1038E00000000000000000000000C000C000C00098
:1038F000C000C000C000C000C000C000C000C000C8
:10390000C000C000C000C000C000C0000000000037
:1039100000000000000000000000000000000000A7
:10392000000000007C3CFF7EC7E383C183C183C1EC
:1039300083C183C183C183C183C183C100000000EF
:103940000000000000000000000000000000000077
:10395000000000009807F80F381C181818181818DD
:103960001818181818181818181818180000000037
:103970000000000000000000000000000000000047
:1039800000000000C003F00F300C181818181818A9
:10399000181818181818300CF00FC0030000000099
:1039A0000000000000000000000000000000000017
:1039B00000000000D803F80F380C18181818181851
:1039C000181818181818380CF80FD8031800180011
:1039D000180018001800000000000000000000009F
:1039E00000000000C01BF01F301C18181818181811
:1039F000181818181818301CF01FC01B00180018D1
:103A0000001800180018000000000000000000006E
:103A100000000000B007F0037000300030003000FC
:103A20003000300030003000300030000000000076
:103A30000000000000000000000000000000000086
:103A400000000000E003F003380E180C3800F0030B
:103A5000C007000C180C380EF007E003000000004F
:103A60000000000000000000000000008000C00016
:103A7000C000C000F007F007C000C000C000C000D8
:103A8000C000C000C000C000C007800700000000E8
:103A90000000000000000000000000000000000026
:103AA00000000000181818181818181818181818F6
:103AB000181818181818381CF01FE019000000001A
:103AC00000000000000000000000000000000000F6
:103AD000000000000C18180C180C180C30063006EA
:103AE0003006600360036003C001C00100000000F5
:103AF00000000000000000000000000000000000C6
:103B000000000000C141C141C3616363636363633B
:103B10003636363636361C1C1C1C1C1C00000000B9
:103B20000000000000000000000000000000000095
:103B3000000000001C38381C300C60066003600375
:103B4000600360036006300C381C1C380000000065
:103B50000000000000000000000000000000000065
:103B6000000000001830301830187018600C600C1D
:103B7000E00CC006C0068003800380038001800142
:103B8000C001F00070000000000000000000000014
:103B900000000000FC1FFC1F000C00060003800159
:103BA000C000600030001800FC1FFC1F0000000077
:103BB0000000000000000000000000038001C000C1
:103BC000C000C000C000C000C00060006000300045
:103BD00060004000C000C000C000C000C000C000C5
:103BE00080010003000000000000800180018001CE
:103BF00080018001800180018001800180018001BD
:103C000080018001800180018001800180018001AC
:103C1000800180018001000000006000C000C00140
:103C20008001800180018001800100030003000603
:103C3000000300018001800180018001800180017A
:103C4000C000600000000000000000000000000054
:103C50000000000000000000F010F81F080F000036
:103C60000000000000000000000000000000000054
:103C70000000000000000000983C00080000002048
:103C80004C000000401F0008E43C00084C000020ED
:103C900004040000501F0008000000001000000095
:103CA000010000000024F4000000000000000000FB
:103CB00000000000E92900080500000000000000E5
:103CC000392800080A00000000000000152900083B
:103CD000640000000000000000000000FFFF000082
:043CE00000000000E0
:04000005080001D915
:00000001FF
