:020000040800F2
:1000000050090020F101000815400008CD34000817
:1000100011400008F90800083D4E000800000000EB
:100020000000000000000000000000004D45000836
:10003000D509000800000000194000084F450008DD
:100040000B0200080B0200080B0200080B0200085C
:100050000B0200080B0200080B0200080B0200084C
:100060000B0200080B0200080B020008FD08000844
:100070000D0900081D0900080B0200080B0200080A
:100080000B020008000000000B0200080B02000831
:100090000B0200080B0200080B0200080B0200080C
:1000A0000B0200080B0200080B0200080B020008FC
:1000B0000B0200080B0200080B0200080B020008EC
:1000C0000B0200080B0200080B0200080B020008DC
:1000D0000B0200080D4E00080B0200080B0200087E
:1000E0000B0200080B0200080B0200080B020008BC
:1000F0000B0200080B0200080B02000800000000C1
:10010000000000000B020008000000000B020008C5
:100110000B020008000000000B0200080B020008A0
:100120000B0200080B0200080B0200080B0200087B
:100130000B02000800000000000000000B02000895
:100140000B0200080B020008000000000000000085
:10015000000000000000000000000000000000009F
:100160000000000000000000000000000B0200087A
:100170000B0200080000000000000000000000006A
:10018000000000000B02000800000000000000005A
:10019000000000000000000000000000000000005F
:1001A00000000000000000000B0200080B02000825
:1001B0000B0200080B0200080B0200080000000000
:1001C000000000000B02000800000000000000001A
:1001D0000B0200080B020008DFF810D000F06AFAEA
:1001E00000480047B55D0008AFF3008050090020CB
:1001F0000648804706480047FEE7FEE7FEE7FEE7C1
:10020000FEE7FEE7FEE7FEE7FEE7FEE7C145000882
:10021000D90100082DE9F05F0546002092469B4673
:1002200088460646814640241BE02846414647460C
:10023000224600F077F853465A46C01A914110D32F
:1002400011461846224600F05EF82D1A67EB0108A9
:100250004F4622460120002100F055F817EB000917
:100260004E41201EA4F10104DFDC484631462A46F7
:100270004346BDE8F09FD2B201E000F8012B491ED1
:10028000FBD270470022F6E710B513460A46044633
:100290001946FFF7F0FF204610BD30B50446002098
:1002A000034600E05B1C934203D2E05CCD5C401B44
:1002B000F8D030BD00F0004230F000400AD0C10D4F
:1002C00001F56071C0F3160042EA0151C20840070F
:1002D0001143704700200146704730B50B46014678
:1002E00000202022012409E021FA02F59D4205D3D5
:1002F00003FA02F5491B04FA02F52844151EA2F17F
:100300000102F1DC30BD202A04DB203A00FA02F1C0
:10031000002070479140C2F1200320FA03F31943F3
:1003200090407047202A04DB203A21FA02F0002195
:10033000704721FA02F3D040C2F1200291400843F5
:10034000194670472DE9FE4F804681EA0300C00F31
:100350000C46009021F0004123F00045B8EB02006C
:10036000A94105D24046214690461C460B4602460E
:1003700023F00040104347D0270DC7F30A00C3F312
:100380000A510290401A019040286BDAC3F313001F
:1003900040F4801B0098924620B10023D2EB030A60
:1003A00063EB0B0B01985946C0F140025046FFF732
:1003B000AAFF06460D4650465946019A00F08CF9B0
:1003C00010EB08006141002487EA115284EAE773C8
:1003D0001A4340D0009A62B3019A012A4FEA0752A9
:1003E00015DC001B61EB02014FF0004202EA0752EC
:1003F000CDE90042001C41F5801132462B4600F049
:100400008CF903B0BDE8F08F40462146F9E7001BA8
:1004100061EB0201001C41F5801300185B412018BC
:10042000A2F5001747EB030140EAD570B6196D41FC
:1004300011E06D084FEA360645EAC0754FEA0752EB
:10044000001B61EB0201001C41F5801149084FEAD5
:1004500030000019514132462B4603B0BDE8F04F41
:1004600000F04CB90098012240000023D0EB0202BA
:1004700063EBE073009821464FEAE074B8EB0000AC
:1004800061EB0401E9E783F000435BE781F00041A1
:1004900058E72DE9FE4F81EA030404F0004421F0FF
:1004A000004100944FF0000B23F0004350EA010498
:1004B0005ED052EA03045BD0C3F30A54C1F30A5579
:1004C0002C44A4F2F3340194A0FB0254C1F31301B1
:1004D00041F48011C3F3130343F4801301FB02447E
:1004E00000FB034E840A970A44EA815447EA835783
:1004F000A4FB076802958D0A05FB07854FEA932C3C
:1005000004FB0C542705029D4FEA065847EA1637AC
:10051000B5EB08056EEB070C870E920E47EA8117C4
:1005200042EA8312A7FB0201B6EB0B0164EB000465
:100530002B0D43EA0C335E1844EB1C50DA4651464F
:10054000E7FB0201C5F313044FEA0B3343EA1453EC
:100550004FEA0432019C43EA0603A4F10C0402941E
:10056000009CCDE900B400F0D8F803B0BDE8F08FEE
:1005700000200146F9E72DE9F04D81EA030404F07B
:10058000004B21F0004514464FF0000A23F00041D3
:1005900050EA050220D054EA01021DD0C5F30A57E3
:1005A0000246C5F31303C1F31300C1F30A5640F426
:1005B000801543F48013A7EB0608101BD64608F2FB
:1005C000FD3873EB050002D308F1010801E0921831
:1005D0005B41B8F1000F03DA00200146BDE8F08D61
:1005E00000204FF48011064684460EE0171B73EB83
:1005F000050705D3121B63EB050306434CEA010C08
:1006000049084FEA300092185B4150EA0107EDD1EA
:1006100052EA030012D082EA040083EA050108438B
:1006200005D0101BAB4106D20122002306E00022B8
:100630004FF0004302E06FF0010253101AEB060086
:100640004CEB085110EB0A0041EB0B01BDE8F04DFB
:1006500000F054B8C1F30A52C1F3130140F2FF3362
:1006600041F480119A4202DA00200146704740F2BC
:1006700033439A42A2F2334202DC5242FFF752BEA7
:10068000FFF741BE30B5041E71F1000404DB4FF0EA
:100690000044404264EB0101141E73F1000405DBC9
:1006A0001C464FF00043524263EB0403994208BFDB
:1006B000904230BD064C074D06E0E06840F0010373
:1006C00094E8070098471034AC42F6D3FFF788FD52
:1006D0004C7100086C710008202A06DBCB17203A09
:1006E00041FA02F043EAE07306E041FA02F3D04037
:1006F000C2F12002914008431946704710B5141EFC
:1007000073F1000408DA401C41F1000192185B41CA
:100710001A4301D120F0010010BD2DE9F04D9246A1
:100720009B4611B1B1FA81F202E0B0FA80F22032B8
:100730009046FFF7E8FD04460F4640EA0A0041EA0A
:100740000B0153465A46084313D0114653EA0100A1
:1007500019D0C8F140025046FFF7E4FD05460E46A9
:10076000504659464246FFF7CEFD084305D00120CA
:1007700004E020463946BDE8F08D0020054346EAF6
:10078000E0762C4337430A986305E40AA0EB08009F
:100790000022FD0A44EA47540A3002D500200146EF
:1007A000E9E7010510196941DDE9084500196941CA
:1007B000BDE8F04DA2E770B50546AC6AE06D00F00B
:1007C000500098BBE06D40F40070E0652068006860
:1007D00000F00800A8B1206803F0DAF910B320682F
:1007E000C06800F40050E8B9E06D20F48070E06566
:1007F000E06D00F48050A8B9E06D40F00100E065C4
:1008000010E02068C06800F0020058B9E06D20F4E4
:100810008070E065E06D00F4805018B9E06D40F044
:100820000100E065204600F0F3FB0CE0FFE7E06D1F
:1008300000F0100018B1204600F0ECFB03E0606D02
:10084000416B2846884770BD70B50546AC6AE06DBF
:1008500040F04000E065206E40F004002066204635
:1008600000F0D8FB70BD70B50446A56A284600F0BC
:10087000D0FB70BD70B50446206803F070F9002805
:1008800036D1206880681B49084048B1E06D40F0CF
:100890001000E065206E40F001002066012070BD70
:1008A000206803F041F901F023F905461AE02068B9
:1008B00003F055F910B9206803F036F901F018F982
:1008C000401B02280ED92068006800F0010048B9DA
:1008D000E06D40F01000E065206E40F00100206601
:1008E0000120DCE72068006800F001000028DED06D
:1008F0000020D4E73F00008000BFFEE710B50248AB
:1009000000F09FFE10BD0000E003002010B502487B
:1009100000F097FE10BD00006801002010B50248ED
:1009200000F08FFE10BD0000C801002030B50E4D54
:100930000468AC4201D20D4901E00C4920310B465C
:100940000478083C1425B4FBF5F2446CA40803EBCE
:1009500084048464054C8034C46402F01F050124BF
:10096000AC40046530BD00000804024000080240AD
:1009700001794A1E064B03EB82024265044A40326B
:1009800082654A1E02F01F0301229A40C265704729
:100990000009024030B5D0E913546C60446D14B1C5
:1009A000D0E916546C6090F8444004F01F0501240F
:1009B000AC40056C6C60046863608468102C04D1E2
:1009C0000468A2600468E16003E00468A160046850
:1009D000E26030BD7047002109E0002201E0531CB5
:1009E0009AB240F6B8339A42F9DB4B1C99B2814275
:1009F000F3DB704772B600BFFEE700002DE9F0435D
:100A00009BB004460E464FF00008306800B100BFAE
:100A100000BF94F85800012803D102201BB0BDE8A4
:100A2000F083012084F8580000BF00201790189030
:100A30002068B0F1A04F02D13148009001E00020C1
:100A40000090009850B9E06D40F02000E06500BFD4
:100A5000002084F8580000BF0120DFE7009803F071
:100A600092F80746206803F08EF8D8BBD7BB254D17
:100A7000306800B394F83800716841EA4030A968E2
:100A800021F460410843A8604FF0A04003F06CF8E7
:100A900081461B4803F068F849EA0009B9F1000FE4
:100AA00027D1B16830680843A96840F61F729143A6
:100AB0000843A8601DE0A86820F46040A8604FF0DB
:100AC000A04003F051F881460D4803F04DF849EA83
:100AD0000009B9F1000F0CD1A86840F61F718843D6
:100AE000A86006E0FFE7E06D40F02000E0654FF011
:100AF000010800BF002084F8580000BF40468DE781
:100B000000010050000300502DE9F84F05460C4647
:100B10004FF0000A00200090FE49E068884200D0B3
:100B200000E000BF00BF95F85800012802D1022064
:100B3000BDE8F88F012085F8580000BF286803F051
:100B40001DF800287DD12968D4E9002001F1300C7E
:100B5000C0F3012B0CEB8B03D3F800C000F01F0E89
:100B60004FF01F0B0BFA0EFB2CEA0B0C00F01F0BC7
:100B7000C2F3846E0EFA0BFE4CEA0E0CC3F800C0F2
:100B800000BF286802F0FAFF8146286802F0E2FF01
:100B90008046B9F1000F64D1B8F1000FFBD1A06815
:100BA000B0F1004F0AD121680022286803F002F852
:100BB0004FF00041286803F022F808E0A26821689D
:100BC000286802F0F7FF0021286803F018F8606930
:100BD0002968C968C1F3C101490000FA01F7206919
:100BE00004283FD028682268216900F1600C0CEBD2
:100BF0008103D3F800C0DFF820B30CEA0B0C02F03D
:100C0000F84B4BF0004B4BEA070B4CEA0B0CC3F8CC
:100C100000C000BF2868A269216900F1600C0CEBDC
:100C20008103D3F800C02CF0807C4CEA020CC3F89E
:100C300000C000BF2868227F2169012A02D1520624
:100C400001E0C6E10022134600F1600C0CEB8102CA
:100C5000D2F800C02CF0007C4CEA030CC2F800C0B3
:100C600000BFA7E00021286802F06BFFC0F312006C
:100C700030B90021286802F064FFC0F3846007E007
:100C80000021286802F05DFF90FAA0F0B0FA80F031
:100C90002168C1F3120119B92168C1F3846104E02C
:100CA000216891FAA1F1B1FA81F1884204D10022C0
:100CB0001146286802F098FF0121286802F041FFE0
:100CC000C0F3120030B90121286802F03AFFC0F3E6
:100CD000846007E00121286802F033FF90FAA0F059
:100CE000B0FA80F02168C1F3120119B92168C1F38B
:100CF000846104E0216891FAA1F1B1FA81F188429E
:100D000004D100220121286802F06EFF0221286828
:100D100002F017FFC0F3120030B90221286802F078
:100D200010FFC0F3846007E00221286802F009FF89
:100D300090FAA0F0B0FA80F02168C1F3120119B95D
:100D40002168C1F3846104E0216891FAA1F1B1FA4C
:100D500081F1884204D100220221286802F044FF78
:100D60000321286802F0EDFEC0F3120030B9032120
:100D7000286802F0E6FEC0F3846007E003212868DB
:100D800002F0DFFE90FAA0F0B0FA80F02168C1F323
:100D9000120119B92168C1F3846104E0216891FA54
:100DA000A1F1B1FA81F1884204D10022032128681F
:100DB00002F01AFF286802F0D2FE002872D12868DB
:100DC000E2682168D0F8B030C1F3120C23EA0C03BA
:100DD00002F0180BDFF844C12CFA0BFC0CEA010CF2
:100DE00043EA0C03C0F8B03000BF4A49E0688842CB
:100DF00058D12368C3F312031BB92368C3F3846378
:100E000004E0236893FAA3F3B3FA83F35B1C03F0C3
:100E10001F03092B3ED82368C3F312031BB92368B1
:100E2000C3F3846304E0236893FAA3F3B3FA83F370
:100E30005B1C03F01F034FF0010C0CFA03FC23684A
:100E4000C3F312031BB92368C3F3846304E023686C
:100E500093FAA3F3B3FA83F35B1C03F01F034CEA8A
:100E6000836C2368C3F312031BB92368C3F3846341
:100E700004E0236893FAA3F3B3FA83F35B1C03F053
:100E80001F0303EB43034FF0000B4BEA03534CEA01
:100E9000030347E02368C3F3120323B92368C3F3B2
:100EA000846305E043E0236893FAA3F3B3FA83F382
:100EB0005B1C03F01F034FF0010C0CFA03FC2368CA
:100EC000C3F312031BB92368C3F3846304E02368EC
:100ED00093FAA3F3B3FA83F35B1C03F01F034CEA0A
:100EE000836C2368C3F312031BB92368C3F38463C1
:100EF00004E0236893FAA3F3B3FA83F35B1C03F0D3
:100F00001F030A3B03EB43034FF0007B4BEA035301
:100F100006E0000000007F4000F0FF03FFFF070035
:100F20004CEA03031946A268286802F043FE2F49E1
:100F30002068084050B300BF2D48806800F0E0767C
:100F400000BF2C492068884203D02B492068884282
:100F50001DD106F40000D0B92868B0F1A04F3ED1F1
:100F600046F40001224802F039FE24480068244972
:100F7000B0FBF1F0401C00EB40008000009002E06C
:100F80000098401E009000980028F9D127E01D49E4
:100F9000206888420CD106F0807048B91A49286848
:100FA00088421CD046F08071114802F017FE16E00E
:100FB00016492068884212D106F4800078B9124997
:100FC000286888420BD046F48001094802F006FEEA
:100FD00005E0E86D40F02000E8654FF0010A00BF31
:100FE000002085F8580000BF5046A1E500000880A9
:100FF00000030050000021C31000C090100000202A
:10100000400D0300000052C700010050000084CBD7
:1010100070477047704700002DE9F84F04464FF0C5
:1010200000090020009014B90120BDE8F88F606924
:1010300020B194F82400012800D100BFE06D30B940
:10104000204600F01DF90020206684F85800206832
:101050008168C1F3407131B120688168814A1140D3
:10106000816000BF00BF206802F083FDB0B9206836
:1010700081687D4A114041F08051816000BF7B480A
:1010800000687B49B0FBF1F0401C4000009002E09A
:101090000098401E009000980028F9D1206802F0C6
:1010A00068FD48B9E06D40F01000E065206E40F04A
:1010B000010020664FF00109206802F05FFD06463E
:1010C000E06D00F0100000287CD1002EFCD1E06D16
:1010D00020F4807040F00200E065206802F03FFDDF
:1010E000B0B94FF0A04002F03AFD8246614802F0EC
:1010F00036FD4AEA000ABAF1000F09D160685E497C
:10110000896821F47C1101435B4A916000BF00BFF4
:10111000607FE16B41EA4030E1680843A168084321
:1011200094F8241040EA014594F82400012803D1E2
:10113000208D401E45EA4045E06A28B1A08D00F4AC
:101140007870216B084305432068C0684B4908400C
:1011500028432168C8602068006920F04060616B06
:10116000084321680861206802F008FD8046206875
:1011700002F0F0FC0746B8F1000F50D1F7BB207F1A
:10118000002141EA803194F8380041EA40052068A6
:10119000C06844F20201884328432168C86020697E
:1011A00088B12068006940F48030216808612068B7
:1011B000D0F8C0006FF30D00216908432168C1F821
:1011C000C0000EE045E02068006920F4803021680E
:1011D00008612068D0F8C0006FF30D002168C1F8E5
:1011E000C00094F84000012813D1606C40F0010168
:1011F000A06C0843E16C0843216D00E00FE0084358
:101200002168096940F2FC72914308432168086132
:1012100005E02068006920F001002168086160692C
:10122000012809D12068006B20F00F00216A491EB7
:1012300008432168086305E02068006B20F00F0078
:1012400021680863E06D20F0020040F00100E065D5
:1012500005E0E06D40F01000E0654FF00109484600
:10126000E3E60000C0FFFF5FC0FFFF7F100000202B
:10127000400D030000010050000300500740F0FF44
:1012800010B598B00446142113A8FEF7FBFF4421C3
:1012900002A8FEF7F7FF2068B0F1A04F56D14FF437
:1012A000004002908003119002A800F08DFD08B16B
:1012B000FFF7A0FB54480068401C534908600846EB
:1012C000006801280DD100BF5048C06C40F40050A8
:1012D0004E49C8640846C06C00F40050019000BF3D
:1012E00000BF00BF4948C06C40F002004749C864D5
:1012F0000846C06C00F00200019000BF00BF8814D7
:101300001390032014900020159013A9404800F07A
:10131000F5FA4048404908600520486000213E48F1
:101320008160C16080210161890041618900816122
:101330002021C161C901016200F002FA08B1FFF782
:1013400059FB00BF3448606584625BE03349206824
:10135000884257D1C00102908003119002A800F08A
:1013600033FD08B1FFF746FB27480068401C2649BB
:1013700008600846006801280DD100BF2348C06CF2
:1013800040F400502149C8640846C06C00F4005085
:10139000019000BF00BF00BF1C48C06C40F00200BD
:1013A0001A49C8640846C06C00F00200019000BFF2
:1013B00000BF4FF4004013900320149000201590BC
:1013C00013A9134800F09AFA12481430144908601F
:1013D00024204860002112488160C16080210161A1
:1013E00089004161890081612021C161C9010162D7
:1013F00000F0A6F908B1FFF7FDFA00BF08486065E4
:10140000846200BF18B010BD000000200010024030
:10141000000400481C000240680100200001005048
:10142000C80100202DE9F04104460F4690463D4892
:1014300002F082FB0646206802F0A0FB00286DD176
:1014400000BF94F85800012802D10220BDE8F081C5
:10145000012084F8580000BF1EB1052E01D0092ECE
:1014600056D12046FFF706FA0546002D4BD1E06D18
:1014700040F60161884340F48070E0652A492068A5
:10148000884202D14FF0A04000E0206821688842E5
:1014900000D01EB9E06D20F48010E065E06D00F42E
:1014A000805020B1206E20F00600206601E0002070
:1014B00020661E48616DC8621D48616D08631D4845
:1014C000616D48631C202168086000BF002084F81B
:1014D000580000BF2068406840F010002168486054
:1014E0002068C06840F001002168C860226802F1ED
:1014F000400143463A46606D00F08AF9054620688F
:1015000002F050FB0BE000BF002084F8580006E01A
:10151000012500BF002084F8580000E0022528467D
:1015200094E700000003005000010050B7070008D6
:1015300067080008490800080146002091F82520A6
:10154000022A03D00422CA63012027E00A68126835
:1015500022F00E020B681A608A6C126822F4807204
:101560008B6C1A600A68126822F001020B681A601C
:1015700091F8442002F01F0301229A400B6C5A603C
:10158000D1E913325A604A6D42B14A6D126822F4B1
:1015900080724B6D1A60D1E916325A60012281F8CF
:1015A000252000BF002281F8242000BF704770B5BD
:1015B0000446002594F8250002280BD00420E0639F
:1015C000012084F8250000BF002084F8240000BF1B
:1015D000012534E02068006820F00E0021680860D2
:1015E0002068006820F0010021680860A06C006895
:1015F00020F48070A16C086094F8440000F01F0192
:1016000001208840216C4860D4E913104860606D67
:1016100040B1606D006820F48070616D0860D4E9AD
:1016200016104860012084F8250000BF002084F8CF
:10163000240000BFA06B10B12046A16B884728464C
:1016400070BD70B50446206C05682068066894F883
:10165000440000F01F01042088402840E0B106F05B
:101660000400C8B12068006800F0200028B9206894
:10167000006820F004002168086094F8440000F03D
:101680001F0104208840216C4860206B002856D040
:101690002046216B884752E094F8440000F01F0177
:1016A00002208840284018B306F0020000B32068EA
:1016B000006800F0200040B92068006820F00A00AF
:1016C00021680860012084F8250094F8440000F0A7
:1016D0001F0102208840216C486000BF002084F870
:1016E000240000BFE06A50B32046E16A884726E044
:1016F00094F8440000F01F01082088402840F0B111
:1017000006F00800D8B12068006820F00E002168BB
:10171000086094F8440000F01F0101208840216C0B
:1017200048600120E06384F8250000BF002084F8B1
:10173000240000BF606B10B12046616B884770BD0C
:1017400070B504460CB9012070BD2F49206888424D
:101750000BD22E492068401A1421B0FBF1F0800012
:1017600060642A48083820640AE027492068401A43
:101770001421B0FBF1F08000606423480838206435
:10178000022084F825002068056847F6F07085433C
:10179000D4E9020108432169084361690843A1694A
:1017A0000843E1690843216A08430543206805604E
:1017B0002046FFF7BBF8A068B0F5804F01D10020AC
:1017C00060602079A16C0860D4E9131048606068FB
:1017D00060B16068042809D82046FFF7C9F80020E6
:1017E000616D0860D4E91610486003E00020606570
:1017F000A065E0650020E063012084F8250000205A
:1018000084F8240000BF9FE708040240080002405B
:101810002DE9F04104460D4616461F464FF00008DC
:1018200000BF94F82400012802D10220BDE8F08115
:10183000012084F8240000BF94F8250001283FD13E
:10184000022084F825000020E0632068006820F072
:101850000100216808603B46324629462046FFF7D2
:1018600099F8206B30B12068006840F00E002168C4
:1018700008600BE02068006820F004002168086020
:101880002068006840F00A0021680860A06C0068C9
:1018900000F4803028B1A06C006840F48070A16C26
:1018A0000860606D28B1606D006840F48070616D03
:1018B00008602068006840F001002168086006E0C8
:1018C00000BF002084F8240000BF4FF0020840460B
:1018D000ACE7000070B5044600F00AF9064625465C
:1018E000681C10B104480068054400BF00F000F90E
:1018F000801BA842FAD370BD0C00002078B50346C7
:101900000022D0E0012696400D6805EA0604002C6E
:1019100072D04D68012D08D04D68022D05D04D685C
:10192000112D02D04D68122D13D198685600032551
:10193000B540A8435600CD68B54028439860586824
:1019400001259540A8430D79C5F30015954028431E
:101950005860D86856000325B540A84356008D68E6
:10196000B5402843D8604D68022D02D04D68122D35
:1019700013D1D60803F1200555F826005507EE0EC1
:101980000F25B540A8435607F60E0D69B54028430C
:10199000D60803F1200545F82600186856000325EF
:1019A000B540A8430D7905F003055600B54028431E
:1019B00018604D6805F08055B5F1805F72D100BFA9
:1019C0003C4D2D6E45F001053A4E356635462D6E7F
:1019D00005F00105009500BF00BF4FEAB635960837
:1019E00055F8260095072E0F0F25B540A843B3F1F3
:1019F000904F02D100251AE054E02F4DAB4201D1A7
:101A0000012514E02D4DAB4201D102250FE02C4DF4
:101A1000AB4201D103250AE02A4DAB4201D1042596
:101A200005E0294DAB4201D1052500E006259607CA
:101A3000360FB5402843254D960845F82600244D1D
:101A40002868A0434D6805F48035B5F5803F00D186
:101A500020431F4D28602D1D2868A0434D6805F4C4
:101A60000035B5F5003F00D12043194D2D1D2860EC
:101A70002D1D2868A0434D6805F48015B5F5801F1D
:101A800000D12043124D083528602D1D2868A04341
:101A90004D6805F40015B5F5001F00D120430C4D2D
:101AA0000C352860521C0D68D540002D7FF42AAFFC
:101AB00078BD000000100240000400480008004803
:101AC000000C0048001000480014004808000140C5
:101AD00000040140024613690B400BB1012000E0F5
:101AE000002070470AB1816100E081627047000008
:101AF00001480068704700000400002003480068A7
:101B0000034909680844014908607047040000203F
:101B10000C00002010B50024032000F0ABF80020DA
:101B200000F008F808B1012401E000F02FF8204689
:101B300010BD000070B50446002511480068D8B1FA
:101B40000F4800684FF47A71B1FBF0F00D49096855
:101B5000B1FBF0F6304601F01BF958B9102C07D252
:101B600000222146501E00F047F80748046004E0B8
:101B7000012502E0012500E00125284670BD000096
:101B80000C000020100000200800002008B500BF55
:101B90000E48006E40F001000C4908660846006ED1
:101BA00000F00100009000BF00BF00BF0846806D3C
:101BB00040F0805088650846806D00F080500090AD
:101BC00000BF00BF00F0F6F808BD000000100240A2
:101BD0000146084600280DDB00BF00BF00F01F03D0
:101BE00001229A4043099B0003F1E023C3F800213E
:101BF00000BF00BF00BF70472DE9F05F80460D4673
:101C0000164603F03FF9074639462A46334601F0A7
:101C10000700C0F1070ABAF1040F02D94FF0040A15
:101C200001E0C0F1070AD14600F1040ABAF1070F3A
:101C300002D24FF0000A01E0A0F1030AD4464FF0AF
:101C4000010A0AFA09FAAAF1010A0AEA020A0AFAD8
:101C50000CFA4FF0010B0BFA0CFBABF1010B0BEA8A
:101C6000030B4AEA0B042146404603F013F9BDE892
:101C7000F09F000000BF00F00702064B19684FF606
:101C8000FF031940044B0B4343EA0221014B196047
:101C900000BF70470CED00E00000FA0502468ABB69
:101CA0004148006800F4C060B0F5806F2BD13E4819
:101CB0008030006820F480703B4BC3F880001846E9
:101CC000006820F4C06040F4007018603748006875
:101CD00032235843364BB0FBF3F0411C00E0491E61
:101CE0003148406900F48060B0F5806F01D100296F
:101CF000F5D12D48406900F48060B0F5806F51D176
:101D00000320704708E028488030006820F4807085
:101D1000254BC3F8800045E0B2F5007F3AD1224858
:101D2000006800F4C060B0F5806F2AD11E48803092
:101D3000006840F480701C4BC3F8800018460068AF
:101D400020F4C06040F40070186018480068322326
:101D50005843174BB0FBF3F0411C00E0491E1248FA
:101D6000406900F48060B0F5806F01D10029F5D1A1
:101D70000D48406900F48060B0F5806F12D10320F7
:101D8000BFE709488030006840F48070064BC3F814
:101D9000800007E00448006820F4C06040F48060E0
:101DA000014B18600020ACE70070004010000020DC
:101DB00040420F000348806840F480400149886039
:101DC00070470000007000402DE9F84304460027EA
:101DD000B846206800F40020B0F5002F73D1B94652
:101DE000D348806D00F0805078B900BFD048806D36
:101DF00040F08050CE4988650846806D00F08050E4
:101E0000009000BF00BF4FF00109CA48006840F4CD
:101E10008070C8490860FFF76BFE064606E0FFF7D2
:101E200067FE801B022801D9032705E0C14800682E
:101E300000F480700028F2D000BF002F46D1BC48CB
:101E40009030006800F44075CDB1206CA84216D0E7
:101E5000B7489030006820F44075B548D0F890003D
:101E600040F48030B249C1F890000846D0F89000A4
:101E700020F48030C1F890000846C0F8905005F07A
:101E80000100A0B1FFF734FE064608E0FFF730FE80
:101E9000801B41F28831884201D9032706E0A4481B
:101EA0009030006800F002000028EFD000BF5FB95A
:101EB0009F489030006820F44070216C08439C4992
:101EC000C1F8900003E00CE0B84600E0B846B9F174
:101ED000010F05D19648806D20F0805094498865A7
:101EE00000BF207800F0010048B1914888300068B8
:101EF00020F00300616808438D49C1F8880020780C
:101F000000F00200022809D189488830006820F0DA
:101F10000C00A16808438649C1F88800207800F0C9
:101F20000400042809D182488830006820F030007D
:101F3000E16808437E49C1F88800207800F0080075
:101F4000082809D17A488830006820F0C00021694B
:101F500008437749C1F88800207800F02000202845
:101F600009D173488830006820F4406061690843F3
:101F70006F49C1F88800207800F04000402809D15E
:101F80006B488830006820F44050A16908436849D4
:101F9000C1F88800207800F08000802809D16448CA
:101FA0008830006820F44040E16908436049C1F886
:101FB0008800208800F48070B0F5807F09D15C48EB
:101FC0008830006820F44030216A08435849C1F83D
:101FD0008800208800F40070B0F5007F09D15448D3
:101FE0008830006820F44020616A08435049C1F8F5
:101FF0008800208800F48060B0F5806F13D14C48D1
:102000008830006820F44010A16A084348498831AC
:102010000860A06AB0F5801F05D14548C06840F44B
:1020200080104349C860208800F40060B0F5006F5C
:1020300013D13F488830006820F44000E16A08432B
:102040003B4988310860E06AB0F5800F05D1384817
:10205000C06840F480103649C860208800F4805081
:10206000B0F5805F13D132488830006820F04070AE
:10207000216B08432E4988310860206BB0F1807FC6
:1020800005D12B48C06840F480102949C8602088D9
:1020900000F40050B0F5005F13D125488830006887
:1020A00020F04060616B0843214988310860606B13
:1020B000B0F1006F05D11E48C06840F480101C4983
:1020C000C860208800F48040B0F5804F13D11848D4
:1020D0008830006820F04060A16B084314498831C3
:1020E0000860A06BB0F1006F05D11148C06840F4E2
:1020F00080100F49C860208800F40040B0F5004F00
:1021000013D10B488830006820F04050E16B084341
:10211000074988310860E06BB0F1805F05D1044861
:10212000C06840F480300249C8604046BDE8F8838A
:1021300000100240007000402DE9F04104460D46B9
:102140004FF0000814B90120BDE8F0817D48006817
:1021500000F00F00A8420ED27A48006820F00F006D
:102160002843784908600846006800F00F00A8423C
:1021700001D00120E8E7207800F00100002864D0B9
:102180006068032823D17048006800F0007008B927
:102190000120D9E701F042FF06466C48864237D954
:1021A0006948806800F0F00030B1207800F002004B
:1021B00002282DD1A06858BB6348806820F0F00049
:1021C00040F08000604988604FF0800820E060683F
:1021D000022806D15C48006800F4003040B90120B4
:1021E000B2E75948006800F4806008B90120ABE705
:1021F00000F0DEF806465548864209D95248806804
:1022000020F0F00040F080004F4988604FF08008D7
:102210004D48806820F00300616808434A4988609F
:10222000FFF766FC074608E0FFF762FCC01B41F2BF
:102230008831884201D9032086E74348806800F04E
:102240000C006168B0EB810FEED1207800F0020045
:10225000022820D1207800F00400042805D13A4853
:10226000806840F4E06038498860207800F0080019
:10227000082807D13448806820F4605040F4E060BA
:10228000314988603048806820F0F000A168084338
:102290002D49886008E0B8F1800F05D12A48806890
:1022A00020F0F000284988602648006800F00F0000
:1022B000A84219D92348006820F00F00284321497B
:1022C0000860FFF715FC074608E0FFF711FCC01B8C
:1022D00041F28831884201D9032035E71948006866
:1022E00000F00F00A842F0D1207800F0040004288C
:1022F00007D11548806820F4E060E168084312497E
:102300008860207800F00800082808D10E4880680E
:1023100020F46050216940EAC1000B49886000F058
:1023200047F809498968C1F30311094A515C01F072
:102330001F01C8400749086007480068FFF7FAFB1B
:1023400002E70000002002400010024000B4C40474
:10235000645F0008100000200800002001480068A9
:10236000704700001000002000B5FFF7F7FF054997
:102370008968C1F30221044A515C01F01F01C84081
:1023800000BD000000100240745F000800B5FFF7B8
:10239000E5FF05498968C1F3C221044A515C01F097
:1023A0001F01C84000BD000000100240745F00081B
:1023B00070B5224DAD6805F00C05042D01D1204803
:1023C0003AE01E4DAD6805F00C05082D01D11D4801
:1023D00032E01A4DAD6805F00C050C2D2BD1174DD0
:1023E000ED6805F00304154DED68C5F303156A1C8F
:1023F000022C0CD0032C09D1124DB5FBF2F50F4E77
:10240000F668C6F3062605FB06F10AE000BF0C4D90
:10241000B5FBF2F5094EF668C6F3062605FB06F194
:1024200000BF00BF054DED68C5F341656D1C6B0035
:10243000B1FBF3F000E0002070BD0000001002408E
:102440000024F40000366E012DE9F843044614B967
:102450000120BDE8F883207800F00100002865D055
:10246000FC48806800F00C07FA48C06800F00306DA
:102470000C2F01D1032E01D0082F0AD1F548006896
:1024800000F40030002851D0606800284ED10120AF
:10249000DFE700BF6068B0F5803F06D1ED48006817
:1024A00040F48030EB4908601AE06068B0F5A02F76
:1024B0000BD1E848006840F48020E64908600846EF
:1024C000006840F4803008600AE0E248006820F4C8
:1024D0008030E04908600846006820F480200860E9
:1024E00000BF606888B1FFF703FB054606E0FFF711
:1024F000FFFA401B642801D90320AAE7D5480068E9
:1025000000F400300028F2D010E0FFF7F1FA0546A1
:1025100006E0FFF7EDFA401B642801D9032098E795
:10252000CC48006800F400300028F2D1207800F098
:102530000200022860D1C748806800F00C07C54837
:10254000C06800F003060C2F01D1022E01D0042F29
:1025500018D1C048006800F4806018B1E06808B97C
:10256000012076E7BB48406820F0FE40217C40EA2D
:102570000160B8494860B8480068FFF7DBFA18B353
:10258000012066E7E06800B3B248006840F480705C
:10259000B0490860FFF7ACFA054606E0FFF7A8FA75
:1025A000401B022801D9032053E7AA48006800F421
:1025B00080600028F2D0A748406820F0FE40217CCF
:1025C00040EA0160A349486016E0A248006820F490
:1025D0008070A0490860FFF78BFA054606E0FFF718
:1025E00087FA401B022801D9032032E79948006886
:1025F00000F480600028F2D1207800F0080008285C
:1026000036D16069D0B193489430006840F0010041
:102610009049C1F89400FFF76BFA054606E0FFF712
:1026200067FA401B022801D9032012E78948943039
:10263000006800F002000028F1D019E085489430CD
:10264000006820F001008349C1F89400FFF750FAB8
:10265000054606E0FFF74CFA401B022801D903208B
:10266000F7E67C489430006800F002000028F1D1C1
:10267000207800F00400042872D14FF0000875485B
:10268000806D012121EA107078B100BF7148806D22
:1026900040F080506F4988650846806D00F080509A
:1026A000009000BF00BF4FF001086C48006800F4C4
:1026B0008070B0B96948006840F48070674908606C
:1026C000FFF716FA054606E0FFF712FA401B02284C
:1026D00001D90320BDE66148006800F4807000283D
:1026E000F2D000BFA068012808D15A489030006895
:1026F00040F001005749C1F8900021E0A06805288A
:102700000FD154489030006840F004005149C1F89E
:1027100090000846D0F8900040F00100C1F8900009
:102720000EE04C489030006820F001004949C1F8A3
:1027300090000846D0F8900020F00400C1F8900006
:1027400000BFA068A8B1FFF7D3F9054609E0FFF77D
:10275000CFF9401B41F28831884202D9032078E644
:1027600025E03C489030006800F002000028EED0E0
:1027700013E0FFF7BDF9054608E0FFF7B9F9401B84
:1027800041F28831884201D9032062E63148903015
:10279000006800F002000028EFD1B8F1010F05D168
:1027A0002C48806D20F080502A49886500BF207831
:1027B00000F02000202836D1A069D0B125489830FB
:1027C000006840F001002349C1F89800FFF790F934
:1027D000054606E0FFF78CF9401B022801D90320CB
:1027E00037E61C489830006800F002000028F1D05D
:1027F00019E018489830006820F001001549C1F828
:102800009800FFF775F9054606E0FFF771F9401BE0
:10281000022801D903201CE60E489830006800F019
:1028200002000028F1D1E069002860D009488068E2
:1028300000F00C000C287FD0E069022858D1054830
:10284000006820F0807003490860FFF751F90546E1
:102850000DE0000000100240080000200070004061
:10286000FFF746F9401B022801D90320F1E54D4846
:10287000006800F000700028F2D1D4E90810401E72
:1028800041EA0011A06A41EA0021208E0122C2EB38
:10289000500041EA40513420005DC2EB500041EA53
:1028A00040612C20005D41EAC0603E49C9683E4A53
:1028B000114008433B49C8600846006840F08070FA
:1028C00008600846C06840F08070C860FFF710F9E3
:1028D000054606E0FFF70CF9401B022801D903204A
:1028E000B7E53048006800F000700028F2D056E0EC
:1028F0002C48006820F080702A4908600846C068AB
:1029000020F00300C8600846C068284908402549EF
:10291000C860FFF7EDF8054607E00DE0FFF7E8F8BF
:10292000401B022801D9032093E51E48006800F0EF
:1029300000700028F2D132E0E069012800D188E57A
:102940001848C66806F00301206A814225D106F0C6
:10295000F001606A401EB1EB001F1ED106F4FE417B
:10296000A06AB1EB002F18D106F078412C20005D51
:10297000B1EBC06F11D106F4C001208E0122C2EB71
:102980005000B1EB405F08D106F0C0613420005D1B
:10299000C2EB5000B1EB406F01D0012059E500209F
:1029A00057E50000001002400C809F01FFFFEEFE83
:1029B00070B506460B4615460F4800680F4900EAF9
:1029C0000104200CD870C4F30420587004F03F00B8
:1029D0009870C4F3423018705DB9D87801F0E2FC09
:1029E000D870587801F0DEFC5870987801F0DAFC65
:1029F0009870002070BD0000042800403FFFFF00D9
:102A000070B506460B4615461448006858601348D2
:102A100008300068C0F30E0098601048083800685D
:102A20000F4900EA0104C4F305401870C4F30620FE
:102A3000587004F07F009870A00DD8705DB91878B8
:102A400001F0B0FC1870587801F0ACFC5870987820
:102A500001F0A8FC9870002070BD0000082800401C
:102A60007F7F7F0070B504460125002C4ED094F87E
:102A7000250028B9002084F82400204600F04CF8F6
:102A8000022084F8250000BFCA2021490860532095
:102A9000086000BF204601F09DFC05466DBB1C4848
:102AA0000C3800681B49084019490C390860216935
:102AB00060680843A169084315490C39096808434F
:102AC00013490C3908602089E16841EA0040104947
:102AD00014390860204601F0A5FC05466DB9D4E91B
:102AE000071008436169084309490C39096821F056
:102AF0006041084306490C39086000BFFF200449C3
:102B0000086000BF15B9012084F82500284670BD73
:102B100024280040BFFF8FFB10B592B0044644212B
:102B200001A8FDF7AFFB13492068884220D14FF47C
:102B3000002001904FF44070119001A8FFF744F974
:102B400008B1FDF757FF0C48006840F400400A49FF
:102B50009039C1F8900000BF0846806D40F4806055
:102B600088650846806D00F48060009000BF00BF5B
:102B700012B010BD00280040901002402DE9F0472F
:102B800005460C46174600BF95F82400012802D1DF
:102B90000220BDE8F087012085F8240000BF022054
:102BA00085F825004FB9607800F01000102804D196
:102BB000607800F0EF000A30607097B9E07801F0BB
:102BC000FBFB4FEA0049607801F0F6FB49EA002977
:102BD000A07801F0F1FB49EA0009207849EA403881
:102BE00009E0E0780004617840EA0120A178084318
:102BF000217840EA413800BFCA20124908605320BA
:102C0000086000BF284601F0E5FB06464EB90E48B5
:102C100008EA00000B4920390860284601F002FC50
:102C2000064600BFFF200749086000BF16B9012013
:102C300085F8250000BF002085F8240000BF30463D
:102C4000A7E70000242800403FFFFF002DE9F047E0
:102C500005460C46904600BF95F82400012802D195
:102C60000220BDE8F087012085F8240000BF022083
:102C700085F8250000BFCA20344908605320086049
:102C800000BF284601F0A6FB0646002E4ED1B8F143
:102C9000000F1CD12D480C38006800F0400000B136
:102CA00002E00020E07000BF207801F085FB4FEAD1
:102CB0000049607801F080FB49EA0029A07801F022
:102CC0007BFB49EA0009E07849EA805713E01F4896
:102CD0000C38006800F0400000B102E00020E07015
:102CE00000BF20780004617840EA0120A178084301
:102CF000E17840EA81571648384014492439086081
:102D000012480C38006820F4802010490C39086003
:102D1000D4E9030108430D490C39096808430B49FC
:102D20000C390860284601F07DFB064600BFFF20F5
:102D30000649086000BF16B9012085F8250000BFCC
:102D4000002085F8240000BF30468AE72428004090
:102D50007F7F7F0070B505460C48006820F020009A
:102D60000A490860FEF7C4FE044607E0FEF7C0FE0D
:102D7000001BB0F57A7F01D9032070BD03480068BD
:102D800000F020000028F1D00020F6E70C280040D9
:102D900070B504462546681EB0F1807F01D301203E
:102DA0000FE0681E4FF0E02148610F214FF0FF3027
:102DB00002F070F800204FF0E021886107200861E0
:102DC000002070BD014600BF91F88000012801D1AC
:102DD00002207047012081F8800000BF2420C1F844
:102DE0008400086802680868006820F001000B6829
:102DF000186022F000520020486608680260202017
:102E0000C1F8840000BF002081F8800000BF00BF2F
:102E1000DFE72DE9F04104460E461746D4F8880056
:102E2000202827D106B117B90120BDE8F08100BFE5
:102E300094F88000012801D10220F6E7012084F8EF
:102E4000800000BFE0663A463146204601F02EFF82
:102E500005466DB9E06E012809D11020216808628D
:102E60002068006840F010002168086000E001253B
:102E70002846DAE70220D8E770B504460D4605A0DB
:102E800001F0DEFF09490AA001F0DAFF01200D4937
:102E9000087070BD556172742043616C6C6261632F
:102EA0006B20537563636573730A0000D0020020C2
:102EB00043616C6C6261636B20446174613A257399
:102EC0000A0A000085000020704770B504460D46D0
:102ED00000BF94F88000012801D1022070BD0120BC
:102EE00084F8800000BF2420C4F8840020680668AD
:102EF0002068006820F00100216808602068806870
:102F000020F06060284321688860204601F062FB61
:102F1000206806602020C4F8840000BF002084F8E8
:102F2000800000BF00BFD9E770B504460D4600BF62
:102F300094F88000012801D1022070BD012084F89E
:102F4000800000BF2420C4F8840020680668206840
:102F5000006820F00100216808602068806820F087
:102F60006040284321688860204601F033FB2068D8
:102F700006602020C4F8840000BF002084F8800090
:102F800000BF00BFD9E77047704770472DE9F04791
:102F900004462068C569206806682068876840F68E
:102FA0000F0005EA0009B9F1000F0FD105F020006C
:102FB00060B106F0200010B907F0805030B1206FEA
:102FC00010B12046216F8847BDE8F087B9F1000FA6
:102FD0007ED0AD48384018B9AC4830400028F7D012
:102FE00005F0010058B106F4807040B1012021685D
:102FF0000862D4F88C0040F00100C4F88C0005F0A1
:10300000020058B107F0010040B1022021680862B7
:10301000D4F88C0040F00400C4F88C0005F00400E3
:1030200058B107F0010040B1042021680862D4F8CB
:103030008C0040F00200C4F88C0005F0080070B16C
:1030400006F0200010B99048384040B108202168AF
:103050000862D4F88C0040F00800C4F88C0005F435
:10306000006060B106F0806048B14FF400602168F4
:103070000862D4F88C0040F02000C4F88C00D4F82A
:103080008C00002844D005F0200050B106F020004C
:1030900010B907F0805020B1206F10B12046216F89
:1030A0008847D4F88CA02068806800F04000402851
:1030B00002D00AF0280028B3204601F0F1FB206876
:1030C000806800F04000402818D12068806800E047
:1030D0001FE020F0400021688860E06F50B16C482C
:1030E000E16F8863E06FFEF762FA88B1E06F816B91
:1030F00088470DE02046FFF748FF09E02046FFF72C
:1031000044FF05E02046FFF740FF0020C4F88C0094
:103110005AE7E06E012879D105F01000002875D03B
:1031200006F01000002871D0102021680862206885
:10313000806800F0400040283DD1E06F00684068A2
:103140001FFA80F8B8F1000F34D0B4F85C004045A5
:1031500030DDA4F85E80E06F0068006800F02000B9
:10316000F8B92068006820F4807021680860206841
:10317000806820F00100216888602068806820F065
:103180004000216888602020C4F888000020E066A4
:103190002068006820F0100021680860E06FFEF7EA
:1031A000CBF9B4F85C00B4F85E20801A81B22046F6
:1031B000FFF762FE08E734F85C0F6188401A1FFAD7
:1031C00080F860885C3CF8B1B8F1000F1CD0206832
:1031D000006820F4907021680860206880682A499F
:1031E000C9430840216888602020C4F88800002076
:1031F000E06620672068006820F010002168086001
:1032000041462046FFF738FEDEE6FFE705F4801072
:1032100050B107F4800038B14FF480102168086283
:103220002046FFF7B1FECFE605F0800058B106F06A
:10323000800010B907F4000028B1606F10B120467B
:10324000616F8847C0E605F0400030B106F04000ED
:1032500018B1204601F042FBB6E605F4000030B19B
:1032600006F0804018B12046FFF78DFEACE605F071
:10327000807030B106F0004018B12046FFF724FE00
:10328000A2E600BFA0E6000001000010200100043B
:103290009B47000810B504460CB9012010BDA06979
:1032A00000B100E000BFD4F8840028B9002084F801
:1032B0008000204600F02AF82420C4F8840020680A
:1032C000006820F0010021680860204601F028FB1A
:1032D000012800D1E2E7A06A10B1204601F0A6F96A
:1032E0002068406820F49040216848602068806829
:1032F00020F02A00216888602068006840F0010002
:1033000021680860204601F00DFAC7E710B598B0B3
:103310000446142113A8FCF7B5FF442102A8FCF7CA
:10332000B1FF2F492068884257D101200290002028
:10333000039002A8FEF748FD08B1FDF75BFB00BF54
:103340002848006E40F48040264908660846006E12
:1033500000F48040019000BF00BF00BF0846C06C71
:1033600040F00100C8640846C06C00F00100019004
:1033700000BF00BF4FF4C0601390022014900020E3
:10338000159016900720179013A94FF09040FEF764
:10339000B5FA1548154908601820486000211348FF
:1033A0008160C16080210161002141618161C16151
:1033B0004FF400510162FEF7C3F908B1FDF71AFBA3
:1033C00000BF0A48E067846200BF00221146252042
:1033D000FEF712FC2520FEF7FBFB18B010BD000025
:1033E000003801400010024008000240E0030020C5
:1033F000704770472DE9F84F04460E461746994628
:10340000D4F8840020285ED106B117B90120BDE8A8
:10341000F88F00BF94F88000012801D10220F6E760
:10342000012084F8800000BF00205434A0632120D4
:103430002063FEF75DFB824627806780543CA068CE
:10344000B0F5805F04D1206910B90025B04602E0D4
:1034500035464FF0000800BF002084F8800000BF10
:103460001DE05346002280212046CDF8009001F057
:103470006DFC08B10320CAE745B9B8F80000C0F3F5
:1034800008002168886208F1020803E028782168B2
:1034900088626D1CB4F85600401EA4F85600B4F8BB
:1034A00056000028DDD15346002240212046CDF8A9
:1034B000009001F04BFC08B10320A8E72020C4F8DD
:1034C00084000020A3E70220A1E7704700BFFEE7C9
:1034D00070B50825002400F0F9FF13E06006040E23
:1034E000002000F0D3FF142002F0DFF9142002F0D6
:1034F000DCF9012000F0CAFF142002F0D6F900F038
:10350000D9FF0443281EA5F10101CDB2E6D100F098
:10351000BDFF142002F0C9F901F002F8204670BD89
:1035200010B5002000F0E8FF142002F0BEF91420CE
:1035300002F0BBF9012000F0A9FF142002F0B5F958
:10354000002000F0A3FF142002F0AFF910BD70B509
:103550000446082517E0002000F098FF142002F030
:10356000A4F904F0800000F0C7FF142002F09DF9D8
:103570006006040E142002F098F9012000F086FF86
:10358000142002F092F9281EA5F10101CDB2E2D17A
:1035900000F07CFF142002F088F970BD10B5012006
:1035A00000F0AAFF142002F080F9142002F07DF947
:1035B000012000F06BFF142002F077F9002000F0EA
:1035C00065FF142002F071F910BD10B5012000F064
:1035D00093FF142002F069F9012000F057FF142036
:1035E00002F063F9002000F087FF142002F05DF97B
:1035F000002000F04BFF142002F057F910BD10B569
:10360000002000F043FF142002F04FF9002000F0EA
:1036100073FF142002F049F9012000F037FF142055
:1036200002F043F9012000F067FF142002F03DF999
:1036300010BD10B5052400F049FF142002F035F943
:10364000012000F023FF142002F02FF90BE0601E90
:1036500084B2142002F029F92CB900F061FFFFF7C1
:10366000CEFF012010BD00F025FF0028EFD100F0B3
:103670000DFF00F055FF142002F017F90020F1E7CC
:1036800000B585B014216846FCF7FCFD4FF6FF70CD
:1036900000900020019003200390002002906946D2
:1036A0000248FEF72BF905B000BD000000080048F5
:1036B00000B585B014216846FCF7E4FD4FF6FF70B5
:1036C00000900120019003200390002002906946A1
:1036D0000248FEF713F905B000BD000000080048DD
:1036E00030B5054600240021084600F049F900F0F5
:1036F00097F900BF03E0284600F056F9641CB4F5C2
:10370000963FF8D330BD000000B587B0142102A861
:10371000FCF7B8FD00BF2B48C06C40F004002949FD
:10372000C8640846C06C00F00400019000BF00BFF0
:1037300000BF0846C06C40F00100C8640846C06C79
:1037400000F00100019000BF00BF00BF0846C06C40
:1037500040F00200C8640846C06C00F0020001900E
:1037600000BF00BF4FF44870029001200390032077
:1037700005900020049002A91348FEF7BFF84FF40B
:103780008070029001200390032005900020049097
:1037900002A94FF09040FEF7B1F8FFF789FF4FF014
:1037A0009040806940F480704FF0904188610648F5
:1037B0001830006840F4087003491831086007B0F9
:1037C00000BD0000001002400004004870B505462E
:1037D0000E461446A4F12000C4B204EB4400044990
:1037E00001EB00123146284600F01AF870BD0000C7
:1037F0007C5F0008F0B507460C46002540F23F16F6
:1038000009E0227831463846FFF7E0FFA6F11000C4
:1038100086B2641C6D1C207808B1142DF1D3F0BD64
:103820002DE9F04306468946174600240025A046A8
:10383000B0464946404600F0A3F800BF1EE000F045
:10384000EFF800250FE037F814000121A9400840E7
:1038500020B90C48008800F0A7F803E00A48008867
:1038600000F0A2F86D1C102DEDD308F1010000F05E
:10387000FF084946404600F083F8641C182CDED34C
:10388000BDE8F083220000202000002010B5FFF7E3
:103890003BFF002000F016F8094908800846008820
:1038A00048F23021884202D100F0ECFB01E000F048
:1038B00079FC002000F006F80149088010BD0000E6
:1038C0002400002070B504462748006840F40070CA
:1038D000254908600846006840F480700860224866
:1038E0001038006840F020001F49103908601F4858
:1038F00004601D48006840F020001B49086000BFBC
:1039000000BF00BF18481038006840F0200016497A
:10391000103908600846006840F480700860FFF7BE
:10392000AFFE4FF09040806A40F480704FF09041BD
:10393000886200BF00BF00BF0C48001F006885B24E
:103940004FF09040806940F480704FF09041886162
:10395000FFF7AEFE04481038006840F400700249DA
:1039600010390860284670BD280400481408004833
:1039700001B5BDF800000149088008BD2200002003
:1039800030B504460D462146202000F085F8294632
:10399000212000F081F830BD01B5BDF800000149DB
:1039A000088008BD200000201B49096841F400710F
:1039B000194A116018491039096841F48071164A92
:1039C000103A11601146096841F020011160134955
:1039D00008601149096841F020010F4A116000BFD9
:1039E00000BF00BF0C491039096841F020010A4AA4
:1039F000103A11601146096841F48071116000BFEE
:103A000000BF00BF04491039096841F40071024A3F
:103A1000103A11607047000028040048140800485C
:103A20001B48006840F400701949086008460068A7
:103A300040F48070086016481038006840F020009C
:103A400013491039086022201249086010480068A4
:103A500040F020000E49086000BF00BF00BF0C48C6
:103A60001038006840F02000094910390860084605
:103A7000006840F48070086000BF00BF00BF0448C9
:103A80001038006840F40070014910390860704730
:103A90002804004814080048214A126842F40072C1
:103AA0001F4B1A601A46126842F480721A601C4A50
:103AB000103A126842F02002194B103B1A60194A62
:103AC0001060174A126842F02002154B1A6000BFBE
:103AD00000BF00BF124A103A126842F02002104B99
:103AE000103B1A601A46126842F480721A600D4A3E
:103AF00011600B4A126842F02002094B1A6000BFA5
:103B000000BF00BF064A103A126842F02002044B80
:103B1000103B1A601A46126842F480721A607047AD
:103B200028040048140800488168024A1140491CD2
:103B300081607047C0FFFF7F0146886800F01F006A
:103B40007047024602F1600000EB8103186800F044
:103B5000F840704701468868C0F3C00070470146CE
:103B6000886800F0010070470146886800F0010095
:103B7000704701468868C0F3007070470146886846
:103B8000C0F38000704701468868C0F3800070472A
:103B90000146C86800F4406008B901207047002061
:103BA000FCE700008168024A1140091D81607047EE
:103BB000C0FFFF7F70B500F11404C1F3406504EB52
:103BC00085031C68C1F304560725B540AC43C1F317
:103BD000045502FA05F52C431C6070BD826822F082
:103BE000E0720A438260704710B500F1600404EB94
:103BF00081031C6824F0004414431C6010BD42691A
:103C000022F000420A4342617047000000B58BB0C9
:103C10000020089009900A9020216846FCF732FBAA
:103C20004FF0A040204908604FF440304860002128
:103C30001D488160C16001614161042181610021F1
:103C40000177012141770162002180F82410C162CF
:103C50000163012180F838100021C16380F8401011
:103C6000FDF7DAF908B1FCF7C5FE0020089008A9B5
:103C70000D48FCF7C3FE08B1FCF7BCFE0B480090F2
:103C800006200190002002907F20039004200490E1
:103C90000020059069460448FCF736FF08B1FCF7A0
:103CA000A9FE0BB000BD0000900000200008302EDF
:103CB00000B589B0202101A8FCF7E4FA1C481D4991
:103CC00008604FF44030486000211A488160C160AC
:103CD0000161416104218161002101770121417766
:103CE0000162002180F82410C1620163012180F883
:103CF00038100021C16380F84010FDF78DF908B13C
:103D0000FCF778FE0C4801900620029000200390FA
:103D10007F200490042005900020069001A905480A
:103D2000FCF7F2FE08B1FCF765FE09B000BD00002B
:103D300000010050FC0000200080F03E08B500BFEC
:103D40001948806C40F00400174988640846806C6C
:103D500000F00400009000BF00BF00BF0846806C68
:103D600040F0010088640846806C00F0010000907B
:103D700000BF00BF002211460B20FDF73DFF0B20C6
:103D8000FDF726FF002211460C20FDF735FF0C2021
:103D9000FDF71EFF002211460D20FDF72DFF0D201F
:103DA000FDF716FF08BD00000010024000B587B007
:103DB000142102A8FCF766FA00BF4748C06C40F027
:103DC00004004549C8640846C06C00F00400019036
:103DD00000BF00BF00BF0846C06C40F02000C864B0
:103DE0000846C06C00F02000019000BF00BF00BF7B
:103DF0000846C06C40F00100C8640846C06C00F082
:103E00000100019000BF00BF00BF0846C06C40F039
:103E10000200C8640846C06C00F00200019000BFB8
:103E200000BF00BF0846C06C40F00800C8640846E8
:103E3000C06C00F00800019000BF00BF01224FF4E9
:103E40007F412648FDF74EFE0022FF212348FDF763
:103E500049FE002204212248FDF744FE0022C02131
:103E60002048FDF73FFE4FF6FF70029001200390BF
:103E700000200490059002A91848FDF73FFD01209D
:103E80000290002003900120049002A94FF090407E
:103E9000FDF734FD072002900020039001200490DC
:103EA00002A91048FDF72AFD04200290012003908A
:103EB00000200490059002A90948FDF71FFDC020CD
:103EC00002900120039004900320059002A9054868
:103ED000FDF714FD07B000BD0010024000080048C7
:103EE000000C00480004004800B587B0142102A867
:103EF000FCF7C8F900200190204821490860002003
:103F000048607D211E48816041F27071C1600021CE
:103F10000161416181614FF08041C1610021016215
:103F2000FEF7A0FD08B1FCF765FD17208DF808002D
:103F30003B208DF8090037208DF80A0000200390FF
:103F400005900690002202A90D48FEF77FFE08B1F9
:103F5000FCF750FD01208DF804008DF805008DF868
:103F6000060000208DF80700002201A90448FEF792
:103F700005FE08B1FCF73EFD07B000BD002800407B
:103F80002802002010B51E481E4908604FF4165044
:103F9000486000211B488160C16001610C214161C2
:103FA00000218161C161016241620020154988627E
:103FB0000846FFF76FF908B1FCF71CFD0021114816
:103FC000FEF7B2FF08B1FCF715FD00210D48FEF722
:103FD0007CFF08B1FCF70EFD0A48FEF7F3FE08B1BE
:103FE000FCF708FD802208490648FEF712FF074843
:103FF0000068006820F0040004490968086010BDEA
:104000000038014050030020D0020020E0030020CF
:1040100000BFFEE700BFFEE77047000070B5164D19
:10402000ED6805F00304144DED68C5F303156B1C32
:10403000022C0CD0032C09D1104DB5FBF3F50E4E1C
:10404000F668C6F3062605FB06F10AE000BF0C4D34
:10405000B5FBF3F5084EF668C6F3062605FB06F138
:1040600000BF00BF044DED68C5F341656D1C6A00DB
:10407000B1FBF2F070BD00000010024000366E018E
:104080000024F40000B501210020FFF705FD4FF4E6
:104090007A70FCF7A0FC00210120FFF7FDFC41F243
:1040A00090711020FFF7F8FC4FF41C516020FFF7CF
:1040B000F3FC01216120FFF7EFFC02214620FFF70E
:1040C000EBFC48F210011320FFF7E6FC48F2FE017A
:1040D0001220FFF7E1FC4FF4A0610220FFF7DCFCA7
:1040E00041F230010320FFF7D7FC40F203313020CA
:1040F000FFF7D2FC40F203313120FFF7CDFC40F254
:1041000003313220FFF7C8FC4FF440713320FFF732
:10411000C3FC03213420FFF7BFFC40F203313520FC
:10412000FFF7BAFC14213620FFF7B6FC40F203314A
:104130003720FFF7B1FC40F203313820FFF7ACFC29
:1041400040F203313920FFF7A7FC4FF440713A20C9
:10415000FFF7A2FC03213B20FFF79EFC40F2033156
:104160003C20FFF799FC4FF4A0513D20FFF794FC51
:104170004FF400719220FFF78FFC40F2033193203F
:10418000FFF78AFC40F60D019020FFF785FC41F215
:1041900018010320FFF780FC40F273110720FFF79E
:1041A0007BFC00BD10B543F20801E320FFF774FC6F
:1041B0001221E720FFF770FC41F23121EF20FFF7D9
:1041C0006BFC00210120FFF767FC4FF4E061022047
:1041D000FFF762FC41F230010320FFF75DFC002194
:1041E0000420FFF759FC40F207210820FFF754FC98
:1041F00000210920FFF750FC00210A20FFF74CFCAA
:1042000000210C20FFF748FC00210D20FFF744FCA3
:1042100000210F20FFF740FC00211020FFF73CFC9D
:1042200007211120FFF738FC00211220FFF734FC92
:1042300000211320FFF730FCC820FDF74BFB41F2B3
:1042400090611020FFF728FC40F227211120FFF792
:1042500023FC3220FDF73EFB1D211220FFF71CFC42
:104260003220FDF737FB4FF400611320FFF714FCF9
:1042700014212920FFF710FC0B212B20FFF70CFC49
:104280003220FDF727FB00212020FFF705FC00214D
:104290002120FFF701FC07213020FFF7FDFB40F252
:1042A00007713120FFF7F8FB06213220FFF7F4FBFE
:1042B00040F204713520FFF7EFFB41F60471362020
:1042C000FFF7EAFB04213720FFF7E6FB0021382047
:1042D000FFF7E2FB40F206713920FFF7DDFB40F209
:1042E00001713C20FFF7D8FB0F213D20FFF7D4FBE5
:1042F00000215020FFF7D0FBEF215120FFF7CCFB2E
:1043000000215220FFF7C8FB40F23F115320FFF776
:10431000C3FB4FF41C516020FFF7BEFB012161205D
:10432000FFF7BAFB00216A20FFF7B6FB00218020CF
:10433000FFF7B2FB00218120FFF7AEFB00218220B6
:10434000FFF7AAFB00218320FFF7A6FB00218420B2
:10435000FFF7A2FB00218520FFF79EFB1021902094
:10436000FFF79AFB00219220FFF796FB0321932091
:10437000FFF792FB4FF488719520FFF78DFB00212A
:104380009720FFF789FB00219820FFF785FB41F27A
:1043900018010320FFF780FB40F273110720FFF79D
:1043A0007BFB10BD0146080900EB8000420001F0D4
:1043B0000F001044C0B2704702460023114603E0CC
:1043C0005B1CA1F10A00C1B20A29F9D2180741EA1F
:1043D0001060704770B5054600261148006800F06F
:1043E0004000D0B90E48006840F080000C490860D9
:1043F000FDF77EFB044609E0FDF77AFB001BB0F5F4
:104400007A7F03D90326032085F825000448006835
:1044100000F0400008B9032EEED1304670BD000018
:104420000C28004070B5044600251748006820F0AD
:1044300080001549086014480C30006800F0200026
:1044400040B92046FEF786FCE0B1032084F8250041
:10445000032517E00C480C30006820F020000A49C2
:104460000C3108602046FEF775FC18B1032084F873
:104470002500032504480C30006840F02000024964
:104480000C310860284670BD0C28004030B1084946
:10449000096841F04001064A116007E00449103103
:1044A000096841F04001024A103211607047000073
:1044B0001804004810B580210348FDF70BFB0128C4
:1044C00000D110BD0020FCE70004004800B585B015
:1044D00014216846FBF7D6FE802000900020019052
:1044E000012002900220039069460248FDF706FA77
:1044F00005B000BD0004004830B10849096841F02A
:104500008001064A116007E004491031096841F052
:104510008001024A10321160704700001804004800
:1045200000B585B014216846FBF7ACFE80200090F2
:104530001120019000200290022003906946024859
:10454000FDF7DCF905B000BD00040048704710B568
:10455000FDF7D4FA10BD00B593B0382105A8FBF7DC
:1045600091FE14216846FBF78DFE4FF40070FDF7B5
:1045700095FB012005900004069002200C90032179
:104580000D910E9114210F91022110911191129110
:1045900005A8FDF759FF08B1FCF72CFA0F20009091
:1045A00003200190002002900390049002216846AD
:1045B000FDF7C2FD08B1FCF71DFA13B000BD000005
:1045C0000348006840F4700001490860704700002B
:1045D00088ED00E070B5456E2DB90125A0F86A5050
:1045E000A0F868501CE0082308240568AD68C5F3EE
:1045F00042610568AD686A0F0A4DAD5C15FB04F5B4
:10460000094EB65C95FBF6F5A0F86A50054D6D5C59
:1046100015FB03F5044E765C95FBF6F5A0F86850A3
:1046200070BD0000545F00085C5F000890F828101F
:1046300001F0010139B10168496821F40031C26A11
:1046400011430268516090F8281001F0020102291C
:1046500007D10168496821F48031026B1143026877
:10466000516090F8281001F00401042907D1016875
:10467000496821F48021426B11430268516090F82F
:10468000281001F00801082907D10168496821F4C0
:104690000041826B11430268516090F8281001F0CC
:1046A0001001102907D10168896821F48051C26B7B
:1046B00011430268916090F8281001F02001202930
:1046C00007D10168896821F40051026C1143026826
:1046D000916090F8281001F04001402913D1016841
:1046E000496821F48011426C114302685160416CA9
:1046F000B1F5801F07D10168496821F4C001826CBF
:1047000011430268516090F8281001F0800180295F
:1047100007D10168496821F40021C26C1143026885
:104720005160704738B504460020C4F88C00FDF78E
:10473000DFF905462068006800F0080008280CD161
:104740006FF07E402B4600224FF40011009020466F
:1047500000F0FCFA08B1032038BD2068006800F0C2
:10476000040004280CD16FF07E402B4600224FF449
:1047700080010090204600F0E9FA08B10320EBE741
:104780002020C4F88400C4F888000020E06600BF40
:1047900084F8800000BF00BFDEE770B50546AC6A54
:1047A0000020A4F85E00A4F856002046FEF7EDFBBA
:1047B00070BD2DE9F0410546AC6AD4F88460D4F8A8
:1047C00088702068806800F08000802807D1212E42
:1047D00005D10020A4F85600204600F090F820688B
:1047E000806800F04000402807D1222F05D100202A
:1047F000A4F85E00204600F053F8D4F88C0040F096
:104800001000C4F88C002046FEF7BFFBBDE8F08125
:1048100070B50546AC6A2868006800F0200000BB4F
:104820000020A4F85E002068006820F480702168F1
:1048300008602068806820F0010021688860206896
:10484000806820F04000216888602020C4F888003B
:10485000E06E012805D12068006820F01000216872
:104860000860E06E012805D1B4F85C102046FEF720
:1048700003FB02E02046FEF7BBFD70BD70B50546A8
:10488000AC6AE06E012806D1B4F85C00410820460D
:10489000FEF7F2FA02E02046FEF7ABFD70BD000025
:1048A0000168096821F490710268116001688968E3
:1048B000094A114002689160C16E012905D1016861
:1048C000096821F01001026811602021C0F88810E9
:1048D0000021C16601677047FEFFFFEF10B5044677
:1048E0002068006820F04000216808602020C4F89B
:1048F0008400002060672046FEF7E7FD10BD0168D8
:10490000096821F0C001026811600168896821F41A
:104910000001026891602021C0F8841070470000F7
:104920002DE9FE4F044600200290D64920688842B7
:1049300000D100E000BF2169A06808436169084315
:10494000E16940EA010820680068CF49084040EA70
:104950000800216808602068406820F44050E16841
:10496000084321684860D4F81880C6492068884206
:1049700002D0206A40EA080820688068C3490840DD
:1049800040EA0800216888602068C06A20F00F00B3
:10499000616A08432168C86200BFBD492068884237
:1049A00016D1BC48006800F0030030B1012808D0DF
:1049B000022804D0032808D105E0012507E00225DC
:1049C00005E0042503E0082501E0102500BF6FE0A5
:1049D000B1492068884216D1AE48006800F00C004A
:1049E00030B1042808D0082804D00C2808D105E0EC
:1049F000002507E0022505E0042503E0082501E085
:104A0000102500BF54E0A5492068884216D1A1486E
:104A1000006800F0300030B1102808D0202804D001
:104A2000302808D105E0002507E0022505E004252F
:104A300003E0082501E0102500BF39E0984920680F
:104A4000884216D19348006800F0C00030B1402879
:104A500008D0802804D0C02808D105E0002507E050
:104A6000022505E0042503E0082501E0102500BF2C
:104A70001EE084492068884219D18648006800F405
:104A8000406048B1B0F5806F0AD0B0F5006F05D036
:104A9000B0F5406F08D105E0002507E0022505E0EC
:104AA000042503E0082501E0102500BF00E01025E3
:104AB00000BF7449206888425DD135B1022D08D00D
:104AC000042D08D0082D0DD109E0FDF74DFC064658
:104AD0000CE0744E0AE0FDF76BFC064606E04FF46E
:104AE000004603E000260120029000BF00BF002E18
:104AF00010D06D49606A31F81000B6FBF0F96068BB
:104B000000EB4000484503D860680003484502D2E6
:104B100001200290AAE06449606A31F810C0624640
:104B2000002330461946FBF775FB4FF4807C0022CA
:104B30000B46A0FB0C1B03FB0CB300FB02336068AD
:104B400040088C461CEB000043EB0201CDE900015C
:104B5000D4F804C062460023FBF75CFB0746B7F5B8
:104B6000407F05D3B7F5801F02D22068C7607DE083
:104B7000012002907AE0E069B0F5004F40D1092DA4
:104B800017D2DFE805F005090D160F1616161300EB
:104B9000FDF7EAFB064610E0FDF7F8FB06460CE0E1
:104BA000404E0AE0FDF704FC064606E04FF40046DE
:104BB00003E000260120029000BF00BFFEB13A4989
:104BC000606A31F81000B6FBF0F04000616800EB5D
:104BD0005100B0FBF1F087B2102F0ED3B7F5803F34
:104BE0000BD24FF6F07007EA000AC7F342004AEA18
:104BF000000A2068C0F80CA038E00120029035E0DF
:104C0000092D17D2DFE805F005090D160F16161647
:104C10001300FDF7A9FB064610E0FDF7B7FB0646BB
:104C20000CE0204E0AE0FDF7C3FB064606E04FF419
:104C3000004603E000260120029000BF00BFAEB195
:104C40001949606A31F81000B6FBF0F0616800EBBA
:104C50005100B0FBF1F087B2102F05D3B7F5803FBC
:104C600002D22068C76001E0012002900120A4F870
:104C70006A00A4F868000020206760670298BDE819
:104C8000FE8F000000800040F369FFCFFFF4FF11AA
:104C900000380140881002400044004000480040B5
:104CA000004C00400024F4003C5F000870B504464E
:104CB0000E46154644F8586FA580002060632220F8
:104CC0002063606A583C08B31D48E16FC8621D4804
:104CD000E16F08631C48E16F48630020E16F88635F
:104CE000236803F124012B46A26DE06FFCF790FDD1
:104CF00060B11020C4F88C0000BF002084F8800050
:104D000000BF2020C4F88400012070BD00BF002037
:104D100084F8800000BF2068006840F4807021683B
:104D200008602068806840F0010021688860206881
:104D3000806840F04000216888600020E5E70000BE
:104D4000114800087D480008B34700082DE9F041EC
:104D500004460D4617469846069E4AE0701C0028F9
:104D600047D0FCF7C5FEA0EB0800B04200D8C6B99A
:104D70002068006820F4D07021680860206880688E
:104D800020F00100216888602020C4F88400C4F865
:104D9000880000BF002084F8800000BF0320BDE829
:104DA000F0812068006800F0040010B32068C0693A
:104DB000C0F3C020E8B14FF40060216808622068A9
:104DC000006820F4D070216808602068806820F0B6
:104DD0000100216888602020C4F88400C4F888009D
:104DE000C4F88C0000BF002084F8800000BF0320BE
:104DF000D5E72068C0692840A84201D1012000E021
:104E00000020B842AAD00020C9E7000010B5084829
:104E1000FEF7BCF8802207490548FDF7FAFF06486F
:104E20000068006820F0040003490968086010BDAC
:104E300050030020D0020020E003002000BFFEE766
:104E40000FB4054B10B503A9044A029800F008F905
:104E500010BC5DF814FB0000C55800088C00002051
:104E600037B514460846064B6A46214600F0F8F866
:104E700004466946002000F076FC20463EBD000056
:104E80006757000802480068C0F30220704700001E
:104E90000CED00E010B5002804DB0A07130E054AEC
:104EA000135406E00A07140E034A00F00F031B1FF9
:104EB000D45410BD00E400E018ED00E002E008C8A2
:104EC000121F08C1002AFAD170477047002001E084
:104ED00001C1121F002AFBD1704700002DE9FF5FBE
:104EE00082B00021DDE90430020DDDF840B003435B
:104EF00018D044F61050A2F2FF3242431514119814
:104F000001281FD0A5EB0B00401C5FEA000A4FF000
:104F100000064E4FDFF83891B046504615D5CAF11D
:104F2000000413E0119801244AA3012801D16FEA7B
:104F30000B010298119AC0E90031C0E9024206B0A3
:104F4000BDE8F09FCBF10000DFE704460021404AB6
:104F5000491842EB0450CDE9001012E0E00707D0F9
:104F600032463B4640464946FBF793FA804689461F
:104F700032463B4610461946FBF78BFA06460F466B
:104F80006410002CEAD1DDE90401DDE90023BAF167
:104F9000000F06DAFBF77DFA42464B46FBF779FA3B
:104FA00005E0FBF7E8FA42464B46FBF7E4FA044615
:104FB0000E460022284BFBF765FB03D84FF0FF306D
:104FC000014607E00022254B20463146FBF7BAF99F
:104FD000FBF740FB102409E0002C0ADB0A22002327
:104FE000FBF718F9039B30321A55641E50EA010290
:104FF000F2D1641C039AC4F111031444119A012ADA
:1050000003D0012208430DD10AE0084304D0002058
:105010004FF0110B119072E7A3EB0B056D1E0DE025
:105020005B4504DD4FF0000205F1010504E003DA01
:105030004FF00002A5F10105002AECD00298119969
:10504000C0E90231C0E9004579E7000000001440E2
:105050000000F03F300000000000F0430000E03F9F
:105060002DE9FF4F95B09A46884606460025EEE1A9
:10507000252877D100242746F94A0121039400E02E
:10508000044316F8013F203B01FA03F01042F7D128
:1050900030782A2811D06FF02F033078A0F1300239
:1050A000092A16D8039A44F0020402EB820203EBA9
:1050B00042021044761C0390EFE758F8042B039249
:1050C000002A03DA504244F40054039044F00204EE
:1050D000761C30782E2816D116F8010F44F00404FF
:1050E0002A280DD06FF02F023078A0F13003092B61
:1050F00009D807EB870302EB4303C718761CF3E7D5
:1051000058F8047B761C30786C280FD006DC4C28CD
:1051100017D068280DD06A2814D104E0742810D064
:105120007A280FD10DE044F400140AE044F480140E
:1051300001E044F440147278824202D104F58014F4
:10514000761C761C307866280BD013DC582877D074
:1051500009DC002875D04528F6D04628F4D0472829
:105160001AD193E118E0632835D0642879D06528F6
:1051700012D18BE1702873D008DC6728F1D0692840
:105180006FD06E280DD06F2806D1ACE073282CD0DC
:10519000752874D0782853D05246179990476D1CC3
:1051A00054E1C4F30250022809D003280DD0D8F8E6
:1051B000001004280DD00D6008F1040846E1D8F86D
:1051C0000010EA17C1E90052F6E7D8F800100D8088
:1051D000F2E70D70F0E718F8041B8DF800100020BE
:1051E0008DF80100EB46012003E058F804BB4FF0B6
:1051F000FF3061074FF0000102D40DE009F1010119
:105200008946B9420FDA8145F8DB1BF809100029FD
:10521000F4D108E009F1010189468142FADB1BF86B
:1052200009100029F6D103985346A0EB090721463F
:105230003846179A00F080FA284400EB090507E089
:1052400044E008E10DE01BF8010B52461799904726
:10525000B9F10109F7D2534621463846179AF2E0D0
:1052600039E00A21C4F302524FF0000B0091022AE8
:1052700006D058F8040BC117032A09D00AE023E02E
:1052800008F1070020F00702F2E80201904605E06D
:1052900000B2C117042A01D140B2C117002906DAB1
:1052A0000A460021404261EB02012D2202E0220564
:1052B00004D52B228DF80420012203E0E20701D05F
:1052C0002022F7E7914657E00A2100E010214FF035
:1052D000000B00910BE010214FF0000B44F0040490
:1052E0000827009103E008204FF0000B0090C4F362
:1052F0000252022A05D058F8040B0021032A08D0D4
:1053000008E008F1070020F00702F2E802019046E9
:1053100003E080B2042A00D1C0B24FF00009220796
:105320002AD53278702A07D0DDF800C08CF0100C36
:105330005CEA0B0C05D00EE040228DF8042001221F
:1053400008E050EA010306D030238DF804308DF8D0
:10535000052002229146009B83F0080353EA0B03C9
:105360000AD150EA010201D1620705D530228DF839
:1053700004204FF001097F1E3278582A04D039A248
:105380000C920CAA02920BE03BA2F9E75B46009A52
:10539000FAF740FF0C9B9B5C029A521E029213701C
:1053A00050EA0102F2D1029804A9081A00F1200B78
:1053B000600702D524F4803400E001275F4502DD58
:1053C000A7EB0B0000E0002000EB0B01009003981E
:1053D0004944401A0390E00306D453462146179AE5
:1053E000039800F0A9F90544002706E001A85246F9
:1053F000C05D179990476D1C7F1C4F45F6DBE0039D
:105400000CD553462146179A039800F095F90544A8
:1054100004E030205246179990476D1C0099481EB1
:1054200000900029F5DC08E00298029952460078C5
:10543000491C0291179990476D1CBBF10001ABF11B
:10544000010BF1DC5BE100F065F90544761C307876
:1054500000287FF40DAE19B02846BDE8F08F00009B
:10546000092801003031323334353637383961623A
:1054700063646566000000003031323334353637FE
:10548000383941424344454600000000600700D4DB
:10549000062708F1070020F00700F0E80223804605
:1054A00003F0004C5FEA0C0001D097A009E0200552
:1054B00001D596A005E0E00701D095A001E0AFF28C
:1054C0004C001390307823F0004365280CD006DCA4
:1054D000452809D046281DD047287FD13BE06628C3
:1054E00018D067287AD136E00021112F01DB112076
:1054F00000E0781CCDE9000104A90CA8FFF7EEFC40
:10550000DDE90D010C9A4FF0000B07F10109109233
:1055100000914EE04FF000400097CDE9011004A942
:105520000CA8FFF7DBFCDDE90D020C9B0F994FF097
:10553000000B91461093009211B9791C00EB010900
:10554000B7EB090003D4C0F1FF3B07F10109A9EB58
:105550000700019042E0012F00DA01270021112FFE
:1055600001DD112000E03846CDE9000104A90CA8B6
:10557000FFF7B4FCDDE90D010C9A00914FF0000B30
:10558000B946109221070FD4009A4A4503DA914692
:1055900001E0A9F10109B9F1010F05DD109AA9F1A6
:1055A0000101515C3029F4D0B84202DA10F1040F45
:1055B00003DA0121CDE9011010E0002803DC834467
:1055C000A9EB000102E0411C494500DD8946A0EB42
:1055D0000B00401C01904FF000400290200705D4C2
:1055E0000198484502DB4FF0FF30019000208DF814
:1055F0004B0002980DF14B07B0F1004F25D002206F
:105600000C902B200D90029800280CDA404202905A
:105610002D200D9007E00A210298FAF75EFE303146
:10562000029007F8011D0C99481E0C900029F2DC2D
:1056300002980028EFD1791E0D980870307800F09C
:10564000200040F0450007F8020D11A8C01BC01D46
:1056500002901398007800B1012000EB0901019835
:1056600001EBE071029801440398401A401E039038
:10567000E00306D453462146179A039800F05CF8DD
:1056800005441398007818B15246179990476D1C3D
:10569000E00323D553462146179A039800F04CF8AF
:1056A00005441BE0BBF1000F07DB0098584504DD03
:1056B0001098179910F80B0001E017993020524606
:1056C000904701980BF1010B401E05F10105019077
:1056D00004D12E205246179990476D1CB9F1000154
:1056E000A9F10109DEDC05E017F8010B5246179914
:1056F00090476D1C0299481E02900029F4DC534625
:105700002146179A03989EE62D0000002B0000000A
:10571000200000002DE9F041044600251E461746F2
:10572000880404D405E039462020B0476D1C641E6F
:10573000F9D52846BDE8F0812DE9F0410446002561
:105740001E469046C80301D5302700E02027880474
:1057500004D505E041463846B0476D1C641EF9D5B6
:105760002846BDE8F0810A68531C0B601070704732
:1057700000201FE02149D1ED000A214951F82010F5
:1057800000EE101AB8EE400A30EE800A1B4981ED97
:10579000000AD1ED010A1A49783151F8201000EEC3
:1057A000101AB8EE400A30EE800A144981ED010A61
:1057B000411CC8B21E28DDDB104890ED000AF3EE54
:1057C0000E0A80EE201A9FED0F0A21EE000ADFED8F
:1057D0000E0A80EE201A80ED001A90ED010AF3EE19
:1057E0000E0A80EE201A9FED070A21EE000ADFED77
:1057F000060A80EE201A80ED011A7047140000207E
:1058000040040020333353400000804570B5044607
:105810000E461546FDF7D9FEA020FDF798FEFDF7D0
:1058200008FF3046FDF793FEFDF703FFFDF7CDFEC1
:10583000A120FDF78CFEFDF7FCFE09E0FDF748FE18
:1058400004F8010B15B1FDF76BFE01E0FDF7A6FEB4
:10585000281EA5F10101CDB2F0D1FDF7D0FE70BD3B
:1058600070B504460D461646FDF7AFFEA020FDF7C5
:105870006EFEFDF7DEFE2846FDF769FEFDF7D9FE58
:1058800008E014F8010BFDF762FEFDF7D2FEC82018
:1058900000F00BF8301EA6F10101CEB2F1D1FDF7F8
:1058A000AEFE0A20FCF716F870BD01B581B00020ED
:1058B000009002E00098401C0090DDE90001884261
:1058C000F8D30CBD13B50C460A23012269460248E1
:1058D000FDF790FD00981CBD5003002010B500247A
:1058E00001210E48FCF7F6F808B9012414E0022162
:1058F0000A48FCF7EFF808B902240DE00421074834
:10590000FCF7E8F808B9032406E001214FF09040C5
:10591000FCF7E0F800B90424204610BD000400485C
:1059200038B5FFF7DBFF5149087051480078097816
:1059300048404E49097808404E4908704C48007864
:105940004A49097848404949097888434A490870D2
:10595000464800784649087046480078012806D035
:1059600002280BD0032823D004287DD149E04348E6
:10597000007880F001004149087075E040A0FFF711
:105980005FFA47A0FFF75CFA002406E04948015D92
:1059900049A0FFF755FA601CC4B2052CF6DB0522BE
:1059A00000214448FFF75CFF45A0FFF749FA5BE0A0
:1059B00049A0FFF745FA504800210160416001818C
:1059C0000522FFF723FF36A0FFF73AFA002405E08F
:1059D0004948015D38A0FFF733FA641C052CF7DB5A
:1059E0002EA0FFF72DFA052243493248FAF755FC5D
:1059F00018B942A0FFF724FA02E046A0FFF720FA08
:105A000032E04AA0FFF71CFA4F48007810304E49A8
:105A10000870084600787F2801DD002008704A4899
:105A20000278017849A0FFF70BFA4748007800F0A8
:105A3000E8F9684600F0D4F99DF8002011464CA022
:105A4000FFF7FEF9404800789DF80010884203D126
:105A50004FA0FFF7F5F906E09DF800203A480178DD
:105A600051A0FFF7EDF900BF00BF38BD1C000020BA
:105A70001D0000201E0000201F000020310000201B
:105A80000D0A3D3D3D20415432344330322057729F
:105A90006974652054657374203D3D3D0D0A000016
:105AA000616464723A307830302020646174613A05
:105AB00000000000260000203078253032582000F9
:105AC0000D0A577269746520636F6D706C6574653B
:105AD00064210D0A000000000D0A3D3D3D204154A7
